:10000000000001201D7901004579010047790100B8
:10001000497901004B7901004D7901000000000091
:100020000000000000000000000000006D4800001B
:1000300051790100000000008D4800005579010051
:10004000B17A0100FD050000577901009D0500000F
:100050005779010057790100D17C01006D7E0100C4
:100060005779010057790100577901001506000002
:1000700057790100090600005779010057790100FE
:1000800021060000ED480000577901005779010072
:10009000577901005779010057790100577901001C
:1000A000577901005779010057790100577901000C
:1000B000577901005779010000000000000000009E
:1000C00057790100577901005779010057790100EC
:1000D00057790100577901005779010000000000AD
:1000E0000000000000000000000000000000000010
:1000F0000000000000000000000000000000000000
:1001000000000000000000000000000000000000EF
:1001100000000000000000000000000000000000DF
:1001200000000000000000000000000000000000CF
:1001300000000000000000000000000000000000BF
:1001400000000000000000000000000000000000AF
:10015000000000000000000000000000000000009F
:10016000000000000000000000000000000000008F
:10017000000000000000000000000000000000007F
:10018000000000000000000000000000000000006F
:10019000000000000000000000000000000000005F
:1001A000000000000000000000000000000000004F
:1001B000000000000000000000000000000000003F
:1001C000000000000000000000000000000000002F
:1001D000000000000000000000000000000000001F
:1001E000000000000000000000000000000000000F
:1001F00000000000000000000000000000000000FF
:1002000010B5054C237833B9044B13B10448AFF350
:1002100000800123237010BDE801002000000000D1
:10022000E4FD010008B5034B1BB103490348AFF3DC
:10023000008008BD00000000EC010020E4FD01008A
:10024000A3F5803A704700BF174B002B08BF134B34
:100250009D46FFF7F5FF00218B460F461348144AD1
:10026000121A1AF013FA0E4B002B00D098470D4BC0
:10027000002B00D098470020002104000D000D48FD
:10028000002802D00C48AFF300801AF031F92000AA
:10029000290000F071FA1AF017F900BF00000800F9
:1002A000000000000000000000000120E801002024
:1002B0006070002000000000000000000020704777
:1002C00010B5039B416004468360002201210A208F
:1002D00018F0EAF8E060204610BD000007B50023E2
:1002E00001900093084903464FF40072074818F044
:1002F00019FC012805D0042003B05DF804EB19F0C7
:1003000071BC03B05DF804FBA0D201008D040000B5
:100310002DE9F0418CB0002405460B4600941249AB
:1003200040F2A55205A805F0FBF905F110064FF4BF
:10033000F07801274FF4F072314605A805F0FAF97C
:100340004FF4FA71012019F01DF9A2B2CDE901684C
:1003500068680097F0230021013400F0EDFBF02CD9
:10036000E8D10CB0BDE8F081ABD201004FF6FF71CF
:10037000FFF7CEBFF0B52DED048B00F1100608EEAF
:10038000101A85B0054600F5F8713346994202D03F
:1003900003F8012BFAE79FED169ADFED168ADC24AD
:1003A00001274FF4FA71012019F0ECF8F8EE487AC1
:1003B0006868009767EE897A0021F4EE687AF1EEBA
:1003C00010FAC8BFF0EE687AFCEEE77A17EE903AC2
:1003D0009BB25A00CDE9016222460134A4B200F07A
:1003E000ABFBF02CDDD105B0BDEC048BF0BD00BF44
:1003F0009A991940000070431FB50446C822C0688E
:100400000DF10F0118F080F928B19DF80F30032B82
:1004100026D0092B2FD0A3685A78FAB1DA68022ABD
:100420002CD0032A2ED0012A18D1D3ED027A93EDD5
:10043000017AF8EE676AB8EE477A4FF6FF72C6EEB9
:10044000877A9FED117A67EE877AFCEEE77ACDED39
:10045000017A9DF804102046FFF78CFF04B010BD10
:10046000A3681B7823B1FF212046FFF751FFD2E795
:100470004FF6FF71F8E74FF4FC61F5E74EF2070223
:100480006421E8E7FF22FBE70000C84210B50446FC
:1004900018F082FF00230222194619F0A7F820461F
:1004A000FFF764FF2046FFF7A7FFFBE71FB5002318
:1004B0008DF8071003AA0DF10701C068039318F027
:1004C000C1F805B05DF804FB07B5002300931A4698
:1004D000032119F0ADF9044B1868112103B05DF840
:1004E00004EB04F0AFBB00BF0C03002007B50023F2
:1004F00000931A46032119F09BF9034B186803B0C7
:100500005DF804EB04F026BC0C03002010B58368F2
:10051000044613B1032201469847204610BD00004F
:1005200030B51C2885B005D1174B186804F032FC93
:1005300005B030BD00241328039419D1032917D125
:10054000124B1D6818F038FC0094024603AB0621DC
:10055000284619F06DF9039B002BE9D00C4B4FF0A6
:1005600080525A6040BFBFF34F8FBFF36F8FDFE7FA
:10057000084B1C6818F020FC00230246009306215B
:1005800003AB2046E5E700BF0C0300205802002023
:1005900000ED00E05C0200207047000010B5154C33
:1005A000D4F80433580609D5D4F81831012B05D1F5
:1005B00000231148C4F8183100F056FDD4F8043374
:1005C000190309D5D4F84C31012B05D100230A4871
:1005D000C4F84C3100F02AFD064BD3F804239207EF
:1005E00006D5D3F80421012A04BF0022C3F8042150
:1005F00010BD00BF00300040E8020020014B1B6826
:10060000184700BF10020020014B1B68184700BFAD
:1006100004020020014B1B68184700BF0C02002099
:10062000044B002282B01A601B680193019B02B048
:10063000704700BF000101400B2808D00D2804D0EE
:10064000012801D1034B19607047034BFBE7034BB3
:10065000F9E700BF10020020040200200C02002075
:10066000EFF3108072B600F00100704700B962B677
:1006700070470000004870470802002010B5044C85
:100680004FF0FF31204605F0A7FB43689847F7E796
:100690000802002008B5FFF7F1FF000008B50022AE
:1006A0000421202017F000FF0C4B186016F020F9F1
:1006B00005F024FF0EF098FF0021052015F0A2FFA1
:1006C0004FF4004015F00EFA0FF040FB0FF032F837
:1006D000BDE80840024805F051BB00BF08020020F9
:1006E000950600000FF09CBA10B5044600F5266090
:1006F00019F09AFD04F6482019F096FD04F52360E0
:1007000019F092FD04F6081019F08EFD04F50F6043
:1007100019F08AFD04F6D80019F086FD0D4BC4F8D7
:10072000FC3504F21C60FFF7F1FE0B4BC4F8643596
:1007300004F5AF60FFF7EAFEA06B18B14FF49871B3
:1007400019F027FD206A18B14FF4F87119F021FD56
:10075000204610BD44F1010020F1010038B50568C4
:1007600004463DB12846FFF7BFFF4FF459612846C4
:1007700019F00FFD204638BD00B58DB017F00CF90B
:10078000264B009300231A46C821254819F036F855
:10079000244B1860244B009300231A46C821234899
:1007A00019F02CF8224B18604FF4596019F002FD33
:1007B000204B0893204B0793204B0693204B059327
:1007C000204B0493204B0393204B0293204B019327
:1007D000204B0093204A214B2149044604F0A3F901
:1007E00000230B931F4B1D681C601C463DB128461F
:1007F000FFF77AFF4FF45961284619F0CAFC0BA89D
:10080000FFF7ACFF206804F003FAFFF747FF18F08A
:1008100097FA0F2019F0E6F9FBE700BFED0400009E
:1008200050D801005C020020C90400005ED801001D
:1008300058020020C4020020840200206802002028
:10084000C00200203C020020140200208002002090
:100850001003002024030020700200200403002065
:10086000E80200200C030020F7B52A4C2A4E20682D
:100870002A4FA38800906D462A4600213046ADF8E5
:10088000043000F0F2FA31461922384600F074FDC7
:1008900039461222224F234800F06CF83146224E8E
:1008A0000522384600F068FD3946304600F0DCF994
:1008B000D4E902011D4C85E803002A4600212046A8
:1008C00004F08DFD21461522194803F023FF21462F
:1008D0001822184800F06AFE214644221648174C98
:1008E00000F0E4FD164801F05FFC164B164917486E
:1008F0000022C3E901221A80DA60154A19F044FC8B
:100900003146204603F029FE2146124805F009FA37
:1009100003B0F0BD74D80100E80200207802002086
:100920006002002070020020040300202403002045
:10093000100300208402002068020020C40200206E
:10094000140200203C0200205D0700000C03002080
:1009500000000020C002002038B5054D044645F0D7
:1009600001054FF47A40A847013CFAD138BD00BFD9
:1009700090D8010002710022016042717047006846
:1009800000F00ABD07B503798DF8071001224FF07A
:10099000A04102FA03F3C1F80C350DF10701FFF78E
:1009A000EEFF03B05DF804FB07B503798DF807107F
:1009B00001224FF0A04102FA03F3C1F808350DF10E
:1009C0000701FFF7DCFF03B05DF804FB08B5012168
:1009D000FFF7D8FFBDE808409620FFF7BDBF112103
:1009E000FFF7D0BF1021FFF7CDBF10B53A21044665
:1009F000FFF7C8FF20465521FFF7D6FFBDE810409E
:100A00000A20FFF7A9BF10B536210446FFF7BAFF49
:100A100020460021BDE81040FFF7C6BF10B52A21CF
:100A20000446FFF7AFFF20460021FFF7BDFF204639
:100A30000021FFF7B9FF20460021FFF7B5FF204650
:100A4000F021BDE81040FFF7AFBF10B52B210446E1
:100A5000FFF798FF20460021FFF7A6FF2046002160
:100A6000FFF7A2FF20460121FFF79EFF204640210D
:100A7000BDE81040FFF798BF08B52121FFF782FFBE
:100A8000BDE808400A20FFF767BF08B51321FFF74C
:100A900079FFBDE808400A20FFF75EBF2921FFF774
:100AA00071BF2C21FFF76EBF2DE9F04104460F46C0
:100AB0002A2115461E46BDF81880FFF763FF390A44
:100AC0002046FFF771FFF9B22046FFF76DFF310AAC
:100AD0002046FFF769FFF1B22046FFF765FF204689
:100AE0002B21FFF74FFF290A2046FFF75DFFE9B2F0
:100AF0002046FFF759FF4FEA18212046FFF754FF21
:100B000020465FFA88F1FFF74FFF2046BDE8F0412D
:100B1000FFF7C7BF70B5CEB204460D464671372108
:100B2000FFF730FF290A2046FFF73EFF31462046F7
:100B3000BDE87040FFF738BFF7B5BDF82040013C75
:100B40001444013B05460B44A4B200949BB2DDE97A
:100B50000967FFF7A9FF2A79012393404FF0A042CC
:100B60003146C2F8083528463A4603B0BDE8F040A1
:100B7000FFF705BF38B54FF0A0444FF08065C4F8CB
:100B80000C550A20FFF7E8FEC4F8085538BD10B52B
:100B90000446006800F01EFC22794FF0A04302F5E5
:100BA000E072032143F822104FF08062C3F8681707
:100BB0002046C3F80825FFF7DDFF2046FFF706FFB4
:100BC0002046FFF70CFF2046FFF70FFF2046FFF7F8
:100BD0001AFF2046FFF722FF2046FFF736FF204688
:100BE000FFF74AFF2046FFF750FF2046BDE81040C0
:100BF000FFF754BF10B50446FFF7F4FE23794FF01A
:100C0000A04203F5E073022142F8231010BD10B595
:100C100003794FF0A04203F5E0730321044642F844
:100C20002310FFF7A7FF2046FFF7D0FE2046FFF76F
:100C3000D6FE2046FFF7D9FE2046FFF7E4FE204609
:100C4000FFF7ECFE2046FFF700FF2046FFF714FFFA
:100C50002046FFF71AFF20466179FFF75BFF204629
:100C6000BDE81040FFF71ABF002201600271427117
:100C70008271704707B5B92301220DF107010068A1
:100C80008DF8073000F088FB03B05DF804FB10B569
:100C900086B09F238DF80F3003230093002404AB0C
:100CA00001220DF10F010068ADF810408DF81240DF
:100CB00000F078FB049B2046DAB262F30700C3F32E
:100CC000072262F30F20C3F3074363F3174006B014
:100CD00010BD10B50446FFF7DAFFC0F307236371B8
:100CE000C0F307432071A37110BD00001FB50D4B69
:100CF000039300238DF80B300123009304460DF17C
:100D00000B03042203A9006800F04CFB2046FFF708
:100D1000BEFFC0F307232071C0F307406371A071C9
:100D200004B010BDAB0102031FB5012200920523E0
:100D30008DF80E300DF10E010DF10F03006800F07B
:100D400031FB9DF80F0005B05DF804FB08B5FFF717
:100D5000EBFF00F0010008BD08B5FFF7E5FFC0F3A9
:100D6000400008BD1FB5032400938DF80C400C0C07
:100D700049BAADF80E10134603A9042200688DF895
:100D80000D4000F00FFB04B010BD1FB506238DF819
:100D90000F300023009301220DF10F01006800F0D5
:100DA00001FB05B05DF804FB1FB520238DF80C3066
:100DB0000B0C49BA04468DF80D30ADF80E10FFF754
:100DC000E4FF2046FFF7C8FF18B9012018F0E8F843
:100DD000F7E7002320680093042203A900F0E2FA59
:100DE0002046FFF7B3FF18B1012018F0D9F8F7E754
:100DF00004B010BD2DE9F043074685B00D4690467E
:100E00001E464FF002096EB325F0FF04641B04F583
:100E100080742B0CB4428DF80D3038466BBA28BF65
:100E200034468DF80C90ADF80E30FFF7AEFF384623
:100E3000FFF792FF18B9012018F0B2F8F7E7386809
:100E400000944346042203A900F0B8FA3846FFF79D
:100E50007DFF18B1012018F0A3F8F7E72544A0445E
:100E6000361BD0E705B0BDE8F08310B513684171BB
:100E7000C0F8063000219388C160044643810161B7
:100E80000322012017F010FBA061204610BD0000D6
:100E900010B5417A4FF0A042012303FA01F1C2F8E4
:100EA0000815417A01F5E071032442F82140817A66
:100EB0008B40C2F80C35837A03F5E07342F8234087
:100EC000C17A01F5E071002342F8213042791AB16C
:100ED000012A47D0002010BD244B03600368427AEA
:100EE000C3F808250368827AC3F80C250368C27A20
:100EF000C3F81025037A002BECD103684FF00042B1
:100F0000C3F824258379002BE4D1C279032AE1D8E0
:100F100001685200C1F854250268C2F81031026815
:100F2000C2F820310268C2F8183102684021C2F8C4
:100F3000041302680224C2F8044302684FF4002438
:100F4000C2F8044302680724C2F80045084A82F840
:100F500003130821116080691A46194617F0C8FA70
:100F60000120B8E74FF04023B7E700BF0030004052
:100F700000E100E070B5D1F80855164C03F5A276F3
:100F800044EA0524144D45F82640D4009B0004F1A2
:100F9000804404F5F83403F1804303F5C243C4F8F8
:100FA000103501F11403C4F81435012303FA02F2D9
:100FB0000A4BC3F8042503680022C3F81821402314
:100FC000C1F808330223C1F808334FF40023C1F8F5
:100FD000083370BD010003000060004000F00140D4
:100FE00030B503F5A2730F4D002445F82340D3001C
:100FF00003F1804303F5F833C3F81045C3F81445F3
:10100000094BC3F804250368C3F818414023C1F80D
:1010100004330223C1F804334FF40023C1F804332E
:1010200030BD00BF0060004000F00140704782B05A
:10103000036801910092019AC3F844250368009A5D
:10104000C3F8482502680023C2F850350268C2F888
:1010500034350268C2F838350268C2F84035026893
:10106000C2F8183102B0704737B5C36804468BB177
:1010700005698DB1FF2D28BFFF252A46C168FFF7FE
:10108000D6FFC3682B44C36002690368521B026128
:1010900001221A6103B030BD43697BB140690195FB
:1010A00001A918F0FBFA019B43B1124B4FF080529B
:1010B0005A6040BFBFF34F8FBFF36F8F2279012378
:1010C00093404FF0A04201A9C2F808350023E36025
:1010D000A069019317F0ECFA019B002BDAD0054BC5
:1010E0004FF080525A6040BFBFF34F8FBFF36F8FF6
:1010F000D0E700BF00ED00E084B0039102920268E7
:1011000001930023C2F844350268C2F848350268EA
:10111000C2F8503502680199C2F834150268049982
:10112000C2F838150268C2F840350268C2F81831B2
:1011300004B070472DE9F041044688461F46164624
:10114000002A47D04FF0FF31806917F057FB18F0A5
:1011500023F90023012F6061216884F804801A4676
:10116000204634D1FFF706FF237901254FF0A04236
:1011700005FA03F3C2F80C35E66027612669E168D9
:10118000FF2E28BFFF2632462046FFF750FF236977
:101190009B1B2361E26823683244AF42E2601D6119
:1011A00013D12268D2F81831002BFBD023794FF0ED
:1011B000A042012505FA03F3C2F808350023A0690F
:1011C000E3601A46194617F093F9284603E0FFF743
:1011D00007FFC9E71046BDE8F0812DE9F341044659
:1011E0000025884680694FF0FF3116461F4617F0EC
:1011F00005FB216884F804802B462A462046656159
:10120000FFF7EEFE23684022C3F80823236802227A
:10121000C3F8082323684FF40022C3F80823237976
:101220004FF001084FF0A04208FA03F3C2F80C3562
:101230003146E5603A462561FFF7F9FE2368C3F8B9
:1012400010802268D2F81831002BFBD0099B009344
:101250003A46089B31462046FFF74EFF236801229D
:101260001A612268D2F81831002BFBD023790125AE
:101270004FF0A04205FA03F3C2F808350023A06935
:101280001A46194617F034F9284602B0BDE8F08135
:1012900000220368D3F8001511B1C3F80025F8E760
:1012A000427A4FF0A04302F5E072022143F8221087
:1012B000827A02F5E07243F82210C27A02F5E072F7
:1012C00043F822107047FFF7E3BD2DE9F0410446D3
:1012D0000025884680694FF0FF3116461F4617F0FB
:1012E0008DFA216884F804802B462A4620466561E1
:1012F000FFF776FE23684022C3F808232368022202
:10130000C3F8082323684FF40022C3F80823237985
:101310004FF001084FF0A04208FA03F3C2F80C3571
:101320003146E5603A462561FFF781FE2368C3F840
:1013300010802268D2F81831002BFBD0DDE90612AC
:101340002046FFF774FE236801221A612268D2F852
:101350001831002BFBD0237901254FF0A04205FA6C
:1013600003F3C2F808350023A0691A46194617F09E
:10137000BFF82846BDE8F08110B5016002F5E073C2
:101380004FF0A0410324027141F82340012303FAE6
:1013900002F2C1F8082510BD13460A46017900681B
:1013A000FFF7C8BE13B5049CCDE9003413460A46C6
:1013B00001790068FFF711FF02B010BD13B5049C5E
:1013C000CDE9003413460A4601790068FFF77DFF36
:1013D00002B010BD03794FF0A042012000FA03F3E0
:1013E000C2F8083570470000014B01221A607047AF
:1013F00000000140024B034AC3F80026704700BFBB
:10140000000001403546526E4FF080424FF0FF31F0
:10141000D2F80034C2F80014D9070FD49A070FD4B9
:1014200059070FD41A070FD4D9030FD49A030FD436
:1014300013F4002F0CBF08200720704700207047CE
:101440000120704702207047032070470420704736
:101450000520704738B5144BD3F80C2522F0010253
:10146000C3F80C25D3F80C2542F00102C3F80C2573
:10147000D3F80C2522F04002C3F80C25D3F80C2534
:10148000C3F80C254FF47A7505FB01F2D203B2FBC9
:10149000F5F2013AC3F804250122C3F808250446F1
:1014A000FFF7B2FF206038BD00000140016002710B
:1014B00070471FB5012300938DF80F200DF10F0326
:1014C0000A460179006804F0F6F805B05DF804FBFF
:1014D0001FB5012300930A460DF10F03017900683F
:1014E00004F0C2F89DF80F0005B05DF804FB10B5DC
:1014F00001210446FFF7ECFF60F07F00C2B201213A
:101500002046BDE81040FFF7D4BF10B501210446C6
:10151000FFF7DEFF012100F07F022046BDE810400A
:10152000FFF7C7BF4FF0A043002210B5C3F87827DC
:101530000446FFF7EAFF642017F032FD20466022E0
:101540000121FFF7B6FF20466E220C21FFF7B1FF05
:10155000204688221621FFF7ACFF20461022BDE866
:1015600010401721FFF7A5BF70B509210546FFF709
:10157000AFFF0A2106462846FFF7AAFF0F210446BF
:101580002846FFF7A5FF00F00F02200142EA0623DC
:10159000C0B2184380B270BD20B1034B800143F04C
:1015A00001031847704700BFA0D801000271002254
:1015B000028701220160027405494275054A816271
:1015C00002630549C1621022C0608283704700BF78
:1015D00053160000991500007D16000037B590F8ED
:1015E0003930054643B300F10804204600F0AAFC58
:1015F00010BB204600F0BAFCF0B92146012000F0F3
:1016000076FCC8B901212246084600F0CBFC98B907
:10161000214600F03EFD78B92146012000F042FC51
:1016200050B94FF40273214601A8019300F097FAD4
:1016300010B9012385F8383003B030BD07B50093E9
:1016400013460A460179006804F00EF803B05DF80D
:1016500004FB10B50446184613460A462146FFF718
:10166000EDFF002010BD07B5009313460A4601792F
:10167000006804F020F803B05DF804FB10B50446E0
:10168000184613460A462146FFF7EDFF002010BD1D
:1016900070B591F8383086B004462BB9C0E90033F4
:1016A0008360204606B070BD01F10805294604A8F4
:1016B00000F0BBFA0026294602A8029600F03EFD83
:1016C0002A46012103A800F009FB29460DF1070075
:1016D000039B8DF807604FF47A7293FBF2F3039348
:1016E00000F046FD029B2360BDF81230A380BDF8D8
:1016F0001030E380BDF814302381D2E790F8380031
:101700007047083000F0F2BC10B50446083000F015
:1017100007FC50B9012384F83930044BBDE8104070
:101720004FF47A4043F00103184710BDA0D80100E0
:1017300048B1036A3BB1436A2BB14068B0FA80F00C
:101740004009404270474FF0FF3070472DE9F84F95
:10175000834600AF1846884615461C46FFF7E8FF4B
:1017600040BB39B3E27A2A44D31D23F00703E9468C
:10177000ADEB030D237AEA460BB94BF0800B266ADA
:10178000636851465846B047607288B16FF00100F7
:10179000CD46BD46BDE8F88FE17A0AEB0206715CE2
:1017A00008F802109AB2954203F10103F4D8EFE76A
:1017B0000346F7E74FF0FF30EBE770B505461846F4
:1017C0001C46FFF7B5FFB8B9B1B1237A0BB905F0E4
:1017D0007F052846666A6368B0470546607270B93F
:1017E00094F82E20A36A6168012A0CBF02204FF4EE
:1017F000E1709847284670BD4FF0FF35FAE76FF06B
:101800000105F7E713B5002304468DF806308DF87F
:101810000730FFF78DFF48B9234601220DF106017D
:101820005B20FFF793FF18B16FF0010002B010BD0D
:10183000234601220DF107015C20FFF787FF0028F6
:10184000F2D19DF806209DF8073002F00F0242EA1F
:101850000312A38A02EB530202F00F0312098DF860
:1018600006308DF80720234601220DF106015B208A
:10187000FFF7A3FF0028D9D1234601220DF107016C
:101880005C20FFF79AFFD1E707B50190FFF750FF03
:10189000019B80B903F1170101225B20FFF78DFF47
:1018A000019B40B9012203F118015C2003B05DF8EF
:1018B00004EBFFF782BF03B05DF804FB1FB50446DD
:1018C000002208468DF80F200191FFF731FF78B90B
:1018D00074B1019B01220DF10F017C2000F00BF887
:1018E00020B99DF80F3003F00103237004B010BD40
:1018F0004FF0FF30FAE72DE9F3471D460746002376
:1019000028460E4614468DF80730FFF711FF804633
:10191000002872D1002970D05E2F68D129460DF1C0
:101920000700FFF7CBFF9DF80730012B074609D1D1
:101930002946404600F067F8AB6A696807464FF4ED
:10194000E170984714F001095AD1AB7DA34257D3F7
:10195000002F55D1AF8AA74242D2B4FBF7FA2846EE
:10196000FFF792FF07FB1A47C84604465FFA89F360
:101970009A4520D847B1D4B92B463A4606EB080120
:101980005E20FFF7E3FE04468CB92846FFF77CFF94
:10199000044660B99DF80700012808D1294600F0E7
:1019A00032F8AB6A696804464FF4E1709847204604
:1019B00002B0BDE8F087AA8A2B4606EB08015E203C
:1019C000FFF7C4FE044640B92846FFF71BFF044654
:1019D00018B9AB8A98441FFA88F809F10109C5E7DC
:1019E0002B46224631465E20FFF7B0FED0E72B465D
:1019F0003846FFF7ABFE0446D9E74FF0FF34D6E791
:101A00006FF00904D3E71FB50022044608468DF89D
:101A10000F200191FFF78CFE019BB0B901220DF15F
:101A20000F017C20FFF767FF019B70B99DF80F2025
:101A300004F0010022F0010210438DF80F00012292
:101A40000DF10F017C2000F002F804B010BD2DE96B
:101A5000F74F1D460446002328460F4616468DF8CC
:101A60000730FFF765FE002873D1002971D05E2C86
:101A700069D129460DF10700FFF720FF9DF80730D7
:101A8000012B044609D140B92946FFF7BCFFAB6AD8
:101A9000696804464FF4E170984716F0010A5BD17B
:101AA000AB7DB34258D3002C56D1B5F814B0B34532
:101AB00042D22846FFF7E8FE044620BBB6FBFBF8FF
:101AC000D1465FFA8AF3984521D80BFB18623AB1E8
:101AD000CCB92B4607EB09015E20FFF76EFE0446EA
:101AE0008CB92846FFF7D0FE044660B99DF8070080
:101AF000012808D12946FFF786FFAB6A69680446CA
:101B00004FF4E1709847204603B0BDE8F08FAA8AF1
:101B10002B4607EB09015E20FFF74FFE044640B954
:101B20002846FFF76FFE044618B9AB8A99441FFA9E
:101B300089F90AF1010AC4E72B46324639465E208C
:101B4000FFF73BFED0E720462B46FFF736FE044664
:101B5000D9E74FF0FF34D6E76FF00904D3E730B58B
:101B600085B0044600220846ADF80C200191FFF72D
:101B7000DFFD68BB64B3A0786178019B012824D1A4
:101B8000022928D82278551E0B2D24D8C00140EAFE
:101B900001100243E1780193D2B28DF80C2001F0DC
:101BA0000301D20983F82E208DF80D10012203A91C
:101BB0004020FFF74CFF019B28B901220DF10D01D8
:101BC0004120FFF744FF05B030BD20B90729D8E711
:101BD0004FF0FF30F7E76FF00700F4E713B500238D
:101BE00004468DF806308DF80730FFF7A1FD024658
:101BF000B0B9237ABBB90122E27223460DF1070185
:101C0000FFF779FE024658B9012223460DF106017D
:101C10000020FFF770FE024610B99DF806302370D1
:101C2000104602B010BDE072EEE7F7B5002305469E
:101C300008460F460093ADF80430FFF779FD002801
:101C400049D1002D47D00B46062269461220FFF7E6
:101C500052FE58BB9DF801309DF800609DF802408F
:101C60009DF8042046EA03269DF8033044EA032445
:101C70009DF8053042EA032236B224B212B22E8019
:101C80006C80AA803B7B0C2B12D1002EB8BF0F3684
:101C9000002CB8BF0F34002A4FEA26164FEA24144E
:101CA000B8BF0F322E806C801211AA8003B0F0BD35
:101CB0000E2BFBD1002EB8BF0336002CB8BF033467
:101CC000002A4FEAA6064FEAA404B8BF03322E80CA
:101CD0006C809210E9E74FF0FF30E7E77FB51346DD
:101CE0000546002218460E468DF80C200193FFF79A
:101CF0001FFD044648BB45B3019B012203A92220D6
:101D0000FFF7F9FD78B99DF80C204FF47A7353432F
:101D100003F5B342022E02F1580206D0032E0ED074
:101D20002A6004B070BD2346F2E74FF47A73B2FB29
:101D3000F3F24FF4E1635A4302F5FA42F0E703F598
:101D4000902303F2D6432B60EBE74FF0FF30E8E738
:101D5000F7B50546294600208DF804008DF80500EA
:101D6000FFF751FEAB6A696804464FF4E17098478B
:101D70004CB92B46012201A95920FFF768FE044601
:101D8000002800F08780204603B0F0BD73092F695A
:101D90008DF806302846C6F3430337448DF80730E4
:101DA000FFF7C6FC002872D1002F70D02B4601220D
:101DB0000DF107015B20FFF74AFE044678B92B4678
:101DC00001220DF106015C20FFF741FE044630B907
:101DD000AA8A2B4639465E20FFF7EFFC0446AB8A01
:101DE0001E44B6B2AB8DB342D0D8002CCBD1012665
:101DF0002B46324601A959208DF80460FFF727FED3
:101E000004460028BFD1AB6A696825489847324626
:101E10002B460DF105012A20FFF76DFD9DF80560A9
:101E200006F00F068DF8056004460028ABD1012EA0
:101E300032D129463046FFF7E6FD04460028A2D1FC
:101E40008DF806008DF807002846FFF771FC044660
:101E5000002898D12B4632460DF106015B20FFF792
:101E600075FC044600288ED12B4632460DF1070141
:101E70005C20FFF76BFC0446002884D19DF80630F7
:101E800003F00F03EB759DF807302B767BE74FF0DF
:101E9000FF34A4E70646A5E76FF0040473E700BF2C
:101EA000F04902001FB50022044608468DF80F20B5
:101EB0000191FFF73DFC019BB8B901220DF10F0123
:101EC0007D20FFF718FD019B78B99DF80F20A40035
:101ED00022F0040204F0040414430DF10F01012266
:101EE0007D208DF80F40FFF7B2FD04B010BD07B59F
:101EF0008DF8070008460091FFF71AFC50B99DF8CD
:101F00000720012A09D8009B01220DF10701552065
:101F1000FFF79DFD03B05DF804FB6FF00700F9E7E4
:101F20001FB5B62201908DF80F20FFF701FC019B31
:101F300028B901220DF10F017E20FFF788FD05B0C1
:101F40005DF804FB10B50446FFF748FE60B923783E
:101F5000112B01BF0C2323734623A37506BF4FF437
:101F6000C053A3856FF0030010BD000078B1037863
:101F7000112B0FD1838A9A1E442A0ED8DA0744BF48
:101F800003F1FF338382064B0361FFF7E1BE4FF09D
:101F9000FF3070476FF0030070476FF00900704723
:101FA000A6D8010030B595B0044601920D464222F4
:101FB000002103A8029118F069FB019B002B62D05D
:101FC0001A78112A62D1462202A95E20FFF793FCFB
:101FD000A0BB012D04F0010204F0020504F004008E
:101FE00004F00801019B04F0100429D12AB19DF8E6
:101FF000432042F010028DF843202DB19DF843207C
:1020000042F020028DF8432028B19DF8482042F08C
:1020100001028DF8482029B19DF8442042F00102C8
:102020008DF844202CB19DF8462042F001028DF835
:102030004620462202A95E20FFF709FD15B030BDFB
:102040002AB19DF8432022F010028DF843202DB1D3
:102050009DF8432022F020028DF8432028B19DF8FE
:10206000482022F001028DF8482029B19DF8442033
:1020700022F001028DF84420002CDAD09DF8462091
:1020800022F00102D3E74FF0FF30D7E76FF00300F3
:10209000D4E730B593B00D4604460021422201A892
:1020A000009118F0F3FADDB12B78112B1BD12B46E0
:1020B000462269465E20FFF71EFC78B99DF83B205A
:1020C000E40022F0080204F0080414432B464622E0
:1020D00069465E208DF83B40FFF7B9FC13B030BD78
:1020E0004FF0FF30FAE76FF00300F7E710B592B05A
:1020F00004460021422201A8009118F0C7FABCB1A1
:102100002378112B17D12346462269465E20FFF71C
:10211000F2FB58B99DF83B3043F004038DF83B3097
:102120004622234669465E20FFF791FC12B010BD9F
:102130004FF0FF30FAE76FF00300F7E713B5002325
:102140000446019371B10B78112B0ED104220B467A
:102150001E200DEB0201FFF7CEFB08B9019B2360A7
:1021600002B010BD4FF0FF30FAE76FF00300F7E761
:1021700013B5002304468DF8073079B10B78112B85
:102180000FD10B4601220DF107012720FFF7B3FB0A
:1021900010B99DF80730237002B010BD4FF0FF302A
:1021A000FAE76FF00300F7E710B5142204460021A8
:1021B000043018F06BFA4FF4A06300222383E2612D
:1021C00000234FF0FF32C4E90823A376014B1C60C3
:1021D000204610BD500300204FF0A0430C22C3F84E
:1021E000302770471FB5114B1149044618680090FD
:1021F000684615F0EBFE08B117F0F4FC0D4A1068C4
:102200005168127A01AB03C301A900201A7015F0BE
:1022100025FF08B117F0E6FC0121204615F07CFFF0
:1022200008B117F0DFFC04B010BD00BFA6F001003C
:1022300059230000AAF0010008B54FF0A041D1F8E1
:1022400010256FEA123202F0010280F82420D1F842
:1022500010256FEAD24202F0010280F8252090F8A2
:1022600026203AB90122C284FFF7BCFFBDE808402E
:1022700015F0A6BF08BD000038B52DED028B0B7818
:1022800004460D46002B53D1012115F045FF08B13E
:1022900017F0A8FC6B689FED2B7AB3F900309FED27
:1022A0002A8A07EE903AF8EEE77A67EE877A9FED92
:1022B000277A87EE870A84ED070A20EE080A18F0CD
:1022C000C7F880EE087AA07E617EB0FBF1F201FBD8
:1022D0001202D2B2511C04EB8202A176DFED1C7A0D
:1022E00084ED077ADFED1B6A37EE677AC7EE267A50
:1022F00067EE887AFDEEE77A17EE903A23EAE37309
:10230000642BA8BF642323625360237E627E9A42BB
:102310001CBF0133237694F827300133DBB2052B41
:1023200084F8273007D915F0C9FF002384F8263038
:10233000BDEC028B38BDBDEC028BBDE8384015F01A
:102340003FBF00BF5C8F02400000C842ABAAAA4357
:10235000CDCC4C4044E17A3F024B01461868FFF770
:102360008BBF00BF50030020012303707047002380
:102370000370704701234370704700234370704718
:10238000416070478160704710B502780446501C68
:1023900020700A7001224A7094F83502702202FB04
:1023A0000040043018F04AF994F83532032B9ABFF4
:1023B0000133DBB2002384F8353294F836327BB92E
:1023C00094F83422032A9CBF531CDBB284F83432C5
:1023D0000123BFF35B8F84F83732BFF35B8F10BDEF
:1023E000002384F83632F3E700F52F2303F66C233D
:1023F000F7B5002B284D294CAFBF93FBF5F500F541
:102400000B2000F6BC7090FBF5F504FB053448F694
:10241000AC62B4FBF2F2224440F2B457B4FBF7F3DF
:10242000D21A48F694601E4BB4FBF3F3D31AB3FBF5
:10243000F0F0204440F26D16B3FBF6F1B3FBF7F376
:10244000C31A06FB11334FF4C87202FB051203EBEB
:102450008304992102340133B4FBF1F04143052593
:102460000231B1FBF5F15B1A40F2F9518C4294BF95
:10247000C11CA0F10901022998BF01328DF8061094
:102480008DF80730BDF8063092B2002062F30F00DD
:1024900063F31F4003B0F0BDB13A02004FC5FDFF2A
:1024A000B03A020030B5002200240025C0E9012224
:1024B000C0E90445C0E906450160C26080F82020FB
:1024C00030BD0000000000002DE9F74FC3688B42CB
:1024D00086BF01F18072D31ACB1A0446980AC3F35F
:1024E00009038B4284BF01F1FF1101F57F41CB1A33
:1024F000D4E90489E360744BE3FB0089D4E9062343
:10250000121843F10003C4E90623C4E904896F4AA1
:1025100044F69463404649461AF086FC44F69465B6
:102520006A4A45438246034602FB0155A0FB02016D
:102530008045294479EB0101B8BF03F1FF3A44F625
:102540009461504601FB0AF3C11702FB0131AAFB5B
:1025500002230B44B8EB020669EB0307002E77F168
:10256000000302DA764267EB4707594A40F24633E6
:10257000304639461AF058FC4FA3D3E900230546EC
:102580008B46304639461AF04FFC4FF03C0CA5FB09
:102590000C23B0EB02080CFB0B3361EB0309304654
:1025A00039464B4A4B4E40F246331AF03DFC194631
:1025B0000D2303FB08F306FB09391046A8FB066749
:1025C000801B4F443EA3D3E9002361EB07011AF0BF
:1025D0002BFC06465046FFF707FFC0F3074C01B23D
:1025E000BCF1020F98BF013900294FEA1067606003
:1025F000394884F80A804FF4C873BBBF6FF4C779B9
:1026000001EB090291FBF3F392FBF3F3BCF1020F30
:1026100000FB03100CEBCC0101EB011188BF6FF440
:10262000E47C4FF005028CBF614401F26351013F2D
:10263000B1FBF2F140F26D1202FB007202EB90026C
:102640006427B0FBF7F0121A0A442449E67201FB32
:102650000323A3F52F23A3F66C210A1D4FF00702D5
:10266000ABBFA3F66823B1FBF2F2B3FBF2F2C2EB0D
:10267000C202A6BFC2EBC2029B1A8B1ADBB2002BAE
:1026800008BF0723EDB22372657265B994F8203054
:1026900063B920680123102184F8203003B0BDE81D
:1026A000F04F02F0CFBA002384F8203003B0BDE829
:1026B000F08F00BFAFF30080005847F80D00000016
:1026C00000CA9A3B0000000000CA9A3B00004F91EC
:1026D00000A0B830005847F870FEFFFFB13A020082
:1026E00030B58BB004460020CDE907009DF84400CA
:1026F00001909DF8400002909DF83C00129DCDE9AC
:102700000303013A4FF0FF33A1F26C7101A8059267
:102710000993069118F09AF8074BE5600A46A0FB6A
:10272000030103FB0211C4E9040129462046FFF717
:10273000CBFE0BB030BD00BF00CA9A3B012901603F
:102740004FF0A0434FF4804218D002290BD04FF431
:102750008000D1B1C3F80C254FF40002C3F80C057A
:10276000C3F80C257047C3F80C254FF48002C3F85A
:102770000C254FF40002C3F808257047C3F80C2558
:102780004FF48002C3F80825F3E7C3F80825C3F81F
:102790000805EEE74FF0A0430322C3F83827C3F83B
:1027A0005827C3F85C270168FFF7C8BF0381009B67
:1027B0008180C2800360704710B5B0F90430B3F572
:1027C000A87F16DAB0F90830002B12DAB0F906301B
:1027D00029B9002B01DD00214181084610BD002BE5
:1027E000F9DAB0F90A4003F1E602A24201DA4381C4
:1027F000F3E70021F1E70173704700002DE9F74F7F
:102800001E46DDE90E3B0446DDF8308000270760F8
:102810005920A361C4E902122070C4E904686771F9
:1028200004F11C000D4604F5257A00F08FFC04F538
:10283000E67000F0B3F93146504600F035FA04F581
:102840004B794246294604F52E7001F0C3F8424602
:102850002946484600F020FB314604F5587001F047
:1028600047F8294604F56D7001F09AF9294604F5F8
:10287000CE6001F015FD0D9904F5F66001F09EFBA8
:102880004246294604F5026001F00AFC5A462946F0
:1028900004F6940001F0E4FD3946C4F808B91122A9
:1028A00004F6111017F0F2FE0F4BC4F810390F4B5D
:1028B000C4F814390E4BC4F8183903F118536FF4E7
:1028C0004472A3F52E031344A4F80E79C4F81C39FE
:1028D000694604F62410CDE900A901F05FFC20460A
:1028E00003B0BDE8F08F00BF008023D1BCEA5F7861
:1028F0002315DEEF37B5044603F07EFD0028FBD03C
:1029000014F01EFE14F040FE04F5E67000F00FF91E
:1029100004F5257000F0D2F904F5587000F08AFF34
:1029200004F56D7001F03EFB04F5CE6001F08CFD06
:1029300004F52E7001F042F804F11C0000F0D9FB00
:1029400004F5F66001F062FB04F5026001F0D2FBD1
:1029500004F6940001F0B2FD002014F035FE04F6F8
:102960000C1100200BF072FA6D460C4814F0D2FDE9
:10297000294694F80C0900220BF042FA94F80C391D
:10298000E268003B18BF0123936195E80300E36808
:102990001861998207F020FC03B030BDB3F001004C
:1029A00008B506F07BFB18B1BDE8084006F042BA56
:1029B00008BD000070B5C3681B78B6B00446002B94
:1029C00057D106F07BFB002853D106F067FB054684
:1029D00000284ED1284E304614F09CFD0A2229468C
:1029E00003A817F053FE6022294606A817F04EFEF2
:1029F000602229461EA817F049FE40F20223ADF8D6
:102A00000C3006238DF8183004F611130B93BDF823
:102A100030301C9423F4FF7323F0010343F48073DC
:102A200043F00103ADF8303080238DF83A3023793C
:102A300025960133E370304604238DF8743018F086
:102A40001FFA9DF899308DF8980043F0010306A80D
:102A50008DF8993006F000FB1EA806F00EFB074B20
:102A60000093074A94F80C09019403AB294606F039
:102A7000EDF936B070BD00BFB3F00100132B0000BC
:102A800020BF0200F0B50F780C2F8DB004460E4623
:102A90003AD004D87FB1012F23D000251EE0112F9A
:102AA000FBD101A9B08805F0DFFF0DF10F000AF09E
:102AB000E2FC012512E04D682DB1FFF77BFFE068D5
:102AC000FFF755FCE9E7C068FFF74EFCA068072157
:102AD00002F0B8F83389A4F80E39657128460DB0B4
:102AE000F0BD00F5257000F0EAF804F54B7000F039
:102AF00011FA4FF6FF73E068A4F80E39FFF737FCC0
:102B00002046FFF757FFC8E700F54B7000F0D6F9F5
:102B1000C3E70B4601461846FFF7B4BFB0F80E19DD
:102B200000F6241001F05CBBB0F80E09704710B538
:102B300000F1A804204607F0FBFD2046BDE8104048
:102B400007F0D2BD13B51C469B6818680BF04AF815
:102B5000A0F52850243880B2052811D8094B6468A4
:102B600053F820100191084618F08AF9019982B2B1
:102B7000204613F087F8002818BF112002B010BDBE
:102B80000E20FBE7DCF0010010B4044618461346A3
:102B90000A4621465DF8044BFFF7D4BF10B5A822C2
:102BA0000021044617F072FD1A4A1B491B4B236093
:102BB000C4E906121A492462C4E90C121949A46333
:102BC000C4E9121218492465C4E918121749A46609
:102BD0000223C4E91E12C4E9012423822385A4F838
:102BE0004030A4F85830A4F87030A4F88830C4F805
:102BF00080402022002104F1A80017F047FD0123A6
:102C000084F8A8300A4BC4F8AC30C4F8B44020466D
:102C100010BD00BF892B000004F101000CF1010080
:102C200008F10100F8F00100FCF0010000F10100E2
:102C3000F4F00100F0B587B00023049393680446D4
:102C40000F46164602AD3BB1022231462846984750
:102C5000F3680593B368049395E803006A4604F1AA
:102C6000140382E8030093E8030085E8030092E878
:102C7000030083E80300049AE369216AE261059A8C
:102C80000493059122621BB10322294628469847E6
:102C9000034A04492346384608F0CCFC07B0F0BD8F
:102CA000412D000010F10100034AC0E9002100227B
:102CB00002728273C261704720F1010070470023E5
:102CC00003728373704707B58268ADF806100AB9BE
:102CD00017F081FAC3680DF10601984703B05DF85B
:102CE00004FB000073B505461E460846ABB91388C1
:102CF0000E2B03D00024204602B070BD2C7A34B1D4
:102D00000D4BAA896989009508F0BFFCF3E705F12E
:102D10001400FFF7D8FF0124EDE70848191D0AF059
:102D200004FF04460028E5D101232B7233886B8110
:102D30007388AB81DFE700BFA12D000010F1010017
:102D400010B50446184613460A462146FFF7CAFF47
:102D500010BD000038B504461D46084683B91388E7
:102D60000E2B06D1A37B33B10B4A218A234608F0F0
:102D7000CFFC002038BD04F11400FFF7A4FFF8E7F2
:102D8000064803F108010AF0D0FE0028F1D1012322
:102D9000A3736B882382ECE7112E000014F101006D
:102DA00010B40446184613460A4621465DF8044B03
:102DB000FFF7D0BF70B5168804468AB00D46184696
:102DC000E6B907AB09223146406812F0E0FF0F4B2D
:102DD0009DF81E20D3F8043504939DF82230039308
:102DE0009DF8213002939DF82030BDF81C106068DA
:102DF000CDE900639DF81F30FFF772FC04F1140069
:102E00002946FFF760FF00200AB070BD00100140A6
:102E100010B40446184613460A4621465DF8044B92
:102E2000FFF7C8BFF0B587B000230493936804464A
:102E30000F46164602AD3BB102223146284698475E
:102E4000F3680593B368049395E803006A4604F1B8
:102E5000200382E8030093E8030085E8030092E87A
:102E6000030083E80300049AA36AE16AA262059A58
:102E700004930591E2621BB1032229462846984734
:102E8000034A04492346384608F0D4FB07B0F0BD96
:102E9000852F000028F1010010B5074C04600024C4
:102EA000C0E90144C0E90344C0E906128482847584
:102EB0008462048610BD00BF44F10100F0B50A89A8
:102EC00083899A429DB0054622D14868048A032C22
:102ED0001ED90134672C28BF6724261F00273246DD
:102EE00001AB03218DF801701B9712F050FF1CAB52
:102EF0001E44E86906F86C7C01236946033C8DF8A2
:102F000003401B93FFF740FAA869042101F09AFEE1
:102F10001DB0F0BD0023C0E90133C0E90333838253
:102F2000837503867047000073B505461E46084644
:102F3000ABB913880E2B03D00024204602B070BD1D
:102F4000AC7D34B10D4BEA88A988009508F09DFB53
:102F5000F3E705F12000FFF7B6FE0124EDE708488E
:102F6000191D0AF0E2FD04460028E5D13388AB8044
:102F70007388EB800123AB75DFE700BF5D30000095
:102F800028F1010010B50446184613460A462146AA
:102F9000FFF7CAFF10BD000030B51D461388044678
:102FA00085B00846002B3ED00E2B30D0014604F1F0
:102FB0002000FFF788FE002005B030BD6B886381DC
:102FC000F9E76B88A3812B882382012384F83030B2
:102FD000F1E76B886382EEE71A4803910AF0A5FDDA
:102FE0000028EBD0039918480AF09FFD0028E8D08C
:102FF000039916480AF099FD0028EAD0039914486D
:103000000AF093FD0028D6D16B88A382D3E765B977
:1030100094F83030002BC9D00E4BE288A18900947F
:1030200008F053FBC7E7002DC5D005F108010A4899
:1030300003910AF07AFD03990028CDD16B88238192
:10304000B9E700BF38F1010024F1010030F10100BF
:103050002CF10100DD30000034F1010010B4044611
:10306000184613460A4621465DF8044BFFF794BF05
:1030700008B5014603F12000FFF725FE002008BD3A
:103080007FB51288089E04460D46DAB982899A42B5
:1030900015D11048311D0AF048FD80B1E38973B99C
:1030A00001233188ADF80C3084F831300A4B00939D
:1030B000E1810194022303AA284608F06AFB00205C
:1030C00004B070BD90F83130002BF8D12030FFF7FC
:1030D000FAFDF4E724F101007130000010B4044659
:1030E0000198019313460A4621465DF8044BFFF709
:1030F000C7BF10B500F5B674204607F019FB20468F
:10310000BDE8104007F0F0BA08B50B46022200F502
:103110008471184612F0B6FD002818BF112008BDB2
:1031200013B50022074BC0E90122044600934FF477
:103130007A710346044816F061FB2060204602B015
:1031400010BD00BFA932000048F1010073B5002591
:1031500083604FF4E8230446C0E90012C0E9063555
:10316000C0E9045505730562A0F8EC50F030FFF794
:10317000D7FF04F586760823A4F808312946602293
:10318000304617F083FA214BC4F80C310422204B4F
:10319000A4F81C211F4AC4F82C41C4E94923182271
:1031A000A4F834211C4AC4F84441C4E94F23C4E9BB
:1031B00044340223A4F84C3104F58473C4F850312C
:1031C0002946202204F5B67017F060FA012384F82E
:1031D0006C31124BC4F87031114B0093C4E9655542
:1031E000C4E96755C4F87861A4F89251C4F8A451B1
:1031F000A4F8A85123462A4642F21071094816F055
:10320000FDFAC4F8AC01204602B070BD8DF101009A
:1032100021380000AFF101009EF101007CF10100B6
:103220000933000048F1010073B505460E46AC684D
:1032300010461946069AACB90A2A15D8AA60E88041
:10324000AE8005F10C0017F0F9F92D6815F0AEFD10
:103250000094024623460121284616F0E9FA01208F
:1032600002B070BD0020FBE72046F9E738B51846EC
:103270000C46BDF81010154603F060FF29460246C3
:103280002046BDE8384008F09BBA836813B5044671
:1032900043B10093C288818800F10C03FFF7E6FF79
:1032A0000023A36002B010BD08B516F0F9FBBDE81D
:1032B0000840FFF7EABF07B50023C0E901330093D8
:1032C0001A460321006816F0B3FA03B05DF804FB58
:1032D00010B500230446A0F89231C0F8A431A0F83C
:1032E000A831C0E96533C0E96733F030FFF7E3FF89
:1032F00063680322DA606068FFF73FF820680A21FC
:10330000BDE8104001F09EBC08B516F0C9FBBDE851
:103310000840FFF7DDBF000030B5094B05460FCB75
:1033200085B06C4684E80F002969286801F57F3173
:103330001023224601F57C71FDF75CFD05B030BD20
:103340006CF1010070B50379044615468BB300F1AA
:103350001C064069304417F071F963692B44C82B8F
:1033600063610CD1A1692068324601F58021FDF727
:1033700041FDD4E905231344A3610023636163691C
:10338000BBB1A169E2685818904212D13246206858
:1033900001F58021FDF72EFDD4E905231344A36137
:1033A000D4E903239A4204D22046BDE87040FFF7D7
:1033B000B3BF70BD38B5054600242B69A34207D9B9
:1033C00004F580212868FDF7EFFC04F58054F4E74C
:1033D00038BD10B5A3B118880A44914213D011F832
:1033E000013B40BA80B25840C0F30313584003B2C7
:1033F00083EA0033580100F4FF5498B26040ECE7D0
:103400004FF6FF70E8E710BD2DE9F34100260546B1
:10341000ADF806604FF0010800F11C07EC68B442FB
:103420001CD9A41BC82C28BFC824286823463A46A8
:1034300006F58021FDF796FCB8F1000F0BD00023B4
:10344000224639462846FFF7C4FF2644ADF8060059
:103450004FF00008E2E70DF10603F1E7B5F8E400EC
:10346000BDF80630C31A5842584102B0BDE8F08199
:1034700030B513681A78013A87B00446072A21D874
:10348000DFE802F004233E507B20203A94F892516A
:10349000C5B95B78042B15D10223606884F892319A
:1034A000FEF768FF63680122DA6060684FF0FF3161
:1034B000FEF766FF60682946FEF764FF2068092171
:1034C00001F0C0FB002007B030BD94F89221012A22
:1034D000F8D15B78002BF5D04FF40473ADF81430BD
:1034E0008DF816200323B4F88E21009304F1F00028
:1034F00005ABFFF799FEE5E75B7884F89331E1E7E8
:1035000094F89231012BDDD1D4F8A411B4F8A8219C
:10351000237314200323C4E90401A4F8EC2084F8E5
:103520009231CFE794F89231042BCBD104F108000B
:103530000391FFF769FF03466268039904F1F00005
:103540008BB1052384F892310223D360144B1A887F
:103550009B788DF81630ADF8142003230093B4F84F
:103560008E2105ABC5E70323D3600E4A15889278F8
:10357000ADF814508DF81620F0E794F89231052B31
:10358000A0D16068FEF7F9FE20680A2101F05AFB1D
:103590002046FFF79DFE63680222DA6092E700BFD3
:1035A0005AF101005EF101000246007920B1D068B5
:1035B00093691B1A58425841704700002DE9F041A9
:1035C00084B090F89231022B02AF04460E461546A5
:1035D00023D0032B72D0012B6BD11268517A137A4E
:1035E00003EB01239BB2590007316E46C908A6EBD5
:1035F000C1018D460DF1080C02F10A0000218B4239
:1036000000F102004ADD10F801EC10F8025C05EB55
:103610000E252CF811500131F1E71268517813781A
:1036200003EB01239178D27803EB014303EB0263B0
:10363000C0F89C312A685179137903EB0123917901
:10364000D27903EB014303EB0263C0F8A0312A688F
:10365000517A137A03EB0123917A03EB0143D17A78
:1036600003EB0161C0F8A4114068FEF789FE04F184
:103670000800FFF79FFE384B1A889B78BB70032326
:103680003A803146B4F88E21009304F1F0003B46B5
:10369000FFF7ECFD012384F892310AE0053302EBD9
:1036A000430112F81330497803EB0123A4F8A83141
:1036B000B54600200837BD46BDE8F081D0F894310A
:1036C0000133C0F8943100F10808D28829684046D7
:1036D000FFF738FED4F89831E98860681944C4F8D7
:1036E0009811FEF74FFE94F89321D4F89411B1FB92
:1036F000F2F302FB1313C3B9D4F89831D4F8A42120
:10370000934212D011223A701A0A7B70BA701A0CC6
:103710001B0E3B710523FA703146B4F88E210093DD
:1037200004F1F0003B46FFF7A1FD4046FFF73CFFE8
:103730000028BED0094B1A889B78BB7003233A80BF
:103740003146B4F88E21009304F1F0003B46FFF7B8
:103750008DFD04239FE700BF62F1010066F10100C7
:103760002DE9F3411D4643685B7804460F46164633
:1037700053B1D0F8AC8115F019FB00230246009339
:103780000121404616F054F82149224804F5C67339
:10379000002206F095FF20491E4804F5C773002259
:1037A00006F08EFF04F5C8731C491A48002206F083
:1037B00087FFB4F88C31B3420AD12B78012B23D187
:1037C0006A683946204602B0BDE8F041FFF7F6BE10
:1037D000B4F88E31B3420AD12B78012B14D16A6828
:1037E0003946204602B0BDE8F041FFF741BEB4F8CB
:1037F0009031B34208D12B7833B96968204602B0C2
:10380000BDE8F041FFF780BC002002B0BDE8F081C8
:103810008DF101007CF10100AFF101009EF101008A
:1038200010B40446184613460A4621465DF8044B78
:10383000FFF796BF10B500F13004204606F078FF80
:103840002046BDE8104006F04FBF000030B51A78A2
:10385000012A8BB005461C461FD1606807AB0922C0
:10386000002112F094FA1C4B9DF81E20D3F8043569
:1038700004939DF8223003939DF821300293002495
:103880009DF820300193BDF81C109DF81F30286D65
:103890000094FEF725FF00201BE0002AFBD1036DFA
:1038A00060689988ADF81C10D988ADF81E10597A57
:1038B0008DF82010997A8DF82110DB7A8DF823206D
:1038C00007A909228DF8223012F0DCF9002818BF70
:1038D00011200BB030BD00BF0010014010B40446F1
:1038E000184613460A4621465DF8044BFFF7AEBF63
:1038F00038B5302204460D46002116F0C7FE0B4BAA
:1039000023600B4BC4E901340A23238220220021C7
:1039100004F1300016F0BAFE012384F83030054B74
:103920006363E4632565204638BD00BFC4F1010030
:10393000DD380000C0F101002DE9F041054648687E
:10394000048A032C9EB088462BD90134672C28BFEB
:103950006724261F0027324603AB03218DF8097028
:103960001D9712F014FA0DF1070301223946D8F819
:10397000040012F00CFA1EAB1E449DF80730E86EEE
:1039800006F86C7C032B0CBF0423012302A9033C23
:103990008DF80B401D93FEF7F7FCA86E042101F093
:1039A00051F91EB0BDE8F08108B518461378012B17
:1039B000114601D1FFF7C0FF002008BD10B500F18E
:1039C0004804204606F0B4FE2046BDE8104006F04C
:1039D0008BBE000070B504460E46154600214822F5
:1039E00016F054FE0F4B236008220F4B22820F4A21
:1039F0002462C4E90623C4E901341023238504F1B9
:103A00007003E3622022002104F1480016F03EFE1C
:103A1000012384F84830064BE364C4E91A65646501
:103A2000204670BDC8F10100A9390000CCF10100A9
:103A3000DEF10100F8B504464868028A02F1080385
:103A40000D46DB086946A1EBC30300AF9D4600218C
:103A50000DF8021012F09BF9AB6804F133011868FD
:103A60006E460AF062F830B9694604F5157016F032
:103A7000DAFCBD46F8BDAB6804F1440118680AF0F1
:103A800054F818B9694604F52170F0E7AB6804F101
:103A9000550118680AF049F818B9694604F51B7011
:103AA000E5E7AB6804F1220118680AF03EF838B97E
:103AB0009DF80030003B18BF012384F89C32D8E702
:103AC000AB6804F1BB0118680AF02FF838B99DF80B
:103AD0000030003B18BF012384F8B432C9E7AB685B
:103AE00004F1CC0118680AF020F838B99DF80030CC
:103AF000003B18BF012384F8B532BAE7AB6804F184
:103B0000660118680AF011F820B9009B1BBAC4F8C6
:103B1000A032AEE7AB6804F1770118680AF005F847
:103B200020B9009B1BBAC4F8A432A2E7AB6804F129
:103B30008801186809F0F9FF20B9009B1BBAC4F886
:103B4000A83296E7AB6804F19901186809F0EDFF17
:103B500020B933681BBAC4F8AC328AE7AB6804F109
:103B6000AA01186809F0E1FF002882D13368DFED6F
:103B7000066A1BBA07EE903AF8EEE77A87EEA67A65
:103B800084EDAC7A75E700BF0000C84208B518465E
:103B90001378012B114601D1FFF74CFF002008BD1F
:103BA0002DE9F04F2DED028B83B00446EB4EEC4F28
:103BB00000911122002116F069FDC4E90967A6668B
:103BC000E84FE74EE84DE948DFF8C0A3DFF8C093BF
:103BD0006763E666E64FE34EE649A7634DF2800E63
:103BE0004FF6484C7823802244F2D02B47F6FC084D
:103BF000E14FA4F822E0A4F82CC0A4F866E0A4F8F1
:103C000070C0C4E90050C4E905A9C4E91150C4E971
:103C100016A9A16023736274A4F812B0A4F81C80E2
:103C200084F82E3084F83320E763E16484F8503060
:103C300084F85520A4F856B0A4F8608084F8723057
:103C4000374684F87720A667C94EE667CA4EC4F89F
:103C50008060A6F17756A6F50B36A6F56F76C4F808
:103C6000AC60BF4E84F89920C4F8B06084F8BB20E3
:103C7000BF4EC14AA4F8AAE0C4E9306204F5177245
:103C8000C4E92250C4E93350C4F85422002504F595
:103C90001D72C4E99B2504F52372A4F8B4C0C4E9DD
:103CA00027A9C4F8901084F89430A4F89AB0A4F826
:103CB000A48084F8B630C4F8BC70C4F8D41084F87A
:103CC000D830C4F8585284F85C5284F87452C4E96D
:103CD000A125022284F82F20042284F851200322F7
:103CE00022640522A4F86220062284F873200722A9
:103CF00004F51573C4F88420082208EE103A84F8FD
:103D0000952004F52173092208EE903AA4F8A62024
:103D1000009BC4F8B8320B224FF0180A04F1E003FC
:103D2000C4F8C8200C220A2618464FF0010984F86E
:103D3000D92029465246914F84F88C52E573257458
:103D4000A4F81E902584258684F83250A4F8525099
:103D500084F85450A4F86450A4F8745084F8765051
:103D6000A4F8965084F89850A4F8A85084F8B76046
:103D7000A4F8B85084F8BA50A4F8DA5084F8DC50AB
:103D8000019316F083FC04F111014FF01008C4F800
:103D9000E01004F51471C4F8F41052462946C4E941
:103DA0003974A4F8F08004F1F80016F06FFC04F107
:103DB0002201C4E93E1752462946C4F80041A4F83E
:103DC000086104F5887016F061FC04F14401C4E94F
:103DD000441752462946C4F81841A4F8206104F556
:103DE000947016F053FC04F13301C4E94A175246AB
:103DF0002946C4F83041A4F8386104F5A07016F0E3
:103E000045FC04F15501C4E9501752462946C4F84F
:103E10004841A4F8506104F5AC7016F037FC04F189
:103E2000660104F17703C4E9561752462946C4F8DF
:103E30006041A4F8686104F5B870009316F026FCA0
:103E4000009BC4F87841C4E95C3752462946A4F87F
:103E5000806104F5C47016F019FC009BC4F8904111
:103E6000C4E9623752462946A4F8986104F5D07037
:103E700016F00CFC04F18801C4E968175246294683
:103E8000C4F8A841A4F8B06104F5DC7016F0FEFB9C
:103E900004F19901C4E96E1752462946C4F8C0419D
:103EA000A4F8C86104F5E87016F0F0FB04F1AA016B
:103EB000C4E9741752462946C4F8D841A4F8E06111
:103EC00004F5F47016F0E2FB04F1BB01C4E97A17C3
:103ED00052462946C4F8F041A4F8F86104F5007090
:103EE00016F0D4FB04F1CC01C4E9801752462946F0
:103EF000C4F80842A4F8106204F5067016F0C6FB78
:103F00004246294604F50C7016F0C0FB019BC4F82C
:103F10003C324246294684F83092C4F8344204F5D3
:103F2000107016F0B3FB04F51B7B154918EE100A50
:103F300016F079FA1349584616F075FA124918EE38
:103F4000900A16F070FA4FF07E532046C4E9A85547
:103F500084F89C52C4F8B0321CE000BF42193A3BCE
:103F600043238EFED042193A80D042193A3B432374
:103F70003B43238E8EFE48FCFE48FC788D3B0000C0
:103F8000E2F1010065F10100EEF10100193A3B4355
:103F9000238EFE48A4F8B45203B0BDEC028BBDE8FA
:103FA000F08F00BF10B500F50C74204606F0C0FB82
:103FB0002046BDE8104006F097BB000038B5054626
:103FC000044645F8041B48220021284616F05EFBF3
:103FD0000B4B63600B4BC4E902340223A38204F150
:103FE0006C03A3612022002104F14C0016F04EFB6B
:103FF000012384F84C30044B2365A565204638BD69
:1040000002F201008D40000006F2010010B500F13F
:104010004C04204606F08CFB2046BDE8104006F01C
:1040200063BB000070B51E46B0F86C309342054685
:1040300001D0002070BD13480278BFF35B8F12F0EF
:10404000010415D116F0A7F890B12B682246191D6E
:1040500003F118058D4203D051F8040B0244F9E72F
:104060001B7E92FBF3F2084B06481A7016F09FF87D
:1040700005497068012211F005FE0028D9D01120F1
:10408000D8E700BF540300205803002010B40446B2
:10409000184613460A4621465DF8044BFFF7C2BF97
:1040A00038B500F108050446C0E900124822002195
:1040B000284616F0EBFA0C4BA3600C4BC4E9033412
:1040C0000423238304F17003E3612022002104F11F
:1040D000500016F0DBFA012384F85030044B63657E
:1040E000E565204638BD00BF40F201007141000087
:1040F00044F2010010B500F15004204606F018FB10
:104100002046BDE8104006F0EFBA000010B5B0F848
:10411000701091429EB0044622D11A78012A1FD114
:104120005B681B681B78022B96BF0F4A0F4952F839
:1041300023100191002308468DF809301D9316F0D5
:104140009FFE0199024603A816F078FA60680123E1
:1041500002A91D93FEF718F92068042100F072FDF2
:1041600000201EB010BD00BF34F2010065F1010057
:1041700010B40446184613460A4621465DF8044B1F
:10418000FFF7C4BF022A06D0032A02D0012A00D1B9
:104190000160002070470B680360FAE70346021DC8
:1041A00003C982E803001846704700001FB5036882
:1041B0001B681A681468084A0392084A0090029221
:1041C00018466A46A047029B1BB16946032208466F
:1041D000984704B010BD00BFFD41000085410000BC
:1041E000021D0260FFF7E2BF02680346043243F893
:1041F0000C2B9A4201D0FFF7D9BF7047098800689D
:10420000FFF7F2BFB0B504464868028A02F108031E
:104210000D46DB086946A1EBC30300AF9D460021B4
:104220000DF8021011F0B3FDAB6804F1110118682C
:1042300009F07BFC30B9694604F1F00016F0F3F8A0
:10424000BD46B0BDAB6804F12201186809F06DFCF1
:1042500018B9694604F58470F0E7AB6804F13301DE
:10426000186809F062FC18B9694604F59070E5E732
:10427000AB6804F14401186809F057FC0028DFD14D
:104280009DF80030C4F83831DAE708B518461378DD
:10429000012B114601D1FFF7B5FF002008BD00003A
:1042A0002DE9F84304460E461122002144F2D0279E
:1042B00016F0ECF9678207F18847A7F54507A7F6DE
:1042C000B707782580206761544F25736074A76114
:1042D00084F82E5084F83300514D52485249534AC5
:1042E000534BC4F83C6147F6FC07A7834DF28007A7
:1042F000C4E90D5067844F48E06307F16C5704F13F
:10430000F80007F565170025C4F8F00007F6C207A6
:1043100004F58870C4E94205676204F59470464F5D
:10432000A7620126C4E948054FF648470220C4E9C0
:104330000012A360A785C4F8F45084F8F85084F8FC
:10434000105184F82851E6732574E683268484F896
:104350002F004FF4807020863848DFF8E88084F81A
:104360003250C4E9122304F15809354B2365C4E9DE
:10437000100184F8545029461822484616F086F950
:104380000A2704F11103A3652946C4E91784A4F898
:104390006870182204F1700016F078F904F1220315
:1043A000C4E91C382946A467A4F88070182204F1D7
:1043B000880016F06BF904F13303C4E9223829466A
:1043C000C4F89040A4F89870182204F1A00016F0E8
:1043D0005DF904F14403C4E928382946C4F8A8402B
:1043E000A4F8B070182204F1B80016F04FF929466D
:1043F000102204F1D00016F049F984F8D060C4F816
:10440000D440C4F8DC901022294604F1E00016F0F4
:104410003DF9C4F838512046BDE8F883238EFE48A4
:10442000D042193A3B43238E80D042193A3B432372
:104430008EFE48FCFE48FC7843238EFE03000100FC
:10444000780400018B42000010B500F1D004204632
:1044500006F06EF92046BDE8104006F045B90000B0
:1044600070B500F108060446C0E9001215460021A7
:104470004822304616F00AF90D4BA3600D4BC4E9F3
:1044800003341223238304F17003E361202200210B
:1044900004F1500016F0FAF8012384F85030064B6E
:1044A00063652846E665214601F085F9204670BD22
:1044B0004CF201000745000048F2010010B500F180
:1044C0005004204606F034F92046BDE8104006F0BE
:1044D0000BB907B5B0F8701091424FF0000210D13F
:1044E0008DF8042042685868127B8DF8052001A9D8
:1044F000022211F0C7FB002818BF112003B05DF89D
:1045000004FB1046FAE710B40446184613460A4660
:1045100021465DF8044BFFF7DCBF1FB500238DF883
:104520000C30436802211B7B8DF80D30044603A834
:1045300002F004FE0190206800F53470FEF7F4FAF2
:10454000431E9BB24FF6FD718B4204D8019AB4F81A
:10455000701007F035F904B010BD0022016042F27E
:10456000107C43F69821C0E90122C0E904C102731E
:10457000826102214FF0C642C0E90712704773B54D
:10458000054600242103042301F57D110DEB0302F0
:10459000286801F50051FCF7E5FB04220DEB020150
:1045A000684616F04BF89DF80030F12BE6B209D1C1
:1045B000BDF80230B3F5807F04D185F82360012077
:1045C00002B070BD01340A2CDCD10020F8E70000F5
:1045D00010B50A4990F8234001EB0431044688B035
:1045E00054F8040B1C2301AAFCF7BCFB1C2201A9F4
:1045F000204616F023F808B010BD00BF04603F004D
:1046000090F823100068090301F57D1101F50051B0
:10461000FCF7CABB13B5002914BFF123F0230446ED
:1046200004228DF8003069464FF480730DEB0200D0
:10463000ADF8023016F002F894F823102068090350
:10464000042301F57D110DEB030201F50051FCF788
:10465000D1FB02B010BD000010B5044688B0011DAA
:104660001C2201A815F0EAFF94F8230004491C233A
:1046700001EB003101AA2068FCF7BCFB08B010BDBB
:1046800004603F0010B590F82330632B044602D03D
:104690000021FFF7BFFF94F823300133DBB2092B71
:1046A00088BF002384F823302046FFF7A9FF204667
:1046B0000121FFF7AFFF2046BDE81040FFF7CCBF58
:1046C00010B590F82330632B044602D1FFF757FF53
:1046D00020B12046BDE81040FFF77ABF2046BDE874
:1046E0001040FFF7CFBFFFF7EBBF00230372052198
:1046F000006800F0A7BA0022016002727047000053
:10470000024A0348002115F0E7B900BFEB4600005C
:1047100050F20100C1600274704700007FB54FF095
:10472000A04503234FF480660446C5F8283732209D
:10473000C5F8086514F034FCC5F80C65052014F0C4
:104740002FFCC5F808653220012514F029FC217CD6
:10475000E06800950DF10F03152200F085FF05209C
:1047600014F01EFC217CE06800950DF10F03A722D8
:1047700000F07AFF052014F013FC044B217CE06864
:104780000095EC2200F097FF04B070BD54F20100D8
:1047900070B586B00D460A230026009304460B46EA
:1047A000E868097C0496324600F05EFF28B1266076
:1047B00066602681204606B070BDAB786A7913F03A
:1047C0000F030ED111110F290BD103938DF8103067
:1047D000ADF8143003AB03CB1B88206061602381EC
:1047E000E8E7A979EB7868788DF8140002F00F02F9
:1047F00041EA02222979ADF80E2003F00F069B1141
:1048000041EA06218DF810300123ADF80C108DF827
:104810001530DFE773B54FF0A0454FF480660446CE
:10482000C5F80C65052014F0BBFBC5F808653220FF
:1048300014F0B6FB01230093217C034BE068A52212
:1048400000F039FF02B070BD55F20100FFF766BFFE
:104850000548006880F3088862B661B6BFF34F8FE1
:10486000BFF36F8F00DF00BF00000000064B196828
:104870000868B0E8F04F80F30988BFF36F8F4FF0FE
:10488000000080F31188704744290020EFF309806D
:10489000BFF36F8F144B1A681EF0100F08BF20ED86
:1048A000108A20E9F04F10604DF8043D4FF04000B1
:1048B00080F31188BFF34F8FBFF36F8F14F0CCFBE1
:1048C0004FF0000080F3118808BC19680868B0E850
:1048D000F04F1EF0100F08BFB0EC108A80F309886B
:1048E000BFF36F8F704700BF4429002073B5194B89
:1048F00000261E601B680193019B00F0FDF8164B1B
:10490000D3F80445C3F8006103F5807305461B68BE
:104910000093009B14F04AFA231A23F07F4424F0FA
:10492000010323B114F03EFD022818BF0124002624
:10493000013C0BD226B1094B4FF080525A6040BF68
:10494000284602B0BDE8704000F0DAB814F042FA30
:104950000643EDE7401101400010014000ED00E08A
:1049600008B5002013F030F80A4B0B491F22C3F89A
:1049700008250122C3F804230A601A600222C3F842
:104980004423064BE02283F811234FF400321A60CF
:1049900008BD00BF001001400810014000E100E028
:1049A0007FB5044672B62A4ED6F8045514F01CFCA6
:1049B0003346002849D0274A944294BF2A19AA189E
:1049C00022F07F420121C6F80813C6F84025224A8A
:1049D000002111601168019101994FF48031C6F8EE
:1049E0000413BFF34F8F94B1F1EE101A21F09F0121
:1049F000E1EE101AF1EE101A18494020C1F88401B6
:104A000020BFD1F80041D1F804012043F8D04FF481
:104A10008031C3F808130021116012680392039AD1
:104A20000F4A116012680292029A0122C3F804230D
:104A3000D3F80405094B401B4FF4003230F07F409F
:104A4000C3F8802101D014F0BDF962B604B070BD86
:104A500000100140FDFFFF004011014000E100E0B7
:104A60000011014072B6FEE74FF0807340E9021377
:104A7000054B40F80C3C6FF0020340F8202C40F846
:104A8000243C4438704700BF654A00000E4C08B50E
:104A9000E02384F82230FFF763FF0C4B00221A60FA
:104AA000D4F888300A4A43F47003C4F88830536855
:104AB00043F040435360236943F010032361FFF741
:104AC000C7FE72B6FEE700BF00ED00E07C030020E9
:104AD00030EF00E072B6024A13680133136070478A
:104AE0007C030020034A1368013B136003B962B6DC
:104AF000704700BF7C030020EFF3108072B6704750
:104B000080F310887047BFF35B8F0170BFF35B8F3A
:104B100008467047BFF35B8F0078BFF35B8F0038A8
:104B200018BF012070472DE9F04786B0C3601E46CC
:104B30000E9B0361DDE911870F9B4361109B0025EC
:104B400000F124090446C0E90112C0E90638014613
:104B50000562484600F01CFE04F140031846214659
:104B6000C4E90E570593FDF79DFC214604F168004A
:104B7000FFF7C1FD2246A56742F87C5F059BC4F89C
:104B8000802004F1840184F8845004F1F80204F5D3
:104B90004A7002F86F5C42F8045C70329042F8D1BF
:104BA0004FF48032C4F8B822139AC4F8C022149A81
:104BB000C4F8C422159AC4F8C8224FF0010A169A04
:104BC000C4F8CC22CDE900183A462146CDE9026965
:104BD00084F8BCA204F53470FDF710FE0323C4F87A
:104BE000003CC4F8043CA4F8125C84F8145CA4F8FB
:104BF000185CA4F8205CC4F8245C002251460A200A
:104C000013F052FC6067204606B0BDE8F087000054
:104C100007B5002301900093084903464FF4AF7293
:104C2000074813F07FFF012805D0042003B05DF88A
:104C300004EB14F0D7BF03B05DF804FB56F201009B
:104C4000D95300001FB50446019119B901217930EB
:104C5000FFF759FF0023606F039303AA01A913F024
:104C6000F1FC04B010BD38B504467930FFF752FFAF
:104C7000A0B904F17800FFF74DFF78B104F17A058F
:104C80002846FFF747FF48B901212846FFF73BFFB9
:104C900020460121BDE83840FFF7D4BF38BD70B5CC
:104CA000044686B07930FFF735FF002850D104F173
:104CB0007A00FFF72FFF00284AD104F1780630462A
:104CC000FFF728FF20B1D4F8CC329B69032B3FD1EA
:104CD0003046FFF71FFF10B1206900F0EEFB94F89B
:104CE000213C33B1D4F8C802FCF70BFD002384F853
:104CF000213C03A8D4F8C812FCF7CAFC3046FFF7E1
:104D000009FF10B1206900F0C8FBD4F8C802FCF715
:104D1000F5FC04F6084501462846FDF76CFD039BAB
:104D2000BDF91010BDF9122000932846BDF91430CA
:104D3000FDF73CFD3046FFF7EDFE01462846FDF746
:104D40003BFD28B1204606B0BDE87040FFF78BBFA1
:104D500006B070BD10B504467930FFF7DBFEC0B970
:104D600004F17800FFF7D6FE48B920460C21FFF782
:104D700069FF206A0621BDE81040FBF797BB04F1EC
:104D80007A00FFF7C7FE20B92046BDE81040FFF7C4
:104D90006ABF10BD10B504467930FFF7BBFE00BBFB
:104DA00004F17800FFF7B6FE48B90B212046FFF763
:104DB00049FF206A0521BDE81040FBF777BB04F1ED
:104DC0007A00FFF7A7FE0028F3D1D4F8CC329B6914
:104DD0003BB1032B05D020460221BDE81040FFF770
:104DE00031BF10BD90F8201C09B9FFF72BBF7047E9
:104DF00008B514F055FEBDE80840FFF7F3BF37B51E
:104E000005467830FFF786FE80B905F17900FFF797
:104E100081FE044650B9D5F81C5C13F0C7FF00941E
:104E2000024623460221284614F002FD03B030BD9D
:104E30002DE9F04F00F17C0699B007210446304679
:104E4000FCF708FB3046FCF7CFFABB49022014F010
:104E500007FF08B114F0C6FE14F03CFE6068FCF7D2
:104E600017F8E068FBF735FF04F53475E068FBF7E9
:104E70003DFF2846FDF73EFD2846FDF79BFD04F566
:104E80004060FDF787FCA068FBF781FE206900F019
:104E9000B8FA6069FFF742FCE069FDF79DF9D4F8C4
:104EA000C00200F041FF04F1680AD4F8C802FCF720
:104EB0002BFC5046FFF724FC206900F0EEFA206935
:104EC00000F09FFAD4F8C802FCF788FBD4F8CC02B3
:104ED000FFF709FC63690F93E3690C93E36BA16827
:104EE000A2690D934FF4F870D4F8CC32D4F8C0B264
:104EF000119110920E9315F05DF90E9B1199CDF85A
:104F000028A004F6084C04F12409CDE908BCCDE939
:104F1000069304F1840C0D9B0193CDE9044C0C9B8A
:104F2000009304F1800C04F14008CDE9028CDDE926
:104F30000F320746FBF7C4F9206A276218B14FF415
:104F4000F87115F026F9206AFBF7C8F90421206AE8
:104F5000FBF7ACFAD4F8C402FCF7E4FAD4F8C402C4
:104F6000FCF7D3FAD4F8C4120C914FF4987015F0F2
:104F700021F90C994A46074600F01FFCA06BA76375
:104F800018B14FF4987115F004F94FF0A047A06BD9
:104F900000F034FC694BC7F834374FF003094FF485
:104FA0000043C7F83C97C7F808354FF48173ADF854
:104FB00050309DF85230624A23F0070343F0040357
:104FC00014A90D208DF8523012F010FE5D4BC7F879
:104FD000703740F20233ADF850309DF85230584AE5
:104FE00023F0070343F0040314A91C208DF852306A
:104FF00012F0FCFD9DF85230514AADF8509023F06C
:10500000070343F0040314A913208DF8523012F063
:10501000EDFDD7F81035DFF838911A034CBF4FF487
:1050200040334FF40033C7F84C37D4F8CC325969C9
:10503000454B0093002223464FF47A708902B1FB5E
:10504000F0F1424814F0DAFBC4F81C0C074613F0E8
:10505000ADFE0023024600930121384614F0E8FB20
:105060002046FFF71CFE606F64220DF14F0113F024
:105070004BFBF8B1E069FDF7DFF89DF84F30132BDB
:1050800018D8DFE813F0F0006700B00007010F0147
:1050900023011700370148003F01510174017401D9
:1050A00078011400460098019C01DC00EC0000230C
:1050B00084F8203C94F8183C4BB194F8193C002B30
:1050C00040F0838184F8183C2846FDF727FD13F053
:1050D0006DFED4F8243CC01A42F21073984209D9EC
:1050E00000220A2104F6284014F006F913F05EFEAF
:1050F000C4F8240CD9F804154046FDF7E5F94FF043
:10510000A043D3F810359B04AAD43046FCF772F9BB
:10511000A6E70123CCE7D4F8CC32D4F81C0C5A69AA
:1051200000234FF47A7192020093B2FBF1F2042152
:1051300014F07EFBBEE700BF8003002004000200E5
:10514000210500000C000300F14D00005BF201009E
:10515000001001406068FCF7B6F8206900F0ADF976
:10516000D4F8CC329B69022B02D06069FFF76EFB4A
:105170002846FDF71FFCD4F81CAC13F017FE0027DF
:1051800002463B4601215046009714F051FBE0686F
:10519000FBF7ACFD04F17B0AA068FBF738FD504635
:1051A000FFF7B8FCD0B1206A0B21FBF77FF9394635
:1051B0005046FFF7A8FC206A0421FBF777F9A06BA3
:1051C000012100F035FB002104F17800FFF79BFC82
:1051D000002104F17A00FFF796FC6BE7206A0121B9
:1051E000FBF764F9E7E7206900F067F9616915A842
:1051F000FFF7CEFA20699DF85C7000F04EF99DF83B
:105200005D3083B10B2F07D1D4F8CC329B69022BD0
:105210007FF450AF00210AE0052F04D1D4F8CC323E
:105220009B69012BF4E70C2F7FF444AF012104F1BB
:105230007B00FFF768FC2046FFF715FD3AE728469C
:10524000FDF7AEFB012384F8D53294F8D432013354
:1052500084F8D43213212046FFF7F4FC2AE72846CD
:10526000FDF7A8FB26E70027012104F17900FFF7ED
:105270004AFC3B463A46D4F81C0C0097032114F034
:10528000D7FA206A3946FBF711F9A06B394600F0CE
:10529000CFFA0FE72046FFF7B2FD0221206AFBF7A5
:1052A00005F907E704F17800FFF734FC38B104F1A1
:1052B0007A00FFF72FFC10B92046FFF7D4FC23211A
:1052C000D4F8C00200F042FD0721E7E704F17800BE
:1052D000FFF720FC38B104F17A00FFF71BFC10B98E
:1052E0002046FFF7C0FC2321D4F8C00200F02EFDB9
:1052F0000821D3E72046FFF782FD40F20153A4F8CE
:10530000183CD7E6012384F8203C04F17800FFF72D
:1053100001FC38B104F17A00FFF7FCFB10B920461C
:10532000FFF7A1FC0921B9E7002784F8207CD4F815
:105330001CAC13F03BFD3B46024600970121504652
:1053400014F076FAE36BDB68022B7FF4B3AEBFF3A5
:105350004F8F2049CA6803F1BF6302F4E06203F192
:1053600002131343CB60BFF34F8F00BFFDE720460E
:10537000FFF745FD9EE6FAF7A1FF10B1E068FBF7E5
:1053800079FCA068FBF736FC6068FBF781FFD4F876
:10539000CC329B69022B02D06069FFF73BFA20698F
:1053A00000F07BF8012104F17800FFF7ACFB00214D
:1053B00004F179000FE7012384F8213C7AE6D4F860
:1053C000C0020F2100F0C2FC74E6013B84F8193CD6
:1053D0007DE600BF00ED00E008B5FFF729FD10B540
:1053E00000F10C030446816092E8030083E80300A7
:1053F0000021A1620322012013F056F860602046CC
:1054000010BD437C4FF0A04203F5E07340F20C6105
:1054100042F82310037C03F5E07342F823108368FD
:10542000002B39D1C2684FF04023012A03602DD0F0
:10543000022A2ED01AB94FF0CC72C3F82425036883
:10544000427CC3F808250368027CC3F80C25026877
:105450000023C2F85C310268C2F804310268C2F865
:1054600060310268C2F824310268C2F84C31026827
:10547000C2F848310268C2F8503102680621C2F809
:10548000001540681A46194613F032B84FF0806292
:10549000D3E74FF0C862D0E7704700220368D3F823
:1054A000001511B1C3F80025F8E74FF0A043022220
:1054B000C3F81827C3F81C277047FFF7A2BF10B521
:1054C0004FF040230022D3F800450368C3F80025BD
:1054D000437C4FF0A04203F5E0730C2142F8231007
:1054E000037C03F5E07342F823100368C3F800451A
:1054F00010BD000070B504689DF81050C4F8881500
:105500000468012121620468C4F834250268C2F8E5
:105510003835036819600368D3F84C211AB9D3F8F9
:105520002421002AF8D00022C3F84C211C4B01682A
:105530005C681C4E8462D1F85C2112B9D1F8242138
:1055400092B10023C1F85C310368ADB9D3F82421CE
:1055500092B90122DA610368D3F84821002AFBD00E
:105560000022C3F8482111E05A68121BB242E2D966
:10557000FFF7A5FF012070BD01225A610368D3F82F
:105580000421002AFBD00022C3F804210268D2F8CB
:10559000240100230028EED0C2F824311846EAE79F
:1055A000001000E0E874020070B504689DF8105027
:1055B000C4F888150468012121620468C4F84425F0
:1055C0000268C2F84835036899600368D3F850212F
:1055D0001AB9D3F82421002AF8D00022C3F85021A8
:1055E0001F4B01685C681F4E8462D1F8602112B9BC
:1055F000D1F8242192B10023C1F860310368ADB91C
:10560000D3F8242192B90122DA610368D3F8482142
:10561000002AFBD00022C3F8482111E05A68121B6F
:10562000B242E2D9FFF74BFF012070BD01225A615F
:105630000368D3F80421002AFBD00022C3F8042118
:105640000168D1F82431002243B1C1F82421036854
:10565000D3F8C414C3F8C4141046E6E71846E4E7C8
:10566000001000E0E8740200F0B585B004460027A1
:105670000D4640688DF80F204FF0FF311E4613F0A5
:10568000BDF80DF10F022946009701232046FFF7D0
:105690008BFF0123009332460A9B29462046FFF7E1
:1056A00029FF3B4605463A466068394612F020FF1E
:1056B000284605B0F0BD2DE9F341DDF82080044611
:1056C0001E4617460D4640684FF0FF3113F096F81E
:1056D00042463146277504F1150014F0AFFF01234F
:1056E000009304F11402434429462046FFF75CFF6F
:1056F000002305461A466068194612F0F9FE28464E
:1057000002B0BDE8F0810000C0E9001203490022A8
:10571000C0E90222C0E90412826170470000FFFF65
:1057200010B50446FFF7F0FF6382BDF80830A3828E
:10573000204610BD30B5D0E901349C421DD203682B
:1057400085691B5D5B1BDBB2C48ABBB1058A241271
:105750004C55048AC58A0C44013B6570048A8569EE
:105760000234A4B2013594420482DBB28561EBD3EA
:1057700000230382C3680133C36030BD8361838A21
:10578000A34208BF438AC382836801338360D2E7A0
:105790000022C0E901220160027302617047037BAD
:1057A0008160934204D0027311460069FEF7B5BED2
:1057B0007047416070470161704770B5044601262B
:1057C000C4E90261226108461546FBF7CDFE07EEEB
:1057D000900A04F11400B8EE670A00F005F90022FF
:1057E00084F82C2131460A2012F05EFE21466060CA
:1057F0002846FFF7DEFF204670BD000007B50023F6
:1058000001900093084903464FF4FA72074813F0D9
:1058100089F9012805D0042003B05DF804EB14F0E9
:10582000E1B903B05DF804FB65F2010059590000CD
:105830001FB500238DF8071003AA0DF1070140687A
:10584000039312F0FFFE05B05DF804FB10B50446AB
:10585000C068FBF74CFE642013F0A2FBE068FBF786
:1058600083FE014604F11400BDE8104000F0DCB9ED
:1058700008B5C068FBF749FEBDE80840642013F096
:105880008FBBF7B5002504462F46A368012B13D123
:1058900094F82C31002B14BF2822642260680DF18B
:1058A000070112F031FF70B19DF80730032B0AD8C1
:1058B000DFE803F00528333E4FF0FF32EEE72046E5
:1058C000FFF7D6FFA76094F82C31002BDDD0E068FD
:1058D000FBF74AFE07EE900A04F11406B8EE670AD9
:1058E000304600F0C1F8304600F08CF9B5EE400AC1
:1058F00045BBF1EE10FA28D12A4601212069FFF7B5
:105900004EFFC2E70123A36094F82C31002BDAD0BC
:105910002046FFF79BFF0025D5E794F82C61002E69
:10592000D1D12046FFF792FF012384F82C31F2E712
:1059300094F82C31002BC6D02046FFF799FF84F84D
:105940002C71C0E7F1EE10FA9FD0FDEEC07A032172
:1059500017EE905AEAB2D1E708B5FFF792FF2DE9AA
:10596000F04301EB000CA2F1020EACEB0E0807466F
:105970000025474509D03E4617F90E4096F90060CC
:10598000A41B013704FB0455F3E70144471E891AA1
:1059900000248F420ED0BE5617F901EFA6EB0E067B
:1059A00006FB0644F5E7A54201DD8C4218DB2546DF
:1059B00001320C469342904610DB86460021ACEB48
:1059C0000209F145EFD077461EF9026097F90070A1
:1059D000F61B0EF1010E06FB0611F2E74FF0FF3841
:1059E0004046BDE8F08300009FED161A9FED162A91
:1059F000DFED161ADFED160A002310B50446C0F8D5
:105A0000C83080ED330AB0EE410AD03000F016F90C
:105A1000DFED100AB0EE001AB3EE040A04F1EC0058
:105A200000F039F99FED0C1A9FED0C2ADFED0C1AEE
:105A3000DFED0C0AB0EE410A04F1FC0000F0FEF8C4
:105A4000204610BDFFCD5E3F99EE413FB3A4DCBFC1
:105A5000FFCDDEBF7593783F8078ED3D74F13D3E1C
:105A60001DC038BF80786D3E13B5D0ED337A044643
:105A700030EE670AD03000F0EFF804F1EC0000F0EF
:105A800017F904F1FC0000F0E7F8FDEEC07AD4F855
:105A9000C830CDED017AC72B9DF904009EBF5A1C7A
:105AA000C4F8C820E05402B010BD00001FB5534B2D
:105AB0001A68022A044600DD00BF1A68D4F8C8102C
:105AC000039101321A60204630230722FFF747FF77
:105AD000031EC0F28F805B0007EE903AB8EEE77AC3
