:1000000000000120CD190200F5190200F7190200C5
:10001000F9190200FB190200FD190200000000009E
:1000200000000000000000000000000095D5000066
:10003000011A020000000000B5D50000051A0200F8
:10004000611B0200A18C0000071A0200418C000015
:10005000071A0200071A0200811D02001D1F02007C
:10006000071A0200071A0200071A0200B98C0000E2
:10007000071A0200AD8C0000071A0200071A0200DE
:10008000C58C000015D60000071A0200071A0200EE
:10009000071A0200071A0200071A0200071A0200D4
:1000A000071A0200071A0200071A0200071A0200C4
:1000B000071A0200071A02000000000000000000FA
:1000C000071A0200071A0200071A0200071A0200A4
:1000D000071A0200071A0200071A020000000000B7
:1000E0000000000000000000000000000000000010
:1000F0000000000000000000000000000000000000
:1001000000000000000000000000000000000000EF
:1001100000000000000000000000000000000000DF
:1001200000000000000000000000000000000000CF
:1001300000000000000000000000000000000000BF
:1001400000000000000000000000000000000000AF
:10015000000000000000000000000000000000009F
:10016000000000000000000000000000000000008F
:10017000000000000000000000000000000000007F
:10018000000000000000000000000000000000006F
:10019000000000000000000000000000000000005F
:1001A000000000000000000000000000000000004F
:1001B000000000000000000000000000000000003F
:1001C000000000000000000000000000000000002F
:1001D000000000000000000000000000000000001F
:1001E000000000000000000000000000000000000F
:1001F00000000000000000000000000000000000FF
:1002000010B5054C237833B9044B13B10448AFF350
:1002100000800123237010BDB803002000000000FF
:100220003812050008B5034B1BB103490348AFF36F
:10023000008008BD00000000BC030020381205004B
:10024000A3F5803A704700BF174B002B08BF134B34
:100250009D46FFF7F5FF00218B460F461348144AD1
:10026000121A39F0F3FB0E4B002B00D098470D4BC0
:10027000002B00D098470020002104000D000D48FD
:10028000002802D00C48AFF3008039F00DFB2000AD
:10029000290008F0C9FD39F0F3FA00BF000008009A
:1002A000000000000000000000000120B803002052
:1002B000D4BD0020000000000000000000207047B6
:1002C00007B500F144030193002300930849034656
:1002D0004FF44872074822F07DFC012805D0042025
:1002E00003B05DF804EB23F005BD03B05DF804FB3B
:1002F00090D00300F909000013B504463C3001908A
:100300000AF03CFFA36A0198D96902B0BDE8104029
:100310000AF008BF1FB500238DF8071003AA0DF1DE
:100320000701C06C039322F0E5F905B05DF804FB0A
:100330001FB50446816801A80DF0BEF89DF80D00B8
:1003400068B19DF80C30013B0B2B1DD8DFE803F0A2
:10035000181A1614091C1C1C1C1C061E072004B0AD
:1003600010BD636E33B9BDF80620BDF80410606897
:100370000DF0A3FB0120F2E70320F0E70220EEE7F7
:100380000520ECE70420EAE70020E8E70620E6E79E
:100390000139052912D8DFE801F00703090B0D0F19
:1003A000022140680DF07EBA0121FAE70321F8E747
:1003B0000421F6E70521F4E70621F2E770474166DC
:1003C0007047036801601BB11A68184652681047ED
:1003D000704710B50446006810B103685B68984721
:1003E000204610BD2DE9F04F00F150050446174698
:1003F0008DB028460E460021FFF7E3FF3946204620
:10040000FFF7C6FF02230121C4E916130523236663
:100410001B2E37D8DFE816F03A001C003A003301F3
:100420006C005B0099007700B9004A012801860141
:1004300070017B016701A00193015F01AE01B90169
:10044000C400E100F100FC00120107011D01C70119
:10045000A26AE368D4F8148008925020079337F01A
:1004600085FDDDE9073207462146CDF8008003F01F
:100470003FFC39462846FFF7A4FF0223A365E36546
:100480000523236666650DB0BDE8F08FD4E909BA8F
:100490006269E368216BD4F81080D4F82090099247
:1004A00060200893079137F061FD0799CDF800802F
:1004B000CDE903B1CDE9019ADDE9083221460746CD
:1004C00000F08AFB39462846FFF77BFFDAE7482031
:1004D00037F04CFD04F138022146074603F058FA84
:1004E00039462846FFF76DFF1523A3650223C6E7AB
:1004F000226907922C2037F039FD079A21460746DA
:1005000002F0E8FADEE7E369226A089203F5B163D4
:100510003420079337F02AFD4FF00008DDE9073259
:1005200007462146CDF8008003F0CEFE3946284626
:10053000CDF82C80FFF745FF0BA8FFF74AFF0222FA
:100540000123C4E9162304239BE7E369226A089286
:1005500003F5B1633420079337F008FD4FF001082D
:10056000DDE9073207462146CDF8008003F0ACFEF6
:100570000023394628460B93FFF723FF0BA8FFF70C
:1005800028FF0223C4E91638DDE7626B079240209A
:1005900037F0ECFC079A2146074605F05DFC91E731
:1005A000E268636908924420D4E90A98079337F017
:1005B000DDFC04F13C01DDE9073207460091CDE99D
:1005C0000189214605F096FD39462846FFF7F9FED8
:1005D00002230522C4E9163253E7A26A0792482093
:1005E00037F0C4FC079A0746214606F04DF8394615
:1005F0002846FFF7E6FE142377E7A26A07921C203D
:1006000037F0B4FC079A2146074606F0CFF867E7B3
:10061000A26A07921C2037F0A9FC079A21460746D8
:1006200006F0FEF95CE7A26A0792242037F09EFCF0
:10063000079A2146074606F039FB51E7A26A07925E
:10064000242037F093FC079A2146074606F0E0FC89
:1006500046E7A26A07921C2037F088FC079A2146D9
:10066000074606F093FE3BE7E2680792302037F03A
:100670007DFC079A2146074605F0C2F830E762691B
:10068000E368D4F81080D4F8189008928820079373
:1006900037F06CFC04F13C010091CDE90189DDE902
:1006A00007322146074601F06FFD19E7E26907921C
:1006B000202037F05BFC04F13C03079A07462146F3
:1006C00004F066FD39462846FFF77BFE0223C4E9A5
:1006D00016330023D5E66C2037F048FC2146074648
:1006E00001F09AF9EEE640F26C7037F03FFC2146DB
:1006F000074604F0DBF8E5E662680792DC2037F095
:1007000035FC079A2146074600F0C2FDDAE662682A
:100710000792542037F02AFC079A2146074600F03A
:10072000C3FFCFE6E2699C2002F28462079237F0B1
:100730001DFC079A2146074602F01AFBC2E6E26951
:100740006C2002F51462079237F010FC079A2146DC
:10075000074602F0ABFEB5E6626AE369089228201C
:10076000079337F003FCDDE907322146074604F022
:10077000FBFBA7E6226B0792342037F0F7FB079AC2
:100780002146074603F058F89CE6226BA36A0892BC
:100790002420079337F0EAFBDDE9073221460746BC
:1007A00005F09AF98EE6E26AE369D4F804800892CB
:1007B0003C20079337F0DAFBDDE90732CDF8008003
:1007C0002146074600F03EFE7CE638B58360049B78
:1007D000C360059B0361069B4361079B8361089B84
:1007E000C361099B03620A9B43620B9B83620C9B60
:1007F000C3620D9B03630E9B43630025C0E9001297
:1008000003230121C0E90F3304468164C0E9145574
:100810002A46C0E91655C0E918550A2021F09CFE69
:100820002A46E06402212046FFF7DCFD204638BD61
:1008300010B50446006D03689B68984720B9D4E959
:1008400016122046FFF7CEFDBDE810402DF0A2BAEB
:1008500070B5836C012B86B0044614D1FFF7E8FF16
:100860001422E06C0DF10B0121F0A6FF38B39DF8C6
:100870000B300B2B23D8DFE803F009412222517201
:10088000AE5568BB4C5B4FF0FF32EAE704F13C0623
:1008900030460AF090FC30460AF08BFC054630B139
:1008A00030460AF077FC642022F0D2FBF3E72068A0
:1008B00008F096FCE0690D210EF088FAA564A36C9F
:1008C000D3B1636E012B17D1A16803A80CF0F4FD1E
:1008D0009DF81030022B0FD1206DBDF80C10BDF823
:1008E0000E200368CDE900125B699847DDE900122C
:1008F00010B960680DF0E1F806B070BD254655F8F6
:100900003C0B08F031FC28460AF058FC0123A36494
:10091000D5E70821E0690EF059FAD0E7E0680AF05F
:1009200013F8CCE7022206212046FFF75BFDC6E75D
:10093000254655F83C0B08F017FC28460AF03EFC0B
:100940000123A36400221B21EEE7636D082B03D172
:10095000206D05F089FBB2E702220821E4E720467A
:10096000FFF7E6FC0628054604D100221B2120469D
:10097000FFF738FDA36C012BA1D1206D0368294638
:100980001B69984700289AD1636D022B19D1033D4A
:10099000042D94D801A353F825F000BFBD09000031
:1009A000B1090000B7090000BF080000DD09000020
:1009B00001221146B8E702220721B5E706221421D9
:1009C000B2E7236EAB427FF47AAF062D3FF477AFE8
:1009D000D4E91612A8E7636D022B01D1002199E733
:1009E000206D0368DB68984700287FF468AFEFE765
:1009F0000222042198E700BF10B50446FFF77CFCF3
:100A000022F022FD00230222194622F047FE204652
:100A1000FFF71EFFFBE7FFF7E5BC00207047002053
:100A2000704710B50446406B03689B689847207276
:100A300010BD10B504462830FFF7F3FF207A10BD33
:100A4000022A06D0032A02D0012A00D10160002028
:100A500070470B680360FAE7022A06D0032A02D027
:100A6000012A00D10160002070470B680360FAE79B
:100A700010B103685B681847704710B58368044677
:100A800013B1032201469847204610BD2DE9F047D7
:100A90008AB0D1E90567D1E90789CA680B69D1F83D
:100AA00024A049680992044698200893079137F0DA
:100AB0005DFACDE9039ACDE90178DDE908320799BD
:100AC0000096054607F0B6FE204625600AB0BDE850
:100AD000F08710B504460968FFF7D8FF204610BD1F
:100AE0002DE9F04188B0D1E90567CA680B69D1F8F2
:100AF0001C80496807920446A8200693059137F0A8
:100B000035FACDE90178DDE906320599009605460A
:100B100007F070F92046256008B0BDE8F08110B5F7
:100B200004460968FFF7DCFF204610BD10B50446F7
:100B3000006808B1FFF79CFF204610BD38B5054698
:100B40000B4B45F8343B04462BF082FE23F0A4FB0C
:100B500024F0B8FA2846FFF7E9FF04F11C00FFF77C
:100B60008CFF04F10C00FFF788FF204638BD00BF62
:100B7000A4D0030010B50446FFF7E0FF204638215B
:100B800037F0E3F9204610BD38B50546074B45F868
:100B9000283B04462BF05CFE23F07EFB24F092FA07
:100BA0002846FFF7CBFF204638BD00BFC4D0030066
:100BB00010B50446FFF7E8FF2046602137F0C5F97D
:100BC000204610BD8A6810B504460AB937F0E8F926
:100BD000CB689847204610BD2DE9F04F8BB00446F6
:100BE0004160C4E90323149B6361159BA361169BB9
:100BF000E361179B2362189B63620120169B20729E
:100C000093F80C902B4B05932B4B04932B4B099390
:100C10002B4B08932B4B2C4DA36206AB256004F1A4
:100C2000280C02940694E16284F8300084F8319034
:100C300004F1340E224604F1200B9A466E464FF022
:100C40000008A3F1100797E8030002F1340586E8D5
:100C5000030095E8030087E8030096E8030085E8B1
:100C6000030053F8081CD16353F8041C106C116482
:100C700010325A4543F8088C43F8040C03F1100372
:100C8000DFD1022363650CF134000EEB091184F807
:100C90005880FFF797FF84F858905046FFF7EDFE15
:100CA00002A8FFF7EAFE169B204683F821800BB0CE
:100CB000BDE8F08FD30A0000410A00001F0B0000BE
:100CC000590A0000A4D00300C4D00300F7B5C56AD8
:100CD0000446002D3BD1042927D0052940F09C80F3
:100CE00090F83000F8B104F1340629463046FFF799
:100CF00068FB60680221FFF74BFB94F83030013B42
:100D0000DBB204F10C0101EB031184F8303001A8CF
:100D1000FFF758FF019901953046FFF752FB01A8F4
:100D2000FFF704FF012003B0F0BD90F83050002D14
:100D3000F8D100F1340629463046FFF742FB6068DF
:100D40000121FFF725FB94F830300133D8E7012D5E
:100D500041D1022920D003295ED190F8300000282B
:100D6000E1D004F1340600213046FFF72AFB606829
:100D70000021FFF70DFB94F83030013BDBB204F1AA
:100D80000C0101EB031184F8303001A8FFF71AFFC2
:100D9000002301990193BFE790F83060002EC1D184
:100DA00000F1340731463846FFF70BFB60683146E7
:100DB000FFF7EEFA94F830300133DBB204F10C01A6
:100DC00001EB031101A884F83030FFF7FBFE019915
:100DD00001963846A1E706291ED190F83030B3FAC3
:100DE00083F35B0900F1340580F830300021284698
:100DF000FFF7E7FA60680021FFF7CAFA94F83010AD
:100E000004F10C0303EB011101A8FFF7DBFE002343
:100E100001990193284680E7002084E708B528302F
:100E2000FFF754FF08BD00207047007A704708B5EF
:100E30002BF00EFDBDE8084023F02EBA10B5064B8E
:100E40000360044640692CF063FFFFF7F0FF24F0D5
:100E500039F9204610BD00BFF4D0030010B5044698
:100E6000FFF7ECFF2046742137F06FF8204610BDE5
:100E700038B50D46446C23F09FFB102D09D1036853
:100E8000606804EB83030122D96DFFF7C4FD0023E2
:100E9000237238BD2DE9F3474360DDE90B9AA54B7A
:100EA00003600A9B0D9E4FF0010880F80880C0E99E
:100EB000039A83F82110044617460D46FFF7B7FF43
:100EC000002133F009FD9AF80A309AF809209A496E
:100ED000A06133F06AFC4146A06932F022FF06238C
:100EE00042460021A06900930F2323F0BFFCFFF7C7
:100EF0009EFF002133F0F0FC09F104028046E0611E
:100F0000002309F11800824203D052F8041B0B445D
:100F1000F9E799F8180093FBF0F000F091FE014614
:100F2000404633F005FC06230093E0696FF00E03A2
:100F30000322002123F09AFC012F4CD97F4B23621E
:100F400003F564036362FFF772FF002133F08AFE4A
:100F5000032320639022002124F045FE206B48F2F9
:100F600010239922002124F058FE0123206B9422A3
:100F7000002124F038FE206B022204F1200133F01E
:100F800003FEE423B3FBF7F255430632EF23A91D1A
:100F900015442385A3856185E585FFF748FF00217A
:100FA00033F060FE032360639022002124F01BFED7
:100FB000634B606B1B889922002124F02EFE606B2E
:100FC00094220021012324F00EFE606B022204F122
:100FD000280133F0D9FD0022DFF878C1DFF878E18D
:100FE00004F15C071046351D55F8328000F10E0102
:100FF000B8F1000F40F0978004EB8101C1F804C004
:10100000431CDBB2052A47F8048B19467DD104EB5B
:1010100083034C4ADA63FFF70AFF00212FF00CFB31
:1010200004F13C01A0632FF061F9A76B2BF010FCD9
:101030002BF014FC06462BF00BFC2BF01FFCA6F14A
:101040000A013C3802B209B2384623F08EFD0A2369
:10105000009300231A461946A06B23F007FC0122D7
:101060001146A06B142324F0BEFDA06B33232C2269
:10107000012124F0EDFD324BA06B5B882922012178
:1010800024F0CBFDA06B332342F22C02012124F08B
:10109000DFFDA06B48F2102342F22902012124F067
:1010A000BCFD002655F8363023B9A06B2022B1B222
:1010B0002FF055FB0136062EF4D1A36B22495C6458
:1010C000A06B23F028FAFFF7B2FE002133F004FCF6
:1010D0000521054633F0AAFBF0221146284623F0ED
:1010E00044FD00221146284623F07DFB2846154981
:1010F00033F082FB15491648234603222CF0C2FD2B
:101100006061204602B0BDE8F0875FFA82F8B8F16E
:10111000020F01BF831C04EB8101DBB2C1F83CE08C
:101120000132184660E704EB810156F832304B601B
:1011300066E700BFF4D00300DCD00300EF00060038
:10114000E6D00300E9790400710E000020A1070039
:10115000A11100008410050067D7030038B50269AB
:101160000E49937A527A0446806933F01EFBE26896
:10117000E569111D02F118040023A14203D051F8C2
:10118000040B0344F9E7107E93FBF0F000F058FDE8
:1011900001462846BDE8384033F0CABADCD0030027
:1011A000C068FFF7DBBF007A7047000010B5074B3F
:1011B0000360002104464068FFF701F92BF048FB6B
:1011C00023F06AF823F07EFF204610BD1CD10300F7
:1011D00010B50446FFF7EAFF2046DC2136F0B5FEE5
:1011E000204610BD13B54B1F04460431ADF8003046
:1011F000ADF80410531FC068ADF80230043200216E
:10120000ADF806200CF04EFBE06804F110026946D0
:101210000CF070FB012002B010BD0000062933D194
:1012200090F8DA30072B26D8DFE803F004131518FE
:101230001A1D202341F6F873A0F8D83000F11003EE
:1012400000F1D8018B421AD0B0F8D82023F8022B35
:10125000F8E70423F0E70D4B1B88EDE7F823EBE7F5
:101260000A4B5B88E8E7094B9B88E5E74FF4F853A6
:10127000E2E70023E0E7002380F8DA30DEE790F8C9
:10128000DA30013380F8DA30012070470CD10300E6
:1012900010B504460E4B23600E4B61601B88A4F80A
:1012A000D830084602230121217284F8DA30E26046
:1012B000FFF785F804F1100304F1D801994204D036
:1012C000B4F8D82023F8022BF8E7204610BD00BF61
:1012D0001CD103000CD103000120704708B52BF08E
:1012E000B7FABDE8084022F0D7BF000010B5044BA4
:1012F00003600446FFF7F2FF23F0E4FE204610BD32
:101300008CD1030010B50446FFF7F0FF20463C21C6
:1013100036F01BFE204610BD38B58369012B04460C
:1013200009D0032B5DD023B921F098FD0123206261
:10133000A361207A38BDC369012B18D13C4D806B65
:101340002B8848F28902002124F067FC6B88E06A50
:1013500048F28902002124F060FC3649E06A33F04B
:10136000E7F90323A36121F079FD2062E1E7056A33
:1013700021F074FD431B07EE903A9FED2F7AFBEEB0
:10138000CB7A3C2167EE877A4FF47A73FDEEE77AE9
:1013900017EE902A92FBF3F292FBF1F301FB13227A
:1013A000C2F10502002A626216DA48F28902A06BD5
:1013B0004FF0F803002124F030FCE06A1F4933F0BD
:1013C000B7F902232069A36178210BF0FFFE606961
:1013D00012210DF0FBFCACE71949A06B33F0E5F9E5
:1013E000A7E7056A21F03AFD431B07EE903A9FED0F
:1013F000127AFBEECB7A3C2167EE877A4FF47A7350
:10140000FDEEE77A17EE902A92FBF3F393FBF1F2ED
:1014100001FB1233C3F10503032B636289DC6068AF
:101420000621FEF777FF60680621FEF773FF80E76D
:101430007CD1030034D1030000007A4449D1030079
:101440002A5F04002DE9F3411646494A0260089AD2
:10145000436100250127C0E90326C0E90655416024
:10146000077205620446FFF739FF294633F034FA64
:101470002946A0633F4B48F28E0224F003FC3E4B0A
:10148000A06B9B8848F28902294624F0C6FBA06B1A
:101490003A4933F04DF93946A06B32F042FCD4F8AA
:1014A0003880FFF71BFF502302220146009340467D
:1014B0002B4623F0DBF9FFF711FF294633F00CFA36
:1014C0003946E06233F0B2F9D4F82C802BF0C0F941
:1014D0002BF0C4F9014640464FF0F80823F08EFB8C
:1014E000434648F28902E06A294624F096FBE06A06
:1014F000234933F01DF9E06A394632F012FC4623E5
:101500002A462946E06A00932B4623F0AFF9FFF7FD
:10151000E5FE29462EF024FD206344641949206B22
:1015200022F0F9FF276BFFF7D9FE0A2302220146BA
:10153000009338462B4623F099F9206B3C2123F089
:1015400064FB2946206B33F0C7F90F49606333F021
:10155000EFF8606B434648F28902294624F05DFBB0
:1015600030463C210BF032FE204602B0BDE8F0814F
:101570008CD10300100100207CD10300930B0500E7
:1015800062D103009F15000078D10300062905D120
:101590000123C3611E2100690BF018BE7047406C27
:1015A000FFF7F4BF0120704708B52BF051F9BDE8F3
:1015B000084022F071BE000010B5064B0360002108
:1015C00004464068FEF7FBFEFFF7EEFF23F07AFDCE
:1015D000204610BD7CD6030010B50446FFF7ECFF93
:1015E0002046542136F0B1FC204610BD70B50546AA
:1015F000A2F11E061446C06C32B200211E3423F044
:10160000F2F86E612C61012070BD000010B5826A95
:10161000052392FBF3F303EB8303D31A044603D0B1
:1016200001328262207A10BD81698362036AC269D5
:101630001944436A81611A4409B2C26112B2006D51
:1016400023F0D1F8E269531ED52B82BF636A5B4257
:101650006362A369D62BC2BF216A49422162216914
:1016600010318A4216DC616908398A4212DB032B89
:101670000AD8206D12B2052123F0B5F8236A5B4227
:101680002362E36A0133E362E26A0649A06C33F045
:101690008CF8C7E72733F7DA6B23C4E90633002356
:1016A000F1E700BFA4D10300F7B504462E4B236039
:1016B000E26096235A22C4E904236B230025C4E97F
:1016C000063308460323616002260121C4E908634A
:1016D0002172C4E90A55FEF772FEFFF765FF29463D
:1016E00033F0FAF82149A06433F022F82946A06CBF
:1016F00042F6420348F2890224F08FFAA76CFFF702
:1017000053FF2B46014632463846009523F0AEF88B
:10171000236B03F44072164B134323634423636328
:10172000144BA363FFF740FF294632F077F804F12A
:101730003001E06431F0B8FFE36B03F440720E4B0C
:101740001343E3634FF4906323640C4B6364FFF72C
:101750002BFF294632F062F804F13C01206531F09C
:10176000A3FF204603B0F0BD7CD60300A9D103003F
:1017700007108007AED1030006600003F2D103001A
:1017800008B52BF065F8BDE8084022F085BD0000E3
:1017900010B5044B03600446FFF7F2FF23F092FC00
:1017A000204610BDCCD6030010B50446FFF7F0FF6D
:1017B00020466C2136F0C9FB204610BD73B5C568C4
:1017C000012D044651D0022D00F0E880002D49D1B2
:1017D000806D10B123F056FCA5658249E06C32F0B3
:1017E000A7FF8149206D32F0A3FF8049606E32F07F
:1017F0009FFF7E49A06E32F09BFF1822002104F16A
:10180000280038F023F925690023FF2284F84030AE
:1018100084F8422063642DBBFFF7B2FF29462EF007
:101820009FFBA06544647249A06D22F074FEA66D12
:10183000FFF7A6FF2B46022201460095304623F013
:1018400015F8A06D282123F0E0F92946A06D33F0AA
:1018500043F86849206632F06BFF21F0FFFA01235C
:101860006061E360607A02B070BD6349C06D32F0C0
:101870005FFF6049206E32F05BFF656921F0EEFA90
:10188000A3699FED5E7A451BEB1807EE903AFBEEDD
:10189000CB7A3C2267EE877A4FF47A76FDEEE77AD0
:1018A00017EE901A91FBF6F090FBF2F302FB130394
:1018B0004EF6602291FBF2F206FB1011C4E90723F9
:1018C0000A2091FBF0F1E06C61624D4932F06DFF4E
:1018D000626A4C49206D32F068FF94F84830002B62
:1018E00038D094F84110012918D994F84030012BD0
:1018F00014D994F94230606E5A1EB2FBF1F301FB29
:1019000013230C2202FB0343626C196B0191D96A09
:1019100000919B6A3C49013A32F047FF94F841201C
:10192000AAB194F8403093B194F94210B1FBF2F3AC
:1019300002FB13130C2202FB034333491A6B01927F
:10194000DA6A00929B6A626CA06E32F02EFF00236E
:1019500084F848302369E06C012B15D1A3691D443C
:101960000223E360294BA5611D8800212B4661619C
:1019700048F2890224F051F92B4648F289020021ED
:10198000206D24F04AF96DE74FF0040348F2890214
:10199000002124F042F94FF00403EEE71C49C06D2A
:1019A00032F0C6FE1B49206E32F0C2FE236923B915
:1019B00021F054FA01236061E3602369022B7FF474
:1019C00051AF124BE06C5E880025334648F2890225
:1019D0002946E560A56124F020F9334648F28902E2
:1019E0002946CDE794D60300ABD10300E979040082
:1019F000391C00009AD603009ED6030000007A44EA
:101A0000F4DA0300B2D60300A2D60300C0D6030066
:101A1000B7D60300BBD60300604B2DE9F34103604A
:101A200040F201130025038102230446C0E9035359
:101A30001822C0E90555C0E90755416045622946AD
:101A4000283038F003F84FF40073A4F84030FF2337
:101A500084F84230656484F84850FFF791FE2946C7
:101A600032F03AFF4E4EE06429464E4B48F28E0269
:101A700024F008F97788E06C3B4648F28902294651
:101A800024F0CBF84849E06C32F052FED4F84C8098
:101A9000FFF776FE6FF02C030146072200934046C5
:101AA0002B4622F0E3FEFFF76BFE294632F014FFCF
:101AB0003B4648F289022065294624F0AEF83B49AE
:101AC000206D32F035FE276DFFF75AFE0323072203
:101AD0000146009338466C2322F0C8FEFFF750FE03
:101AE00029462EF03DFA606544643149606D22F06C
:101AF00012FD676DFFF744FE6FF0090305220146F2
:101B0000009338462B4622F0B1FE606D282123F069
:101B10007CF82946606D32F0DFFE2649E06532F040
:101B200007FEFFF72DFE294632F0D6FE37886066A5
:101B30003B46294648F2890224F06FF8666EFFF7AB
:101B40001FFE1E23014630461B4E00930722322300
:101B500022F08CFE3146606E32F0EAFDFFF710FE97
:101B6000294632F0B9FE3B462946A06648F2890272
:101B700024F053F8A76EFFF703FE372301460093C6
:101B800007223223384622F071FEA06E314632F031
:101B9000CFFD2046A56502B0BDE8F081CCD603009C
:101BA000C0D603001001002094D60300ABD103007F
:101BB000D31B0000B7D60300E9790400062902D13F
:101BC000C3680BB9036170470369B3FA83F35B0918
:101BD000F8E7406CFFF7F2BF062910B5034626D19F
:101BE000C268012A24D190F8424090F84110013493
:101BF00062B292FBF1F401FB14240C2280F8424003
:101C000002FB040400F11C0207CA283484E8070020
:101C100093F8402093F84110914284BF013283F839
:101C200040205A6C01325A64012283F8482010BDCA
:101C3000022A08BF0261FAE7406CFFF7CDBF00003F
:101C40005A280ADC4B280ADC32280ADC064B074AF1
:101C50001928D4BF184610467047054870470548F4
:101C600070470548704700BFE8D60300F4D603006C
:101C7000ECD60300E4D60300F0D60300034A044B7D
:101C8000002814BF10461846704700BFF8D603005E
:101C9000E9790400034A044B002814BF1046184693
:101CA000704700BFFCD60300E9790400034A044BE7
:101CB000002814BF10461846704700BF00D7030025
:101CC000E9790400002343720120704780688B6823
:101CD00098422CBF00200120704710B50446406E8A
:101CE00003689B689847207210BD10B5437A04467C
:101CF00013B12030FFF7F1FF607A10BD022A06D041
:101D0000032A02D0012A00D10160002070470B682D
:101D10000360FAE7022A06D0032A02D0012A00D182
:101D20000160002070470B680360FAE7022A06D0C2
:101D3000032A02D0012A00D10160002070470B68FD
:101D40000360FAE7022A06D0032A02D0012A00D152
:101D50000160002070470B680360FAE7022A06D092
:101D6000032A02D0012A00D10160002070470B68CD
:101D70000360FAE708B52AF06BFDBDE8084022F0E1
:101D80008BBA034608461146184738B5054600F198
:101D90005004AC4209D054F8083C103C002BF8D059
:101DA0000322214620469847F3E7204638BD00002D
:101DB0002DE9FF4106468846FFF7DCFF002132F09F
:101DC0008BFD0121044632F073FD154B0393154B37
:101DD0000293154B0193002501231A46204613490F
:101DE000009532F0E2FC0121204631F09AFFFFF726
:101DF000C1FF2B4601462A462046009522F036FDBB
:101E0000282036F0B3F8D8F804300094052229468B
:101E1000074600F0DDFD3046376004B0BDE8F081D4
:101E200069D7030072D703007ED7030004D70300ED
:101E300010B504460968FFF7BBFF204610BD00003F
:101E40002DE9F04F2DED028B0B69804697B00C46C3
:101E50001A1D03F118000025904203D052F8041B0C
:101E60000D44F9E71A7E93ED078AE36995FBF2F5D5
:101E70001B683E4F1B68082B96BF3D4ADFF8FCB03D
:101E800052F823B0E368FCEEC87A9B69CDED0F7A77
:101E9000B3FBF7F907FB19334FF46167B3FBF7FAAC
:101EA00007FB1A379DF83C3008EE903AFFF762FFC7
:101EB000002132F011FD0121064632F0F9FCE16803
:101EC00060698B7914938B880F934B7ACA7910933E
:101ED0008B7AC97A15921193139109F0A3F9F8EE50
:101EE000E87A119B029338EE678ADFED227A109B25
:101EF0001399019328EE278ACDE90B0BFCEEC87AE3
:101F0000EDB2CDED127A9DF848000A903C200F9B6F
:101F10000895B7FBF0F500FB1577CDE9065703915F
:101F200000931549CDED098ADDE914323046CDE93B
:101F3000049A32F03AFCFFF71DFF0023014600939C
:101F40001A46304622F092FC282036F00FF86368DB
:101F5000009604220121054600F03AFD4046C8F8EB
:101F6000005017B0BDEC028BBDE8F08F805101002E
:101F7000D4D903000000C84286D7030011790400B9
:101F800010B504460968FFF75BFF204610BD00004E
:101F90002DE9F04192B006460BA80F462BF03AFD12
:101FA000FFF7E8FE002132F097FC0121054632F0F0
:101FB0007FFCBC690E99237D627D08919DF84510D8
:101FC0000791109906919DF8441005910D980B9971
:101FD0004FF00008091ACDF824800491217C039168
:101FE000617C0291A17C0191E17C009128460E491F
:101FF00032F0DBFBFFF7BEFE434601464246284671
:10200000CDF8008022F032FC282035F0AFFF7B684D
:10201000009505220221044600F0DAFC30463460C7
:1020200012B0BDE8F08100BF38D8030010B50446F7
:102030000968FFF7ADFF204610BD0000F7B5054663
:102040000F46FFF797FE002132F046FC01210446BF
:1020500032F02EFC20460F4932F0CEFB0121204603
:1020600031F05FFEFFF786FE0023014600931A461B
:10207000204622F0FBFB282035F078FF7B68009497
:1020800005220421064600F0A3FC28462E6003B07A
:10209000F0BD00BFE5D8030010B504460968FFF79E
:1020A000CDFF204610BD08B4F0B50E46114682B0F3
:1020B0000446C81D20F0070000AF07F11C03ADEB7C
:1020C000000D6D4653F8042B3B602846B04704F1E1
:1020D00008030F2805EB00062360786007D900226B
:1020E000391D204635F068FF7B682060A3602068BA
:1020F0003246294635F0B7FF7B68226863600021CD
:1021000020460837D154BD46BDE8F04001B07047C5
:1021100038B50546084B45F8643B0446FFF72AFEF0
:1021200022F0D0FF2846FEF701FD04F10C00FFF776
:102130002CFE204638BD00BFBCD9030010B50446B4
:10214000FFF7E6FF2046682135F0FFFE204610BD70
:1021500038B50546064B45F8203B0446FFF70AFE16
:1021600022F0B0FF2846FFF7D3FF204638BD00BF5E
:1021700000DA030010B50446FFF7EAFF2046882185
:1021800035F0E3FE204610BD2DE9F04397B004463C
:102190004160C4E903231E9B63611F9BA361209BD5
:1021A000E3612F4B05932F4B04932F4B09932F4B38
:1021B00008932F4B0D932F4B0C932F4B11932F4BB9
:1021C00010932F4B15932F4B2F4814932F4B2060B8
:1021D000236240F2011001232385208104F1200EA7
:1021E000029406940A940E941294616204F12C08ED
:1021F00006AA234604F150096F460025A2F1100CEF
:102200009CE8030003F12C0687E8030096E803002E
:102210008CE8030097E8030086E8030052F8081CE6
:10222000596352F8041C986B996310334B4542F87C
:10223000085C42F8040C02F11002DFD10EF16400D8
:102240004146E56784F88050FEF7BCFC84F8805076
:1022500002A8FFF79AFD204617B0BDE8F08300BF43
:10226000311E0000FD1C0000811F0000151D000034
:102270002D2000002D1D000085290000451D0000B7
:10228000992000005D1D000000DA0300BCD90300A6
:1022900073B5C56D0446002D3BD1042927D005290F
:1022A00040F0918090F86000F8B104F1640629468E
:1022B0003046FEF786F860680221FEF769F894F868
:1022C0006030013BDBB204F10C0101EB031184F837
:1022D000603001A8FEF776FC019901953046FEF7C3
:1022E00070F801A8FEF722FC012002B070BD90F842
:1022F0006030032BF8D800F1640629463046FEF71B
:1023000060F860680121FEF743F894F8603001330B
:10231000D8E7012D34D1022920D0032953D190F8D8
:1023200060000028E1D004F1640600213046FEF789
:1023300048F860680021FEF72BF894F86030013B04
:10234000DBB204F10C0101EB031184F8603001A849
:10235000FEF738FC002301990193BFE790F8603045
:10236000032BC1D800F1640600213046FEF729F89E
:1023700060680021FEF70CF894F860300133DFE765
:10238000062920D190F86030032B9ABF0133DBB2CD
:10239000002300F1640580F8603000212846FEF734
:1023A00010F860680021FDF7F3FF94F8601004F165
:1023B0000C0303EB011101A8FEF704FC00230199B3
:1023C000019328468BE700208FE708B52030FFF700
:1023D0005FFF08BDF0B5054606460F460FCD8BB032
:1023E00001AC0FC40FCD0FC42B682360243E3146CF
:1023F00001A8B84706F12405243E50B106F1240592
:102400000FCD06F148040FC40FCD0FC42B68236015
:10241000EDE701AC0FCC0FC50FCC0FC523682B60C7
:102420000BB0F0BD2DE9F04788428AB006460F4652
:1024300090462BD000F1240ABA4527D032465146A7
:102440004046FFF79EFC0AF12409D0B155460FCD56
:1024500001AC0FC40FCD0FC456452B68236006D0C6
:10246000AAEB0602314606F1240037F0D5FA01AD99
:102470000FCD34460FC40FCD0FC42B682360CA465E
:10248000DAE741465046FFF7A5FFF8E70AB0BDE896
:10249000F08782B02DE9F04F02F1FF388BB008EBE6
:1024A000D8784FF0240B05468946164615934FEA17
:1024B00068080C46DA46A0451BDD671C7F000BFB55
:1024C00007F1A1F124021E982A442944FFF759FC80
:1024D00000B1013F0AFB075CBCE80F000AFB045493
:1024E0000FC4BCE80F000FC4DCF8003023603C468A
:1024F000E1E7F30714D4023E06EBD676B4EB660FA1
:102500000ED1671C24237F0003FB0756243E03FBE8
:1025100004540FCE0FC40FCE0FC4336823607C1E4B
:1025200015AF0FCF01AE0FC60FCF0FC63B6833609C
:10253000671E07EBD7777F104FF0240808FB04567F
:10254000A145344613DA08FB075A1E9B01A95046E1
:10255000984760B156460FCE0FC40FCE0FC43368F4
:1025600023607B1E03EBD3733C465F10E6E701ADAF
:102570000FCD0FC40FCD0FC42B6823600BB0BDE887
:10258000F04F02B070470000F0B5164607469E4671
:102590008C4614460FCE95B00BAD0FC50FCE0FC5B0
:1025A00033682B603D460FCD0FC40FCD0FC42B6891
:1025B0002360DEF8003008930CAD0FCD6C460FC4DD
:1025C00095E80F0084E80F00ACEB070C054A0B9B65
:1025D0004FEAAC0C02FB0CF200213846FFF759FF22
:1025E00015B0F0BD398EE3382DE9F04FA1EB0009AD
:1025F00097B0B9F1240F0746884692460B9325DD24
:102600001D4B4FEAA90903FB09F9A9F1020606EBE4
:10261000D67676104FF0240B0BFB06750FCD0DAC64
:102620000FC40FCD0FC42B6823600B9B08930EAD16
:102630000FCD6C460FC495E80F0084E80F004A46A2
:102640000D9B31463846FFF724FF86B94446544572
:102650000FD20B983A462146FFF793FB28B10BABFC
:10266000224641463846FFF78FFF2434EFE7013E0C
:10267000D2E717B0BDE8F08F398EE338F0B50746E2
:102680000C4605460FCF8BB001AE0FC60FCF0FC65D
:102690003F68376026460FCE0FC50FCE0FC5336893
:1026A0002B6001AD0FCD0FC40FCD0FC427600BB051
:1026B000F0BD2DE9F041069F0546384616461C46FA
:1026C0008846FFF75EFB2246A0B131463846FFF749
:1026D00058FB28B131462846FFF7D0FFBDE8F0810E
:1026E000224641463846FFF74CFB08B12146F2E747
:1026F0004146F0E741463846FFF743FB0028F7D153
:10270000224631463846FFF73CFB0028EED1E1E790
:102710002DE9F04F054685B00C4617461E4600F1E0
:1027200024084FF0240A611BB1F5107F13DDA4F1DA
:1027300024039FB933462246214628460396FFF7D5
:1027400053FF243C03AB224621462846FFF71CFFDB
:10275000631B242BF5DC05B0BDE8F08F8A10164909
:1027600000964A4352100AFB025241462846FFF7A0
:10277000A0FF013FC346A1462A4659463046FFF70F
:1027800000FBB0B9A9F124094A4629463046FFF7B3
:10279000F8FA0028F6D1CB4507D3214633463A460E
:1027A0005846FFF7B5FF5C46BDE749465846FFF778
:1027B00065FF0BF1240BDFE7398EE3382DE9F04F8D
:1027C000D1B006460391FFF7D5FA002132F0C4FFDD
:1027D0000321044632F07CFF0821204632F0D8FE67
:1027E0000A221146204621F0FEFF00225C4B1146D2
:1027F000204632F01BFF32220021204633F024F81D
:10280000584B01220021204632F010FF50220121B6
:10281000204633F019F8544B02220021204632F0B2
:1028200005FF11AD5A220221204633F00DF8002297
:102830000721284620F0B8FD4FF0240909FB00F9D4
:1028400005EB0908A845074624D0484A4FEAA903E2
:102850005A43B2FA82F2C2F11F025200444B41467F
:102860002846FFF755FFB9F5107F414A0EDD28468F
:10287000A1A9FFF7D7FDDFF8F890A1ADA84509D0D1
:1028800028464946FFF7A6FD2435F7E74146284686
:10289000FFF7C8FDDFF8DCA0DFF8E4B04FF0000977
:1028A0005FFA89F5AF424BD9242350AA05F10108FC
:1028B00003FB05252F4955F8F43C009310222E4BBD
:1028C0000BA8FFF7F0FB0B9B00224146204632F09D
:1028D000ADFE0BA835F092FB55F8F83C01224146BD
:1028E000204632F0A3FE35F8DC3C0093132B4FF06A
:1028F00010025B4651460BA818D8FFF7D4FB1F49BE
:102900000BA835F0EDFC014605A835F0F2FB0BA84D
:1029100035F074FB2046059B0222414632F086FECC
:1029200005A835F06BFB09F10109B9E7FFF7BBFB1F
:1029300020460B9B0222414632F078FE0BA8F0E7BE
:10294000282035F013FB039B00945B6805220321CC
:10295000054600F03DF83046356051B0BDE8F08FD7
:1029600063DA030078D903007DD90300398EE33898
:10297000CD1C0000E5A7030052E703000CEB0300A9
:102980002A5F040010B504460968FFF717FF2046C8
:1029900010BD407A704708B529F05AFFBDE80840DD
:1029A00021F07ABC10B5044B03600446FFF7F3FF37
:1029B00022F088FB204610BD24DA030010B504463F
:1029C000FFF7F0FF2046282135F0BFFA204610BD62
:1029D00070B543602D4B036040F201130381012A5F
:1029E000049BC36004460D4616464DD9284B03612F
:1029F00003F564034361FFF7CEFF002132F032F9A3
:102A0000032320629022002123F0EDF8206A48F28F
:102A100010239922002123F000F90123206A942237
:102A2000002123F0E0F8206A022204F1100132F0C4
:102A3000ABF8E423B3FBF6F205FB02F10632EF2319
:102A4000881D11442383A383E1836083FFF7A3FFE1
:102A5000002132F007F9032360629022002123F065
:102A6000C2F80C4B606A1B889922002123F0D5F82C
:102A7000606A94220021012323F0B5F8606A0222E3
:102A800004F1180132F080F8204670BD24DA03000A
:102A9000EF00060018DA030008B529F0D9FEBDE8FA
:102AA000084021F0F9BB000010B5044B0360044658
:102AB000FFF7F2FF22F006FB204610BD80DA03008C
:102AC00010B50446FFF7F0FF20462C2135F03DFA03
:102AD000204610BDF7B5364B03600126C260416049
:102AE00006720446FFF7D8FF002131F0F5FE0521FC
:102AF000054631F09BFEF0221146284622F035F8BB
:102B00002C4F00221146284621F06DFE39462846FA
:102B100031F072FEFFF7C0FF002131F0DDFE2649E3
:102B2000A06131F005FEA069314621F0C5FC3223D9
:102B30000093002319460222A06921F097FEFFF7B7
:102B4000ABFF00212DF02EF9002520611E22C821A7
:102B500022F00BF82B462A4620690095294621F0E1
:102B600085FE20690A212DF0A7F9206929466422F3
:102B70002DF0B0F92A46294620692DF0E5F8FFF737
:102B80008BFF294631F0A8FE3946606131F0D0FD57
:102B90006069314621F090FC3C23D4E90410009395
:102BA0000A222B4621F062FE204603B0F0BD00BF92
:102BB00080DA0300E97904003CDA030070B5C368E9
:102BC0001549D3ED027A93ED017AF8EE676AB8EE13
:102BD000477ADFED127A66EEA76A27EE277A054676
:102BE000C6EE877A00F11C0630469FED0D7A67EE3F
:102BF000877AFDEEE77A17EE903A1CB2224637F05C
:102C000035FB6869314631F093FD28690022214681
:102C10002DF09AF8287A70BD4CDA03000000803A53
:102C20000000C84210B504460121406931F040FE61
:102C300060690249BDE8104031F07ABD52DA030004
:102C400010B504460121406931F032FE6069024945
:102C5000BDE8104031F06CBD65DA030038B5C368DB
:102C6000DD68836A022D044609D0032D0ED0012BA6
:102C70001CBF01238362BDE83840FFF79FBF022BD2
:102C800002D0FFF7CFFFA562207A38BD032BFBD01F
:102C9000FFF7D6FFF7E7023910B5044603291BD822
:102CA000DFE801F03439021C012380F839300021BB
:102CB000806921F012FE94F83910E06981F0010179
:102CC00021F00BFE94F83910606921F006FE94F8AB
:102CD0003910E06821F001FE012010BD002180F8CC
:102CE0003910406921F0F9FD94F83910E06821F0BD
:102CF000F4FD94F83910A06981F0010121F0EDFD97
:102D000094F83910E06981F00101E3E70321E06BF9
:102D100009F00FFFE0E70421F9E708B529F098FD75
:102D2000BDE8084021F0B8BA38B505460A4B45F869
:102D3000703B0446FFF7F1FF22F0C4F9284635F056
:102D40005DF904F1580035F059F904F1400035F00F
:102D500055F9204638BD00BF44DE030010B50446D7
:102D6000FFF7E2FF20469C2135F0EFF8204610BD2A
:102D7000D24B2DE9F7430025036000F14803C0E979
:102D8000103500F160030126C0E9163500F1780323
:102D9000C0E91C35C2634160067280F8395080F882
:102DA000485080F8605080F87850C0F8945004463D
:102DB000FFF7B3FF29462DF0D3F8DFF82C93A0617D
:102DC0004464A069494621F0A6FB6FF00908A06998
:102DD0004B22412121F0C9FEA069CDF8008029468F
:102DE0000F23042221F042FDA06932462946142314
:102DF00022F0F9FEB24BA0691F8829463B462922E2
:102E000022F00BFF33232C22A069294622F020FF59
:102E10002946A06931F060FDAA4931F089FC94F897
:102E20003910A069714021F058FDFFF776FF29465F
:102E30002DF096F8E0614464E069494621F06BFBAF
:102E4000E0694B22412121F090FEE069CDF800803D
:102E500029466FF00E03062221F008FDE069324694
:102E60002946142322F0BFFEE0693B462946292269
:102E700022F0D3FE33232C22E069294622F0E8FE1B
:102E80002946E06931F028FD8F4931F051FC94F872
:102E90003910E069714021F020FDFFF73EFF29461F
:102EA0002DF05EF8E0604464E068494621F033FBB1
:102EB000E0684B22412121F058FEE068CDF8008007
:102EC00029460F23042221F0D1FCE068324629462E
:102ED000142322F088FEE0683B462946292222F08E
:102EE0009CFE33232C22E068294622F0B1FE2946BD
:102EF000E06831F0F1FC754931F01AFCFFF70DFF85
:102F000029462DF02DF8606144646069494621F03E
:102F100002FB60694B22412121F027FE6069CDF858
:102F2000008029466FF00E03062221F09FFC6069A5
:102F300032462946142322F056FE60693B46294654
:102F4000292222F06AFE33232C226069294622F0CE
:102F50007FFE2946606931F0BFFC5D4931F0E8FB36
:102F6000FFF7DBFE29462CF0FBFF2061446420695B
:102F7000494621F0D0FA20694B22412121F0F5FD8C
:102F80002069CDF800802B462946052221F06EFCF1
:102F9000206932462946142322F025FE20693B464B
:102FA0002946292222F039FE33232C222069294682
:102FB00022F04EFE2946206931F08EFC4549A06280
:102FC00031F0B6FBFFF7A9FE294631F085FC03215D
:102FD000606331F02BFC14233246606B009329466A
:102FE0000C2321F043FC606B3B4931F0A1FB07212E
:102FF000606B30F096FE676B29F02AFC29F02EFCFE
:103000000146384621F0FAFDFFF787FE294631F0E8
:1030100063FC0421206231F009FC206A314631F062
:103020000FFD6FF00C030722206A009329460C2342
:1030300021F01CFC0721206A30F073FE276A29F07A
:1030400007FC29F00BFC0C3801B2384621F0D6FD04
:103050002249206A31F06CFBFFF75FFE294631F010
:103060003BFC0421606231F0E1FB606A314631F0E3
:10307000E7FC0E230722606A009329460C2321F007
:10308000F5FB0721606A30F04CFE666A29F0E0FB30
:1030900029F0E4FB0C3801B2304621F0AFFD1049B5
:1030A000606A31F045FBFFF738FE294630F0B6FB89
:1030B0000F26E0620B4930F0F7FA17E044DE030018
:1030C000FEDA030098DA03009CDA0300A0DA0300BA
:1030D000A4DA0300B7D60300A8DA0300B4DA0300C9
:1030E000C0DA030010DC03002F3200006FF00E0383
:1030F00003222946E06A009621F0B8FBFFF70DFE97
:10310000294630F08BFB0B49206330F0CDFA206B61
:1031100000966FF02E030322294621F0A7FBE06BF7
:1031200084F83850E02109F004FD204603B0BDE8E2
:10313000F08300BF1CDC0300F0B5224BD0F88810F0
:10314000994287B0054605DD1F49686B31F0F0FAFA
:1031500007B0F0BD41F234729142D0F88C301BDDE3
:103160004FF461643C2691FBF4F704FB1711B1FBAB
:10317000F6F1CDE9007193FBF4F0642290FBF2FCD0
:1031800002FB1C0204FB103393FBF6F30F4903A868
:1031900037F06CF803A9D8E73C24642091FBF4F6DF
:1031A00004FB1611019196FBF0F100FB116193FBFA
:1031B000F4F2009104FB123392FBF0F700FB1722AC
:1031C000E4E700BF30700500E2DA0300EADA03004A
:1031D000062A10B50B46044611461ED182699A4252
:1031E00004D1E06BBDE8104009F0A3BCC2699A426B
:1031F00001D10521F5E7C2689A4201D10421F0E727
:1032000002699A420ED194F89810C06B31B1012135
:1032100009F08FFC002384F8983010BD09F089FC78
:103220000123F8E742699A42F7D10321D9E70A4618
:103230000146406CFFF7CCBF08B542684B689A4224
:103240000AD15AB10968006836F0CAFBB0FA80F0BA
:10325000400980F0010008BD0020FAE70120F8E7EE
:1032600070B52DED028B86B0C16B00F140060446AF
:10327000684609F048FC69463046FFF7DDFF054621
:10328000684634F0BBFE8DB1E16B684609F03BFC4B
:103290006946304634F047FF684634F0AFFE0023FD
:1032A000216C206AC4F88C3031F042FAE16B684638
:1032B00004F1700609F02FFC69463046FFF7BCFFA9
:1032C0000546684634F09AFE8DB1E16B684609F018
:1032D00022FC6946304634F026FF684634F08EFE04
:1032E0000023216F606AC4F88C3031F021FAE16B61
:1032F000684604F1580609F0FEFB69463046FFF7C0
:103300009BFF0546684634F079FE6DB1E16B684677
:1033100009F0F1FB6946304634F005FF684634F0A9
:103320006DFE0023C4F88C30E06B94F8985009F0DF
:10333000FAFB854204D0E06B09F0F5FB84F89800B5
:10334000E06BD4F8905009F011FC854207D0E06B97
:1033500009F00CFCC4E923002046FFF7EDFEE06B0A
:10336000D4F8885009F005FC854207D0E06B09F0DD
:1033700000FCC4F888002046FFF7DEFE94F8983081
:10338000A06A002B44D0244931F0D2F91FF066FD29
:10339000D4F89430A0F5806098422ED394F8383059
:1033A000206B7BB31D4930F07FF994F8383083F0FF
:1033B000010384F83830D4E922329A4224DA1FF02B
:1033C0004DFDD4F89430C31A08EE103AE06B09F0C2
:1033D000ADFBBBEECB8AD4F88C3028EE000ABDEEF4
:1033E000C00A10EE102A1344C4F88C301FF036FDCA
:1033F000C4F894002046FFF79FFE207A06B0BDEC8B
:10340000028B70BD0649CEE7002384F89830EDE7C3
:10341000044931F08DF9F0E79ED603001CDC03006F
:1034200028DC0300B7D60300F8B5084C064656253D
:10343000D4E90017304634F069FF20B1013D04F1B2
:103440000804F5D1024F3846F8BD00BF7CE4030004
:103450005CDE030008B529F0FBF9BDE8084020F068
:103460001BBF000038B505460A4B45F8503B0446E3
:10347000FFF7F0FF21F026FE284634F0BFFD04F1EF
:10348000380034F0BBFD04F1200034F0B7FD2046D5
:1034900038BD00BF34E7030010B50446FFF7E2FF74
:1034A00020466C2134F051FD204610BD2DE9F0433B
:1034B000674B036000F128030025036200F140031D
:1034C0000126C0E90E3500F1580389B0C0E9143572
:1034D000C26141600672456280F8285080F8405011
:1034E00080F858500446FFF7B5FF294631F0F4F94B
:1034F000584FE0602946584B48F28E0222F0C2FB3A
:103500003B88E068294648F2890222F086FB534A4C
:10351000D4F80C90111F04A8029034F0A9FD029B6E
:103520004FF00408CDF80C8002A81D71FFF77CFF56
:103530000146484631F0FCF802A834F05FFD6FF018
:103540003B032A462946E06800932B4621F08EF97A
:10355000FFF780FF294631F0BFF93146206131F095
:1035600065F9D4F8109029F073F929F077F901463C
:10357000484621F043FB2069394931F0D9F82069E8
:10358000314630F0CEFB0A232A46294620690093B3
:103590002B4621F06BF9FFF75DFF294631F09CF9CE
:1035A0003146606131F042F9434648F289022946CA
:1035B000606922F032FBD4F8148029F049F929F02F
:1035C0004DF90146404621F019FB6069254931F06B
:1035D000AFF86069314630F0A4FB3C232A46294607
:1035E000606900932B4621F041F9FFF733FF29462C
:1035F0002CF0D8FB1422A061C82121F0B6FA6FF09C
:103600000903A069009329462B46052221F02EF9D3
:10361000A069294640F22143292222F0FEFA7B8844
:10362000A0692922314622F0F8FAA0694FF4FA7114
:103630002CF042FCA069294664222CF04BFCA069C6
:103640002A4629462CF080FB204609B0BDE8F083CD
:1036500034E7030076E403007400002064DE030016
:1036600065DE030070DE030070B586B0C16900F14D
:1036700020050446684609F0ACFB69462846FFF77A
:10368000DBFD0646684634F0B9FC96B1E169684650
:1036900009F09FFB6946284634F045FD684634F042
:1036A000ADFC2846E668FFF7BFFE0146304631F024
:1036B0003FF8E169684604F1380609F091FB694674
:1036C0003046FFF7B9FD0546684634F097FC75B102
:1036D000E169684609F084FB6946304634F023FD11
:1036E000684634F08BFCA16B206931F021F8E16968
:1036F000684604F1500609F07BFB69463046FFF747
:103700009BFD0546684634F079FC75B1E169684671
:1037100009F06EFB6946304634F005FD684634F02A
:103720006DFC216D606931F003F8E069A56E09F068
:1037300067FB854213D0E06909F062FB002201B209
:10374000A066A0692CF000FBA36EA0695A2BD6BF1F
:10375000044BF8235B882922012122F05EFA207AAB
:1037600006B070BD76E40300002380F832300120FB
:10377000704708B529F06CF8BDE8084020F08CBD12
:1037800010B5044B03600446FFF7F3FF21F09AFCE9
:10379000204610BD94E7030010B50446FFF7F0FF84
:1037A0002046342134F0D1FB204610BD13B5C36848
:1037B0000446B3F90420D0E904012EF0BDFCE3680F
:1037C000A169B3F9062020692EF0B6FCE368E1692F
:1037D000B3F9082020692EF0AFFCE368606A1A682C
:1037E000134930F0E2FFE168206AB1F90630B1F91F
:1037F0000420B1F90810002BB8BF0F33002AB8BF5E
:103800000F320029B8BF0F31091100911B1109496E
:10381000121130F0CAFF0A2300930023206A02220B
:10382000194621F023F894F8320002B010BD00BF11
:103830004CE7030056E70300F7B5404B0360012651
:10384000C2604160067280F832600446FFF791FF63
:1038500000212DF043FDF02200252061114621F0CA
:1038600084F92B46206900950222294620F0FEFFAC
:10387000206931462DF04EFE314A206940F24C431A
:1038800029462DF028FE206929462DF0F1FE2069F9
:103890000A212DF050FE20694FF0F8012DF0F0FDC7
:1038A00004276061394620692DF0EAFD254BA061AF
:1038B000198820692DF0E4FD2A46E061D4E904016D
:1038C0002DF0BEFEA16920692A462DF0B9FE2A46D8
:1038D000E16920692DF0B4FE20692EF008FDFFF7A4
:1038E00048FF294630F0F8FF2B462A462062164949
:1038F000009530F05AFF206A314630F012FA0A2360
:103900000222206A009329462B4620F0AFFF314661
:10391000206A30F0CDFFFFF72CFF294630F0DCFFA6
:10392000216960622B463A46009520F09FFF606A4D
:10393000064930F0FDFE204603B0F0BD94E70300D9
:10394000B4FBFFFF8AE7030056E7030080E70300AC
:10395000007A704708B528F07BFFBDE8084020F0EA
:103960009BBC000010B5044B03600446FFF7F2FF58
:1039700021F0A8FB204610BD78E8030010B50446EE
:10398000FFF7F0FF2046482134F0DFFA204610BD53
:103990002DE9F3416B4B03600126C2604160067262
:1039A00004461746FFF7D6FF002130F095FF0025AB
:1039B0002B46324629462061009520F057FF624988
:1039C000206930F0B5FE2946206930F0AAF9FFF7EA
:1039D000C1FF294630F080FF2B4613222169606128
:1039E000009520F043FF04F120086069314630F073
:1039F0005FFF3346324655490095404636F036FC67
:103A00004146606930F094FEFFF7A4FF294630F08C
:103A100063FF192332462946A06100932B4620F00C
:103A200025FF4B49A06930F083FE2946A06930F09C
:103A300078F9FFF78FFF294630F04EFF2B4613220F
:103A4000A169E061009520F011FF04F12908E06907
:103A5000314630F02DFF3F4A3F49404636F006FCE4
:103A60004146E06930F064FEFFF774FF294630F00C
:103A700033FF322332462946606300932B4620F001
:103A8000F5FE606B314630F013FF606B314630F06D
:103A9000CDFE606BF02121F0B1F8384609F056FBFD
:103AA000054638B12D49606B30F042FE204602B029
:103AB000BDE8F0812A49606B30F03AFEFFF74AFF1B
:103AC00029462CF04DFA2B46A06304222946009586
:103AD00020F0CCFEA36B23495C64A06B20F01BFD9F
:103AE0004CF204032922A06B294622F096F82946BD
:103AF000A06B30F0F1FE1C49E06330F07DFEFFF773
:103B000029FF29462CF02CFA20644464206C00958F
:103B10002B462946062220F0A9FE4FF098032922C1
:103B2000206C294622F079F8206C0E4920F0F3FC35
:103B30002946206C30F0D0FE0C49606430F05CFE09
:103B4000B4E700BF78E80300ACE70300B7E7030081
:103B5000C3E703007ED70300ADEA0300CFE703000D
:103B600002E803009D3B00005FE8030068E80300F3
:103B700038B5836B8B420446154605D122B9C0681F
:103B800009F0ECFA257238BD236C8B42FBD1002D75
:103B9000F9D1E068BDE8384009F0EABA0A460146C2
:103BA000406CFFF7E5BF10B5037A04461BB118302F
:103BB000FCF737FF2072207A10BD022A06D0032AB4
:103BC00002D0012A00D10160002070470B68036019
:103BD000FAE7022A06D0032A02D0012A00D10160A6
:103BE000002070470B680360FAE700002DE9F043FE
:103BF000124D0E4607460FCD93B006AC0FC40FCD45
:103C00000FC495E80F00D6E9035884E80F007368E5
:103C1000D6F814900593742034F0A8F906AACDE9DB
:103C20000292CDE90058059B022200210446FDF7CF
:103C300031F938463C6013B0BDE8F083B4E80300C6
:103C400010B504460968FFF7D1FF204610BD0000FB
:103C50002DE9F043124D0E4607460FCD93B006AC4A
:103C60000FC40FCD0FC495E80F00D6E9035884E8C0
:103C70000F007368D6F814900593742034F076F929
:103C800006AACDE90292CDE90058059B0222012146
:103C90000446FDF7FFF838463C6013B0BDE8F083FA
:103CA000E4E8030010B504460968FFF7D1FF204699
:103CB00010BD000038B50546074B45F8183B0446D3
:103CC00028F0C6FD20F0E8FA21F0FCF92846FCF7C0
:103CD00035FF204638BD00BF1CE9030010B504467F
:103CE000FFF7E8FF2046502134F02FF9204610BDA1
:103CF0002DE9F04F8BB004464160C4E90323149BC7
:103D000063612C4B05932C4B04932C4B099301209E
:103D10002B4B207208932B4B92F821802A4DA361E4
:103D200006AB256004F1180E02940694E16184F854
:103D3000200084F8218004F1240A224604F1200B9B
:103D400099466E464FF0000CA3F1100797E8030068
:103D500002F1240586E8030095E8030087E80300E4
:103D600096E8030085E8030053F8081CD16253F875
:103D7000041C106B116310325A4543F808CC43F809
:103D8000040C03F11003DFD10EF13400C4F844C079
:103D900084F848C00AEB0811FCF714FF84F8488047
:103DA0004846FCF76AFE02A8FCF767FE20460BB007
:103DB000BDE8F08F413C0000BB3B0000A53C00008B
:103DC000D33B0000A4D003001CE9030008B5183061
:103DD000FCF77CFF08BDC0F3C442C0F3423343EAA2
:103DE000C203C0F3C40243EA0223C0F3852043EABE
:103DF0004030704710B54369012B044616D11FF0BF
:103E00002DF8E26A236B801A9B1AF022B3FBF2F3BF
:103E1000B0FBF3F0101A48BF0023608448BF237240
:103E2000A06A022204F11E0130F0AEFE207A10BD1D
:103E300008B528F00DFDBDE8084020F02DBA13B5F7
:103E40000B46044601911022002121F0CCFE019B7B
:103E500020461122002121F0C6FE019B204612229D
:103E6000002121F0C0FE019B13220021204602B058
:103E7000BDE8104021F0B7BE2DE9F74F1C46037096
:103E80000E9B9DF834B043630F9B836380F801B0B1
:103E900092468846DDF830900546FFF7C9FF0021BD
:103EA0002EF00AFD0646CC48FFF795FF292203466F
:103EB0000021304621F0B1FE0A213046FFF7BFFF56
:103EC000052314220021304621F08DFE00231946DF
:103ED0003022304621F087FE32220021304620F089
:103EE00082FCF021304620F089FEBE21304620F0D1
:103EF0008CFE022130462EF041FDFFF799FF002194
:103F000030F0EAFC5B462246B449074630F04DFCEF
:103F100010230093002319460322384620F0A6FC04
:103F2000FFF786FF002130F0D7FC0746AC48FFF7CB
:103F300052FF48F2890203460021384621F06DFE07
:103F4000A84BB8F1000F08BF98460A21404636F04A
:103F5000ADF94FF0200B04463CB120460A2100F891
:103F600001BB36F0A3F90446F6E74146384630F087
:103F7000DFFB0421384630F059FC0321384630F08D
:103F80005FFDB421384620F039FE1023009321460E
:103F900038462346012220F069FCB9F1040FDFF80E
:103FA00068822146304635D030F096FCB8F80030B3
:103FB00048F289020646214621F02FFE01213046B3
:103FC00030F034FC28F044FC28F048FC143801B2EE
:103FD000304620F013FE5146304630F0A9FBFFF783
:103FE00027FF002130F078FC0521044630F01EFC4C
:103FF000F0221146204620F0B8FD0022114620464E
:1040000020F0F1FB2046784930F092FB284603B0BF
:10401000BDE8F08F30F060FCB8F8003048F289025B
:104020000746214621F0F9FD0121384630F0FEFB1C
:1040300028F00EFC28F012FC143801B2384620F0AB
:10404000DDFD3846694930F073FB2146304630F0DB
:1040500043FC23460C2283463946009420F006FC9C
:104060000121584630F0E2FB28F0F2FB28F0F6FB85
:10407000143801B2584620F0C1FD5146584630F080
:1040800057FB214630462EF017FCF021064620F063
:10409000B5FD30465A2120F0B8FD062130462EF0FD
:1040A0006DFC4D48FFF797FE292203462146304616
:1040B00021F0B3FD21463046FFF7C1FE21463046D0
:1040C0002823152221F08FFD214630466FF007038B
:1040D000172221F088FD214630460523142221F0C5
:1040E00082FD234630222146304621F07CFD2146C8
:1040F00030462BF035FFA86145643D49A86920F0A2
:104100000AFAD5F818A028F0A3FB28F0A7FB03278C
:1041100090FBF7F0411F5022504609B220F025FDD8
:104120002146A86930F0D8FB3249686230F000FBC4
:104130004B462922A869214621F06FFD21463046D1
:104140002BF00EFF286245642B49286A20F0E3F922
:10415000D5F8209028F07CFB28F080FB90FBF7F04E
:10416000411F5022484609B220F0FFFC2146286A30
:1041700030F0B2FB2149E86230F0DAFA4FF0F80390
:104180002922286A214621F048FD214630462BF09D
:10419000E7FEE86145641A49E86920F0BCF9EE6978
:1041A00028F056FB28F05AFB90FBF7F0411F5022F5
:1041B000304609B220F0D9FC2146E86930F08CFB8A
:1041C0001049A86230F0B4FAB8F80230E869292240
:1041D000214621F022FD02E72222220041E90300CC
:1041E0008888880034E90300E979040047E903007E
:1041F000194200005AE903003D42000078D1030053
:104200002B4200005EE903007EE90300062902D18B
:10421000806B08F057B97047406CFFF7F7BF06296D
:1042200002D1806B08F087B97047406CFFF7F7BF89
:10423000062902D1806B08F061B97047406CFFF726
:10424000F7BF10B50446FFF7F3FD20F03BFF204613
:1042500010BD10B50446FFF7F4FF20463C21BDE831
:10426000104033F072BE10B50446006808B1FFF785
:10427000F0FF204610BD000038B50546064B45F856
:10428000183B0446FFF7D4FD20F01CFF2846FFF73B
:10429000EAFF204638BD00BF8CE9030010B5044694
:1042A000FFF7EAFF2046342133F04FFE204610BDD1
:1042B00010B500220B680A6004460068236008B14C
:1042C000FFF7C7FF204610BD2DE9F04F1E46A7B0EF
:1042D0004C4B0360002383614377C383309F4A4B79
:1042E00041604FF00109C0E903261546036280F8DA
:1042F00008904761A0F82490044600F11808104681
:1043000006F03CFD29460AA806F0FFFB9DF829B0FF
:10431000BBF1000F56D09DF8283023770AA806F08D
:1043200094FD07900AA806F07CFD0690284606F04A
:1043300038FD9DF82A30DDF894B0059305463C2001
:1043400033F014FEEDB2DDE905320799CDE90276CE
:10435000CDE900B58246FFF78FFD09A94046CDF8AB
:1043600024A0FFF7A5FF09A8FFF77DFF84F81D90A3
:10437000012F23D1FFF75CFD002130F073FC0323F4
:10438000A0629022002121F02EFC204BA06A9B8885
:104390009922002121F041FC3B46A06A9422002191
:1043A00021F021FCA06A022204F11E0130F0ECFB96
:1043B0001EF054FDE06200F5A0502063204627B0B7
:1043C000BDE8F08F284606F0ECFC259B05930546DA
:1043D0003C2033F0CBFDEDB2059B0D4A0093CDE9B7
:1043E00002965B460B4901958246FFF745FD09A9F8
:1043F0004046CDF824A0FFF75BFF09A8FFF733FF85
:10440000B6E700BF8CE903000100EF007EE903007E
:1044100062E9030034E903002DE9F0474569C2B0C1
:104420000446E5B9052907D0062918D0042958D033
:10443000284642B0BDE8F087437FC1688DF89950A7
:10444000419573B1027F08A806F0FCFB702208A911
:1044500026A835F0D3FA9DF8995001232DB90125EE
:10446000E6E708A806F051FBF0E7A06963779DF83E
:1044700098302377002304F11807A36108B1FFF7F0
:10448000E8FE02216068FBF783FF26A806F0DDFC4A
:10449000079026A806F0C5FC0690E06806F081FCAF
:1044A0009DF89A30D4F810A0D4F81490DDF8048167
:1044B000059306463C2033F059FDF6B2DDE905329E
:1044C0000799CDE9029ACDE900860446FFF7D4FCAE
:1044D00025A938462594FFF7EBFE25A8FFF7C3FE74
:1044E000A6E7437FC1688DF8995041956BB1027F73
:1044F00008A806F019FB702208A926A835F07EFA54
:104500009DF899502DB9257292E708A806F0FDFA9A
:10451000F1E70123A06963779DF8983023770023A2
:1045200004F11807A36108B1FFF793FE0121A9E781
:10453000C0F3C442C0F3423343EAC203C0F3C4022F
:1045400043EA0223C0F3852043EA40307047007AF3
:10455000704708B528F07CF9BDE808401FF09CBE04
:104560000E4B10B5044640F80C3B23F0E4FC04F17C
:10457000100023F0E0FC04F1140023F0DCFC04F153
:10458000180023F0D8FC04F11C0023F0D4FCFFF742
:10459000E0FF20F097FD204610BD00BFDCE90300DE
:1045A00010B50446FFF7DCFF2046AC2133F0CDFC0C
:1045B000204610BD2DE9F8431646DDE9082ED3F854
:1045C0000080D6F800C01F464FEACE054FEAC80368
:1045D00003EB4C1305EB421501EB03090D44D9F82D
:1045E00004900C466968894525D1F04501D1944570
:1045F00021D014F80380B8F1000F1CD14900696084
:1046000033683A6804EB431303EBC2025160D0F8FD
:10461000A8200A44C0F8A8200849006A30F0C5F86C
:10462000C5F8048031683B6804EB4114012004F8AC
:104630003300BDE8F8830020FBE700BFA4E90300D6
:1046400010B5002BDDE9024001DB834203D1002AD3
:104650000FDBA2420DD0C00000EB4410084401EB78
:10466000421101EBC30144684C6000234360012008
:1046700010BD0020FCE700002DE9F04F8BB0DFF803
:10468000B8B0039107460026039B4FF0000803EBE8
:104690004619D9F80430D7F824A0B4B21FFA88F527
:1046A000F3B110220DEB020000935946204BFDF7A9
:1046B000FAFC5046049B2A46214630F0B7FF04A876
:1046C00033F09CFCD9F80430786A082B0FD8082BFB
:1046D00013D8DFE803F01412261226121212280053
:1046E000144B2A462146504630F0A0FFEAE7202B23
:1046F0001BD0402B19D0102B15D0052300E001232F
:104700002A46214608F1010831F0E2F8B8F1040F19
:1047100009F10809BDD10136042EB5D10BB0BDE8B1
:10472000F08F0223ECE70323EAE70423E8E700BF66
:10473000B6E90300E9790400E5A703002DE9F84F85
:10474000D0E9009A88469346AAEB09016FF07042BF
:10475000B2EBE10F07464FEAE10302D1234833F001
:104760001CFC012B1C4638BF0124E418A8EB0906E9
:104770003AD23CB1944228BF1446E00033F0F6FB35
:10478000054600E025469BE80300AB1983E80300DB
:10479000002309EB030290450ED108362E44002376
:1047A00003EB080292450FD092E8030006EB030CDE
:1047B0008CE803000833F3E792E8030005EB030CF1
:1047C0008CE803000833E4E7AAEB08084644B9F193
:1047D000000F02D0484633F0B6FB05EBC404C7E92E
:1047E0000056BC60BDE8F88F1446C6E7B9E903007F
:1047F0002DE9F041002486B0CDE903440546059437
:1048000000F12C070DF10408002657F8363063B983
:10481000049B059A9342CDE901463FD098E80300F6
:1048200083E80300049B083304930136042EECD183
:104830000134042C07F12007E6D1DDE90343A3424C
:1048400032D035F033FCDDE90332D21AD310B0FB9D
:10485000F3F202FB130304EBC30254F83360546811
:1048600035F024FC642304EB860490FBF3F202FB96
:1048700013035A2B05EBC404B4BF02230423E362E1
:1048800005F128012846FFF7F7FE0124039808B137
:1048900033F059FB204606B0BDE8F0814246194688
:1048A00003A8FFF74BFFC0E70024EFE72DE9F04F27
:1048B000CF4B416004464FF0010B85B080220021B0
:1048C00004F10C064FF0000A80F808B040F8283BCD
:1048D00035F0BCF804F110053046C4F8A8A004F186
:1048E000140923F08FFA284604F1180823F08AFAF5
:1048F000484604F11C0723F085FA404623F082FA6B
:10490000384623F07FFABB48FFF712FE39210246F2
:10491000304623F0B1FB03223021304623F068FB00
:10492000FF222C21304623F0EBFBB348FFF700FEBB
:1049300029210246304623F09FFB192210213046E0
:1049400023F056FB524648F28901304623F094FB8F
:10495000A848FFF7EDFD39210246284623F08CFBDD
:1049600028460322302123F043FBFF222C21284636
:1049700023F0C6FBA148FFF7DBFD292102462846AC
:1049800023F07AFB28461922102123F031FB5246EE
:1049900048F28901284623F06FFB9648FFF7C8FDCF
:1049A00039210246484623F067FB4846032230215E
:1049B00023F01EFBFF222C21484623F0A1FB904848
:1049C000FFF7B6FD29210246484623F055FB192280
:1049D0001021484623F00CFB8648FFF7A9FD39213A
:1049E0000246404623F048FB03223021404623F094
:1049F000FFFAFF222C21404623F082FB8148FFF77B
:104A000097FD29210246404623F036FB192210214A
:104A1000404623F0EDFA7748FFF78AFD3921024638
:104A2000384623F029FB38460322302123F0E0FAF0
:104A3000FF222C21384623F063FB47F6C550FFF7D1
:104A400077FD29210246384623F016FB1922102152
:104A5000384623F0CDFAFFF77CFD514630F07CFE5E
:104A600032466062594621F099F82A46606A02216E
:104A700021F094F84A46606A032121F08FF8606AB9
:104A80004246042121F08AF83A46606A052121F065
:104A900085F8606A042130F01BFE0421606A30F062
:104AA00077FD656A27F0D4FE27F0D8FE0028B8BF4E
:104AB000033040F38F020021284630F0C5FE656ABE
:104AC00027F0C6FE27F0CAFE0028B8BF033040F327
:104AD0008F020121284630F0B7FE656A27F0B8FE44
:104AE00027F0BCFE0028B8BF033040F38F0202213C
:104AF000284630F0A9FE656A27F0AAFE27F0AEFE30
:104B00000028B8BF033040F38F0203212846002558
:104B100030F09AFE606A00952B46052229461FF068
:104B2000A5FE606A294620F0D7FA04F12C07A946B1
:104B300000261FFA85F847F83690B2B2606A0392F1
:104B40000123414630F0C4FE0136039A606A012316
:104B5000414630F08AFE042EEDD10135042D07F1D7
:104B60002007E5D12046FFF743FE2046FFF740FE31
:104B7000FFF7EFFC00212FF0AFFE2062054627F083
:104B800067FE27F06BFE0146284620F037F8206AC2
:104B900007212FF0C6F80A23009300231946206A44
:104BA00001221FF063FE206A01212FF081FED4F85C
:104BB000A8201549206A2FF0F8FDFFF7CAFC002154
:104BC0002FF08AFE052105462FF030FEF022114617
:104BD00028461FF0CAFF0022114628461FF003FE98
:104BE00028460A492FF0A4FD204605B0BDE8F08F05
:104BF000DCE90300A0ADBB00B4C0CD00C6DFEF0010
:104C00006392EF004261F700A4E90300E979040030
:104C10002DE9FF47044603460022803083F8282010
:104C200083F8302083F8382083F8402020338342F3
:104C3000F4D10239032900F23B81DFE811F00400CE
:104C40005300A000EC0000252E46A946A846CDF84A
:104C500008900135029A032A3CDC05EB820304EB41
:104C6000C303DB6A83B304EB42114346CDF80C80E7
:104C70002C314FF0000C4FF0FF3751F8330038B9AA
:104C800003F1FF3E1F464FF0010C0BB37346F4E7F0
:104C9000BCF1000F00D00393CDE9002503AB02AABD
:104CA00004F128012046FFF785FC002818BF0646BE
:104CB000029A3B46CDE9002504F128012046FFF782
:104CC000BFFC002818BF0646029B01330293C1E7D0
:104CD0000746EDE7032DB9D1002E4CD1012004B0D9
:104CE000BDE8F08700250326A846771ECDF808808A
:104CF000029A032A3ADC07EB820304EBC303DB6A64
:104D00006BB304EB421C03960CF1240C33464FF0BA
:104D1000000E4FF0FF31042B8946194613D00133A2
:104D20005CF83300F8B1BEF1000F00D00391CDE97B
:104D3000002703AB02AA04F128012046FFF73AFC42
:104D4000002818BF0546029A4B46CDE9002704F11A
:104D500028012046FFF774FC002818BF0546029B77
:104D600001330293C4E74FF0010ED4E73E46002F13
:104D7000BBD1002DB2D02046FFF73AFDAEE70025AB
:104D80002E46A946A8460135CDF808904FEA850A77
:104D9000029A032A3CDC0AEB020304EBC303DB6A3E
:104DA00083B304EBC2014346CDF80C802C314FF0A5
:104DB000000C4FF0FF375801085838B903F1FF3E97
:104DC0001F464FF0010C0BB37346F4E7BCF1000F24
:104DD00000D00393CDE9005202AB03AA04F12801ED
:104DE0002046FFF7E7FB002818BF0646029B3A461D
:104DF000CDE9005304F128012046FFF721FC0028EB
:104E000018BF0646029B01330293C1E70746EDE750
:104E1000032DB7D160E700250326A846771ECDF8FD
:104E200008804FEA8709029A032A3DDC09EB020356
:104E300004EBC303DB6A83B304EBC20003960C30BC
:104E400033464FF0000C4FF0FF31042B8A461946D1
:104E500017D001334FEA431E50F80EE0BEF1000FA9
:104E60001FD0BCF1000F00D00391CDE9007202AB5E
:104E700003AA04F128012046FFF79CFB002818BF75
:104E80000546029B5246CDE9007304F128012046F5
:104E9000FFF7D6FB002818BF0546029B013302939B
:104EA000C1E74FF0010CD0E73E46002FB6D160E7D6
:104EB000002014E708B527F0CBFCBDE808401FF040
:104EC000EBB9000010B5064B03600446FFF7F2FF94
:104ED00020F0F8F820690E2109F078FF204610BD77
:104EE00074EA030010B50446FFF7ECFF20462821C2
:104EF00033F02BF8204610BD37B5C3689D686A1E95
:104F0000012A0446406916D80D492FF011FC032DE3
:104F100096BF0C4B0C4953F82510E0692FF008FCA4
:104F20000A23E0690093616900230D221FF09EFCB3
:104F3000207A03B030BD1A7B04492FF036FCE6E737
:104F4000AAD103005CEA0300E9790400F4E9030054
:104F5000406A11B102492FF0EBBB0249FBE700BFE9
:104F6000F9E90300FEE90300F7B51D46012341609E
:104F700003729668414B0360371EC0E9032504465F
:104F800018BF0127FFF796FF00212FF0A5FC3C4B2F
:104F9000606148F28E02002120F074FE6069002EEC
:104FA00065D04FF0040348F28902002120F035FE5D
:104FB000344960692FF0BCFB6FF027030093002396
:104FC0001A46194660691FF051FCFFF773FF002174
:104FD0002FF082FC2C49A0612FF0AAFB6FF0130385
:104FE0000A22D4E90510009300231FF03FFCFFF7CD
:104FF00061FF00212FF070FC40F2214348F289024A
:10500000E061002120F009FE2049E0692FF090FBCB
:105010000A230D226169E069009300231FF026FC3A
:10502000FFF748FF00212AF09BFF20624464206ABA
:1050300032211FF0EAFD1649206A1FF06CFA0021A8
:105040000B46206A009105221FF010FC0021206A07
:105050002FF042FC394660622046FFF779FF1EB10F
:105060000F21284609F0B2FE204603B0F0BD094BDF
:1050700048F289021B88314698E700BF74EA0300B2
:1050800010010020AAD1030004EA030013EA030080
:10509000015100005AEA0300062970B504462BD1DD
:1050A000C0688568BDB90AF0ACFEE368996800394C
:1050B00018BF01212046FFF74BFF20690F2109F09F
:1050C00085FE4FF00403606948F28902BDE8704034
:1050D000002120F0A2BD0AF09DFEE3689968003926
:1050E00018BF01212046FFF733FF20690E2109F088
:1050F0006DFE024B1B88E6E770BD00BF5AEA030055
:10510000406CFFF7C9BFC0F3C442C0F3423343EA67
:10511000C203C0F3C40243EA0223C0F3852043EA7A
:1051200040307047007A70470120704708B527F07B
:105130008FFBBDE808401FF0AFB8000038B50E4B3C
:1051400003600446FFF7F2FF1FF0BCFFFFF7EEFF1E
:1051500005460020FFF7D7FF2922034600212846F5
:1051600020F05BFD206906F029F8E0680E2109F0C7
:105170002DFE204638BD00BF94EA030010B504465A
:10518000FFF7DCFF2046202132F0DFFE204610BD75
:10519000F0B5044685B018460127344B2360C4E9B6
:1051A00003206160277227771646039006F003F804
:1051B0000321039805F0B6FFFFF7B8FF05466FF02F
:1051C0007F40FFF7A0FF292203460021284620F058
:1051D00024FDFFF7ABFF00212FF07EFB0546606149
:1051E0000020FFF790FF48F289020346002128467D
:1051F00020F013FD1E4B606948F28E02002100254D
:1052000020F040FD60691B492FF0F6FA2B462A4634
:105210002946606900951FF029FBFFF787FF2946A3
:105220002FF05AFB0521A0612FF000FBF022A069AE
:1052300011461FF09AFC2A46A06929461FF0D3FAAE
:10524000A0690D492FF074FAA06939461FF04FF993
:10525000A3690A495C64A0691FF05DF930460F211B
:1052600009F0B4FD204605B0F0BD00BF94EA03008C
:1052700078010020F4DE0300E9790400FD5200000B
:1052800070B583698B42054637D1062A35D1047F34
:1052900084F001040477CCB1FFF748FF04466FF0B7
:1052A0007F40FFF730FF292203460021204620F0EF
:1052B000B4FC0020FFF727FF6C69034648F289021F
:1052C00000212046BDE8704020F0A7BCFFF72EFF6C
:1052D00006462046FFF717FF29220346214630469F
:1052E00020F09BFC6FF07F40FFF70DFF6D690346D8
:1052F00048F2890221462846E4E770BD0A46014685
:10530000406CFFF7BDBF007A704708B527F0A0FAE0
:10531000BDE808401EF0C0BF10B5044B0360044652
:10532000FFF7F3FF1FF0CEFE204610BDC0EA0300DA
:1053300010B50446FFF7F0FF2046482132F005FE85
:10534000204610BD2DE9F74FDDF83080436001267F
:10535000954B03600672C0F80C800D461746044654
:10536000FFF7D3FF4FF000032922002120F055FC66
:10537000B74288F822504CD98C4B236303F5640361
:105380006363FFF7C2FF00212FF06CFC032320644E
:105390009022002120F027FC206C48F21023992253
:1053A000002120F03AFC3346206C9422002120F0AA
:1053B0001AFC206C022204F130012FF0E5FBE423FB
:1053C000B3FBF7F255430632EF23A91D154423879B
:1053D000A3876187E587FFF798FF00212FF042FC44
:1053E000032360649022002120F0FDFB704B606C71
:1053F0001B889922002120F010FC606C942200216F
:10540000334620F0F0FB606C022204F138012FF0EB
:10541000BBFBFFF77AFF00212DF04EFA0023064672
:1054200019462C2220F014FC0A23102200213046B9
:1054300020F0D9FB0A2311220021304620F0D3FBB3
:105440000A2312220021304620F0CDFB0A2313222A
:105450000021304620F0C7FB0523142200213046EE
:1054600020F0C1FB002319463022304620F0BBFB60
:105470000022114630461FF0B6F927F0E9F927F06F
:10548000EDF90F3801B230461FF0B8FB27F0E0F914
:1054900027F0F4F9014630461FF0B7FB02213046F1
:1054A0002DF06CFADFF808910D9FDFF80CA1DFF802
:1054B0000CB104F1200304F110050193BB6845F819
:1054C000043B002B47D0002130462AF049FD33230E
:1054D000E8602C22002120F0BBFBE86814230122A5
:1054E000002120F080FB2922B9F80230E868002171
:1054F00020F093FBD5F80C8027F0AAF927F0AEF93D
:10550000193801B240461FF079FBE86834211FF0DA
:105510007CFBE86851461EF0FEFFE86806212DF08E
:105520002DFAEB685C640021E8682FF0D5F948F2A9
:105530008902B9F804308046002120F06EFB3968FA
:1055400040462FF059F90021E8682FF0C5F97A6834
:1055500059462FF02AF9019B9D4207F10C07ADD166
:10556000FFF7D3FE00212FF0B7F9052105462FF0F4
:105570005DF927F06DF927F071F9019027F068F9CE
:1055800027F07CF90199024628461FF0EEFA002226
:10559000114628461FF027F9284606492FF02CF916
:1055A000204603B0BDE8F08FC0EA0300EF0006001C
:1055B000B0EA0300E9790400F3550000ACEA030007
:1055C000072A38B5044610D100F1100300F120027B
:1055D00053F8040B50B1DD68A94207D101460122FE
:1055E0006068FBF718FA0023237238BD9342EFD1AD
:1055F000FBE70A460146406CFFF7E2BFC0F3C44236
:10560000C0F3423343EAC203C0F3C40243EA0223B5
:10561000C0F3852043EA40307047007A704708B5F0
:1056200027F016F9BDE808401EF036BE10B5074B4E
:1056300003600446006A28F06BFB606A28F068FB90
:10564000FFF7EDFF1FF03EFD204610BD60EB0300AD
:1056500010B50446FFF7EAFF2046302132F075FC12
:10566000204610BD10B5024600F114040023A242EA
:1056700003D052F8041B0B44F9E7007D93FBF0F0D4
:1056800010BD38B5C5680446281DFFF7EBFF40B2D2
:10569000002884F8290022DB95F8242094F928308A
:1056A0007AB163280DDC01335BB2632B11DC84F823
:1056B000283094F92810A0690022BDE838402AF06B
:1056C00043BB984207DB94F928309842F1DD01335F
:1056D000EDE70023EBE7013B84F82830F3E738BD22
:1056E000C068FFF7CEBF000030B5044685B0C06883
:1056F00005F02AF9E568281DFFF7B4FF43B284F8E6
:105700002930EA69E262002B59DB95F82420A06970
:10571000002A38D0632B36DC01214FF0F803292210
:1057200020F07BFA2A49E0692FF066F894F92920E5
:10573000284960692FF039F81423D4E90610009342
:105740000D2200231FF092F8D4ED0B7A2249206934
:10575000BCEEE77A8DED037A9DF80C2007EE102A57
:10576000B8EEC77A77EEC77A9FED1C7A67EE877A34
:10577000FCEEE77ACDED037A9DF80C3005B0BDE87C
:1057800030402FF012B8642B07D101214FF4F853A9
:10579000292220F042FA1249C5E7092B07DC114BF8
:1057A00001211B88292220F038FA0F49BBE701218B
:1057B0004FF00403292220F030FA0C49B3E7E069E6
:1057C0000B492FF019F80B4960692EF0B1FFB3E7D0
:1057D000D8EA030025EB030047EB03000000C842B2
:1057E000E9EA030056EB030002EB030011EB0300B0
:1057F0002CEB030043EB0300C068FFF775BF00000C
:1058000070B57F4B2DED028B03604FF47F43012673
:105810000385002384B00446C2604160C3620672FF
:10582000101D1546FFF71EFFEB69E36284F829009F
:10583000FFF7F5FE00212AF0B5FA0F22A061C8217A
:105840001FF093F9A069642200212AF043FB0A2388
:10585000009300231A461946A0691FF007F8A069B3
:105860004FF4FA612AF028FB47F6FF733246002115
:10587000A06920F0B8F96348A569FFF7BFFE2922A7
:1058800003460021284620F0C8F9FF232C220021DE
:10589000A06920F0DDF94FF47F00FFF7AFFEA569A6
:1058A000034629223146284620F0B7F9002294F910
:1058B0002910A0692AF048FAFFF7B1FE00212FF065
:1058C0000BF85149E0612EF097FFE06931462EF068
:1058D00028FA14230D22D4E90610009300231EF0A9
:1058E000C5FFFFF79CFE00212EF0F6FF48F28E0266
:1058F000464B6061002120F0C5F994F92920002A67
:1059000078DB434960692EF050FF606900212EF07A
:1059100008FA6FF03B03009300231A4619466069AA
:105920001EF0A4FF94ED0B8AFCEEC87ACDED037A4D
:105930009DF80C50FFF773FE00212EF0CDFF0646B8
:1059400020613448FFF75AFE48F2890203460021DD
:10595000304620F062F907EE905AF8EEE77A2A46D0
:1059600038EE678ADFED2C7A20692C4928EE278AE9
:10597000FCEEC87ACDED037A9DF80C302EF015FFC1
:10598000206901212EF0CDF95F23009300231A46F0
:10599000194620691EF06AFFFFF741FE00212EF034
:1059A0009BFF052105462EF041FFF02211462846B7
:1059B0001FF0DBF80022114628461EF014FF28468F
:1059C00017492EF019FF234616491748022228F0DE
:1059D00059F92346206202224FF47A71134828F0C5
:1059E00051F960622046FFF77FFE204604B0BDEC0F
:1059F000028B70BD0E4960692EF09AFE85E700BFEC
:105A000060EB0300222222002CEB03001001002097
:105A100025EB030000A6C6000000C84247EB0300C8
:105A2000E979040020A10700F9570000E1560000C1
:105A300043EB0300C0F3C442C0F3423343EAC20362
:105A4000C0F3C40243EA0223C0F3852043EA403096
:105A50007047000013B5C3680F491A680262044614
:105A600040692EF0A2FE6FF01303009300231A4644
:105A7000606919461EF0FAFE236AE0694FF4FA7174
:105A8000594323691B69B1FBF3F109B229F027FBE4
:105A9000207A02B010BD00BFE1D8030008B526F09F
:105AA000D7FEBDE808401EF0F7BB000010B5044B60
:105AB00003600446FFF7F2FF1FF004FB204610BD11
:105AC00090EB030010B50446FFF7F0FF20462421B9
:105AD00032F03BFA204610BD2DE9F3411F464FF04E
