:1000000000000120D1130000F9130000FB130000D1
:10001000FD130000FF1300000114000000000000A9
:10002000000000000000000000000000D9020000F5
:100030000514000000000000F9020000091400008F
:10004000651500000B1400000B140000E9100000FF
:100050000B1400000B140000C12D00000B14000055
:100060000B1400000B1400000B1400000B14000014
:100070000B1400000B1400000B1400000B14000004
:100080000B140000590300000B1400000B140000B7
:100090000B1400000B1400000B1400000B140000E4
:1000A0000B1400000B1400000B1400000B140000D4
:1000B0000B1400000B140000000000000000000002
:1000C0000B1400000B1400000B1400000B140000B4
:1000D0000B1400000B1400000B14000000000000C3
:1000E0000000000000000000000000000000000010
:1000F0000000000000000000000000000000000000
:1001000000000000000000000000000000000000EF
:1001100000000000000000000000000000000000DF
:1001200000000000000000000000000000000000CF
:1001300000000000000000000000000000000000BF
:1001400000000000000000000000000000000000AF
:10015000000000000000000000000000000000009F
:10016000000000000000000000000000000000008F
:10017000000000000000000000000000000000007F
:10018000000000000000000000000000000000006F
:10019000000000000000000000000000000000005F
:1001A000000000000000000000000000000000004F
:1001B000000000000000000000000000000000003F
:1001C000000000000000000000000000000000002F
:1001D000000000000000000000000000000000001F
:1001E000000000000000000000000000000000000F
:1001F00000000000000000000000000000000000FF
:1002000010B5054C237833B9044B13B10448AFF350
:1002100000800123237010BD780000200000000042
:10022000FC37020008B5034B1BB103490348AFF389
:10023000008008BD000000007C000020FC370200A8
:10024000A3F5803A704700BF174B002B08BF134B34
:100250009D46FFF7F5FF00218B460F461348144AD1
:10026000121A02F0B7FF0E4B002B00D098470D4B2F
:10027000002B00D098470020002104000D000D48FD
:10028000002802D00C48AFF3008002F071FF20007C
:10029000290001F041F802F057FF00BF00000800FC
:1002A0000000000000000000000001207800002095
:1002B000AC46002000000000000000000548006877
:1002C00080F3088862B661B6BFF34F8FBFF36F8FBC
:1002D00000DF00BF00000000064B19680868B0E8A6
:1002E000F04F80F30988BFF36F8F4FF0000080F369
:1002F0001188704700050020EFF30980BFF36F8F6E
:10030000144B1A681EF0100F08BF20ED108A20E968
:10031000F04F10604DF8043D4FF0400080F311881D
:10032000BFF34F8FBFF36F8F01F02AFF4FF0000034
:1003300080F3118808BC19680868B0E8F04F1EF017
:10034000100F08BFB0EC108A80F30988BFF36F8FDD
:10035000704700BF0005002073B5194B00261E60D2
:100360001B680193019B00F0FDF8164BD3F8044580
:10037000C3F8006103F5807305461B680093009B7A
:1003800001F0AEFD231A23F07F4424F0010323B1D2
:1003900001F0DEFF022818BF01240026013C0BD229
:1003A00026B1094B4FF080525A6040BF284602B038
:1003B000BDE8704000F0DAB801F0A0FD0643EDE7BB
:1003C000401101400010014000ED00E008B50020A0
:1003D00001F054F80A4B0B491F22C3F808250122EB
:1003E000C3F804230A601A600222C3F84423064BB0
:1003F000E02283F811234FF400321A6008BD00BFD9
:10040000001001400810014000E100E07FB5044603
:1004100072B62A4ED6F8045501F07AFF334600280A
:1004200049D0274A944294BF2A19AA1822F07F4241
:100430000121C6F80813C6F84025224A00211160A0
:100440001168019101994FF48031C6F80413BFF38C
:100450004F8F94B1F1EE101A21F09F01E1EE101AC6
:10046000F1EE101A18494020C1F8840120BFD1F8DC
:100470000041D1F804012043F8D04FF48031C3F893
:1004800008130021116012680392039A0F4A116049
:1004900012680292029A0122C3F80423D3F80405D9
:1004A000094B401B4FF4003230F07F40C3F88021ED
:1004B00001D001F01BFD62B604B070BD0010014018
:1004C000FDFFFF004011014000E100E0001101408C
:1004D00072B6FEE74FF0807340E90213054B40F817
:1004E0000C3C6FF0020340F8202C40F8243C4438C8
:1004F000704700BFD10400000E4C08B5E02384F81B
:100500002230FFF763FF0C4B00221A60D4F88830CA
:100510000A4A43F47003C4F88830536843F04043F8
:100520005360236943F010032361FFF7C7FE72B6DF
:10053000FEE700BF00ED00E09400002030EF00E097
:1005400072B6024A136801331360704794000020AA
:10055000034A1368013B136003B962B6704700BFDA
:1005600094000020EFF3108072B6704780F310887B
:10057000704700220160027142718271704710B5AC
:1005800086B09F238DF80F3003230093002404AB23
:1005900001220DF10F010068ADF810408DF81240F6
:1005A00000F047FB049B2046DAB262F30700C3F376
:1005B000072262F30F20C3F3074363F3174006B02B
:1005C00010BD10B50446FFF7DAFFC0F307236371CF
:1005D000C0F307432071A37110BD00001FB50D4B80
:1005E000039300238DF80B300123009304460DF193
:1005F0000B03042203A9006800F01BFB2046FFF751
:10060000BEFFC0F307232071C0F307406371A071E0
:1006100004B010BDAB0102031FB5012200920523F7
:100620008DF80E300DF10E010DF10F03006800F092
:1006300000FB9DF80F0005B05DF804FB08B5FFF75F
:10064000EBFF00F0010008BD08B5FFF7E5FFC0F3C0
:10065000400008BD1FB506238DF80F30002300931E
:1006600001220DF10F01006800F0E3FA05B05DF81A
:1006700004FB1FB520238DF80C300B0C49BA04463F
:100680008DF80D30ADF80E10FFF7E4FF2046FFF7B0
:10069000DBFF18B9012001F017FDF7E70023206800
:1006A0000093042203A900F0C4FA2046FFF7C6FF16
:1006B00018B1012001F008FDF7E704B010BD2DE9E5
:1006C000F043074685B00D4690461E464FF002099E
:1006D0006EB325F0FF04641B04F580742B0CB44248
:1006E0008DF80D3038466BBA28BF34468DF80C9023
:1006F000ADF80E30FFF7AEFF3846FFF7A5FF18B98B
:10070000012001F0E1FCF7E7386800944346042239
:1007100003A900F09AFA3846FFF790FF18B10120BC
:1007200001F0D2FCF7E72544A044361BD0E705B022
:10073000BDE8F08310B513684171C0F806300021A0
:100740009388C1600446438101610322012000F0C7
:10075000FFFFA061204610BD10B5417A4FF0A042C6
:10076000012303FA01F1C2F80815417A01F5E0719D
:10077000032442F82140817A8B40C2F80C35837AF9
:1007800003F5E07342F82340C17A01F5E0710023DC
:1007900042F8213042791AB1012A47D0002010BD19
:1007A000244B03600368427AC3F808250368827A01
:1007B000C3F80C250368C27AC3F81025037A002B0E
:1007C000ECD103684FF00042C3F824258379002B55
:1007D000E4D1C279032AE1D801685200C1F8542556
:1007E0000268C2F810310268C2F820310268C2F80B
:1007F000183102684021C2F8041302680224C2F8CA
:10080000044302684FF40024C2F80443026807243A
:10081000C2F80045084A82F8031308211160806974
:100820001A46194600F0AEFF0120B8E74FF040230A
:10083000B7E700BF0030004000E100E070B5D1F83C
:100840000855164C03F5A27644EA0524144D45F8E4
:100850002640D4009B0004F1804404F5F83403F1F1
:10086000804303F5C243C4F8103501F11403C4F802
:100870001435012303FA02F20A4BC3F80425036876
:100880000022C3F818214023C1F808330223C1F81D
:1008900008334FF40023C1F8083370BD0100030092
:1008A0000060004000F0014030B503F5A2730F4D29
:1008B000002445F82340D30003F1804303F5F833C7
:1008C000C3F81045C3F81445094BC3F80425036861
:1008D000C3F818414023C1F804330223C1F804339C
:1008E0004FF40023C1F8043330BD00BF0060004066
:1008F00000F00140704782B0036801910092019AB4
:10090000C3F844250368009AC3F848250268002309
:10091000C2F850350268C2F834350268C2F838357A
:100920000268C2F840350268C2F8183102B0704758
:1009300037B5C36804468BB105698DB1FF2D28BF5B
:10094000FF252A46C168FFF7D6FFC3682B44C36062
:1009500002690368521B026101221A6103B030BDB3
:1009600043697BB14069019501A901F015FE019B26
:1009700043B1124B4FF080525A6040BFBFF34F8FCC
:10098000BFF36F8F2279012393404FF0A04201A95A
:10099000C2F808350023E360A069019300F0ACFFC2
:1009A000019B002BDAD0054B4FF080525A6040BFBC
:1009B000BFF34F8FBFF36F8FD0E700BF00ED00E0B4
:1009C00084B003910292026801930023C2F8443577
:1009D0000268C2F848350268C2F8503502680199C9
:1009E000C2F8341502680499C2F838150268C2F8D2
:1009F00040350268C2F8183104B070472DE9F04163
:100A0000044688461F461646002A47D04FF0FF315D
:100A1000806901F017F801F095FC0023012F606157
:100A2000216884F804801A46204634D1FFF706FF77
:100A3000237901254FF0A04205FA03F3C2F80C35E3
:100A4000E66027612669E168FF2E28BFFF2632464F
:100A50002046FFF750FF23699B1B2361E268236850
:100A60003244AF42E2601D6113D12268D2F81831DE
:100A7000002BFBD023794FF0A042012505FA03F3A8
:100A8000C2F808350023A069E3601A46194600F051
:100A900079FE284603E0FFF707FFC9E71046BDE8E7
:100AA000F0812DE9F34104460025884680694FF026
:100AB000FF3116461F4600F0C5FF216884F8048008
:100AC0002B462A4620466561FFF7EEFE236840224A
:100AD000C3F8082323680222C3F8082323684FF4CD
:100AE0000022C3F8082323794FF001084FF0A042F9
:100AF00008FA03F3C2F80C353146E5603A46256141
:100B0000FFF7F9FE2368C3F810802268D2F8183185
:100B1000002BFBD0099B00933A46089B31462046A8
:100B2000FFF74EFF236801221A612268D2F81831BC
:100B3000002BFBD0237901254FF0A04205FA03F3E7
:100B4000C2F808350023A0691A46194600F01AFEBB
:100B5000284602B0BDE8F0812DE9F04104460025A9
:100B6000884680694FF0FF3116461F4600F06AFF45
:100B7000216884F804802B462A4620466561FFF7E9
:100B800093FE23684022C3F8082323680222C3F897
:100B9000082323684FF40022C3F8082323794FF079
:100BA00001084FF0A04208FA03F3C2F80C353146B1
:100BB000E5603A462561FFF79EFE2368C3F8108082
:100BC0002268D2F81831002BFBD0DDE9061220464E
:100BD000FFF791FE236801221A612268D2F81831CA
:100BE000002BFBD0237901254FF0A04205FA03F337
:100BF000C2F808350023A0691A46194600F0C2FD64
:100C00002846BDE8F08110B5016002F5E0734FF0B1
:100C1000A0410324027141F82340012303FA02F2A8
:100C2000C1F8082510BD13460A4601790068FFF790
:100C3000E5BE13B5049CCDE9003413460A4601799C
:100C40000068FFF72EFF02B010BD13B5049CCDE97C
:100C5000003413460A4601790068FFF77DFF02B0B1
:100C600010BD03794FF0A042012000FA03F3C2F84F
:100C700008357047C0E9001203490022C0E902228A
:100C8000C0E90412826170470000FFFF30B5D0E96F
:100C900001349C421DD2036885691B5D5B1BDBB27E
:100CA000C48ABBB1058A24124C55048AC58A0C44F7
:100CB000013B6570048A85690234A4B2013594420F
:100CC0000482DBB28561EBD300230382C368013366
:100CD000C36030BD8361838AA34208BF438AC38255
:100CE000836801338360D2E7054A02600022027103
:100CF000C0F8FC1182608281C2818261704700BFAE
:100D0000083200007047000007B5084679B100239B
:100D100001A9019301F040FC019B43B1054B4FF049
:100D200080525A6040BFBFF34F8FBFF36F8F03B045
:100D30005DF804FB00ED00E02DE9F047047903467F
:100D400004F0FF065CB18489013CA4B284818489EB
:100D5000A4B23CB904718169FFF7D6FF264630463C
:100D6000BDE8F087806801280AD103F11C00086003
:100D70004FF4F0711160DA89013292B2DA81EEE754
:100D800098680228F7D1987D1C6965781C69401B1A
:100D9000C0B264684FEA800E14F820000730C51016
:100DA0000027C008BCB2A04225D903EB07184FF0BA
:100DB000070C1C69D4F808901C69D4F804A0DC89DD
:100DC000F244A4B2BAF802A0B94404FB0554D144D9
:100DD00008F1020819F8044044FA0CF414F0010474
:100DE0000CF1FF3C18BF9C8AA8F81A40BCF1FF3FE9
:100DF000DFD10137D6E703F11C002D010860156033
:100E0000B9E7000038B5054D044645F001054FF43B
:100E10007A40A847013CFAD138BD00BF103200002B
:100E2000027100220160427170470068FFF7FBBE4B
:100E300007B503798DF8071001224FF0A04102FA9F
:100E400003F3C1F80C350DF10701FFF7EEFF03B016
:100E50005DF804FB07B503798DF8071001224FF008
:100E6000A04102FA03F3C1F808350DF10701FFF7BD
:100E7000DCFF03B05DF804FB08B50121FFF7D8FFE4
:100E8000BDE808409620FFF7BDBF1121FFF7D0BF96
:100E900010B53A210446FFF7CBFF20465521FFF756
:100EA000D9FFBDE810400A20FFF7ACBF10B53621CE
:100EB0000446FFF7BDFF20460021BDE81040FFF7C4
:100EC000C9BF10B52A210446FFF7B2FF2046002112
:100ED000FFF7C0FF20460021FFF7BCFF204600219E
:100EE000FFF7B8FF2046F021BDE81040FFF7B2BF82
:100EF00010B52B210446FFF79BFF20460021FFF78A
:100F0000A9FF20460021FFF7A5FF20460121FFF79A
:100F1000A1FF20464021BDE81040FFF79BBF08B568
:100F20002121FFF785FFBDE808400A20FFF76ABFCF
:100F300008B51321FFF77CFFBDE808400A20FFF742
:100F400061BF2921FFF774BF2C21FFF771BF2DE985
:100F5000F04104460F462A2115461E46BDF818806A
:100F6000FFF766FF390A2046FFF774FFF9B2204603
:100F7000FFF770FF310A2046FFF76CFFF1B2204601
:100F8000FFF768FF20462B21FFF752FF290A204672
:100F9000FFF760FFE9B22046FFF75CFF4FEA182138
:100FA0002046FFF757FF20465FFA88F1FFF752FF10
:100FB0002046BDE8F041FFF7C7BFF7B5BDF82040B8
:100FC000013C1444013B05460B44A4B200949BB27F
:100FD000DDE90967FFF7BBFF2A79012393404FF052
:100FE000A0423146C2F8083528463A4603B0BDE86B
:100FF000F040FFF71ABF38B54FF0A0444FF08065BE
:10100000C4F80C550A20FFF7FDFEC4F8085538BD9A
:1010100010B504460068FFF724FE22794FF0A04384
:1010200002F5E072032143F822104FF08062C3F80A
:1010300068172046C3F80825FFF7DDFF2046FFF7B5
:101040001BFF2046FFF721FF2046FFF721FF204628
:10105000FFF72CFF2046FFF734FF2046FFF748FF3D
:101060002046FFF75CFF2046FFF762FF2046BDE801
:101070001040FFF766BF012901604FF0A0434FF415
:10108000804218D002290BD04FF48000D1B1C3F8B0
:101090000C254FF40002C3F80C05C3F80C2570476B
:1010A000C3F80C254FF48002C3F80C254FF400025E
:1010B000C3F808257047C3F80C254FF48002C3F825
:1010C0000825F3E7C3F80825C3F80805EEE74FF055
:1010D000A0430322C3F83827C3F85827C3F85C2776
:1010E0000168FFF7C8BF704710B5154CD4F804333A
:1010F000580609D5D4F81831012B05D10023114821
:10110000C4F81831FFF714FCD4F80433190309D5D7
:10111000D4F84C31012B05D100230A48C4F84C31D6
:10112000FFF7E8FB064BD3F80423920706D5D3F864
:101130000421012A04BF0022C3F8042110BD00BF0E
:1011400000300040C0040020F0B58DB01149124EAF
:1011500040F2A55205A8FFF78DFD00244FF4F0776B
:1011600001254FF4F0720C4905A8FFF78FFD4FF4ED
:10117000FA71012001F0DCF9A2B2CDE9016707485C
:101180000095F02300210134FFF717FFF02CE8D180
:101190000DB0F0BD21320000C8000020B0040020D6
:1011A00070B52DED048B1B4A08EE100A84B04FF485
:1011B000F0731646013B02F8011BFBD19FED169A16
:1011C000DFED168ADC2401254FF4FA71012001F0CD
:1011D000AFF9F8EE487A1248009567EE897A002157
:1011E000F4EE687AF1EE10FAC8BFF0EE687AFCEE21
:1011F000E77A17EE903A9BB25A00CDE90162224697
:101200000134A4B2FFF7D9FEF02CDDD104B0BDEC5F
:10121000048B70BDC80000209A99194000007043EB
:10122000B0040020F0B5304B304D3149C3F80056C2
:10123000B5B0022001F0C6FB08B101F085FB2D48D6
:101240002D4F294EFFF788FA2B48FFF7BAF92A48A5
:10125000FFF7C4F92948FFF73AFF2948FFF7D8FEFE
:101260002848FFF74FFDFFF76FFF0024214638465F
:1012700004F58054FFF7FDF9B4F5043FC6F80056B5
:10128000F4D1214F1C4E00243919C82202A801F0C4
:1012900093FFC823214602AA3046FFF710FA07EE53
:1012A000904A9FED1A7AF8EEE76A4FF6FF71C6EEA4
:1012B000877AC8349FED167A67EE877AFCEEE77A74
:1012C000CDED017A9DF80400FFF76AFF064BC3F8E5
:1012D0000056104B9C42D7D14EF207016420FFF715
:1012E0005FFF00BFFDE700BF000001403546526EC2
:1012F00098000020C0040020DC0400200000002032
:10130000B0040020B0020020C637000000080048EA
:101310000000C842800002001FB50D4B0D4AC3F803
:10132000002600F093F803AB019300230A490B4811
:1013300000934FF4007200F0C3FC012802D0042097
:1013400001F002FB00F096FD0F2001F0FDFAFBE733
:10135000000001403546526E163200002512000092
:1013600037B5144B144C1868144D9B8800906A468E
:1013700000212046ADF80430FFF7DCF905222146B4
:101380002846FFF740FC29460D480E4DFFF7F1F8BF
:1013900021460D4C19222846FFF735FC122229461A
:1013A0002046FFF73DFD21460848FFF79DFC03B0AE
:1013B00030BD00BF1B320000C0040020A802002086
:1013C000DC040020B8040020B0040020B00200209B
:1013D0000649074A074B9B1A03DD043BC858D05007
:1013E000FBDC01F053FBFEF72FFF00000838020082
:1013F0000000002078000020FEE7FEE7FEE7FEE7A1
:10140000FEE7FEE7FEE7FEE7FEE7FEE738B5074C3E
:10141000051E04F1080318BF1C4623682BB11A6887
:1014200022605B6828469847F7E738BDEC04002047
:1014300020B9054B01225A70FFF7E8BF012802D1FD
:10144000014A9070F8E77047E404002038B5094C71
:1014500023786BB908486360A3602361E36000F000
:1014600037F8054600F040F801232370284638BDC0
:101470008525FBE7E40400203114000038B5134C47
:10148000A378054603F0FF0073B115B16B68012026
:101490009847002001F092FAE3680133E3600020EE
:1014A000BDE8384001F08CBA01F088FA25B1226914
:1014B00013463BB92A602561E368002BECD100F0AC
:1014C00025F8E9E79D42F7D01B68F2E7E404002025
:1014D000044A137923B9012110609180184670479E
:1014E00085207047F8040020074B1A68D2075FBFB9
:1014F000C02283F8002301221A604FF080430122AA
:10150000C3F81825704700BF00E100E037B5114B64
:1015100000221A601B680193019B4FF08043022256
:10152000C3F804230C4AD06840F08073D3600B4B9F
:101530001C6844F0010119605D685968491BB1F5E8
:101540000A5FFAD31C60064BD06001221A6003B018
:1015500030BD00BF04010040F0ED00E0001000E0ED
:101560000800004007B5154B1A687AB100221A60CE
:101570001B680093009B4FF080430122C3F80823AF
:101580000F4B587910B95A711B6898470D4B1A6860
:1015900082B100221A601B680193019B4FF08043C7
:1015A0000222C3F80823064B1B68012003B05DF834
:1015B00004EB184703B05DF804FB00BF00010040D6
:1015C000F80400200401004010B50446FEF7B8FFFF
:1015D000A46BFEF7BDFFB4FA84F0400910BDF8B566
:1015E0001546026C866B044652B9076847BB4068D3
:1015F00000F014FF676005460136A6632846F8BD73
:1016000065B9806801F0D8FDA368226C1344626854
:10161000A3609342F0D32368A360EDE7C06801F0B4
:10162000CBFD226CE36851429B1A2268E36093422F
:101630003EBF63685B18E360022D01D116B1013E25
:101640000025D9E73546D7E7034610B41A6C08469B
:101650006AB1DC68596814448C4228BF1968DC60A0
:1016600028BFD960D9685DF8044B01F0A5BD5DF8CD
:10167000044B704770B50446FEF762FF94F845507E
:1016800004F124066DB2002D14DCFF2384F84530EC
:10169000FEF75EFFFEF754FF94F8445004F1100685
:1016A0006DB2002D12DCFF2384F84430BDE8704099
:1016B000FEF74EBF636A002BE7D0304600F0B2FD64
:1016C00008B100F01FFE013D6DB2DCE72369002B7D
:1016D000E9D0304600F0A6FD08B100F013FE013D50
:1016E0006DB2DEE738B504460D46FEF729FFD4E9B2
:1016F0000F312268A2604B43D0185B1A134460601C
:10170000E3600020FF23A06384F8443084F8453070
:101710009DB923696BB104F1100000F083FD40B165
:101720000A4B4FF080525A6040BFBFF34F8FBFF358
:101730006F8FFEF70DFF012038BD04F1100001F09E
:10174000C1FC04F1240001F0BDFCF2E700ED00E073
:10175000F8B50646484350300D46174601F016FCD2
:10176000044658B165B100F15003C4E90F65236028
:1017700001212046FFF7B6FF84F84C702046F8BDE3
:101780000346F2E72DE9FF474FF00008DFF8F8A025
:10179000019204460F461E46C146FEF7D1FEA26BDB
:1017A000E36B9A4201D3022E1AD1324639462046C3
:1017B000FFF715FF636A1BB104F1240000F032FD4E
:1017C00040B1314B4FF080525A6040BFBFF34F8F52
:1017D000BFF36F8FFEF7BCFE012004B0BDE8F087B9
:1017E000019D1DB9FEF7B4FE0020F6E7B8F1000F29
:1017F00002D102A800F052FDFEF7AAFE00F068FB3D
:10180000FEF79EFE94F84430FF2B08BF84F8449006
:1018100094F84530FF2B08BF84F84590FEF798FEFA
:1018200001A902A800F046FD38BBFEF789FEA26BB5
:10183000E36B9A420FD1FEF78BFE019904F1100081
:1018400000F0CCFC2046FFF715FF00F0CFFB50B1B5
:101850004FF00108A1E7FEF77BFE2046FFF70AFFE5
:1018600000F0C4FBF4E74FF08053CAF8043040BFE7
:10187000BFF34F8FBFF36F8FEAE72046FFF7FAFE03
:1018800000F0B4FBB0E700BF00ED00E02DE9F3414C
:101890000446019117469846FEF764FEA26BE36B7F
:1018A00001999A42064602D3B8F1020F22D194F868
:1018B000455042466DB22046FFF791FE6B1C14D195
:1018C000636A0BB9012409E004F1240000F0AAFCCA
:1018D0000028F7D0002FF5D001243C603046FEF7F9
:1018E00045FE204602B0BDE8F08101356DB284F8B6
:1018F0004550E7E70024F1E770B504460D46FEF7D2
:1019000031FEA26BE36B934206461ED994F8451054
:101910000132FF294BB2A26312D1636A0BB90124D1
:1019200009E004F1240000F07DFC0028F7D0002D30
:10193000F5D001242C603046FEF718FE204670BD1D
:1019400001335BB284F84530E9E70024F3E7000097
:101950002DE9F04385B00027DFF8E49001920446BA
:101960000E46B846FEF7ECFDA56BDDB131462046CC
:10197000013DFFF769FEA56323696BB104F1100017
:1019800000F050FC40B12E4B4FF080525A6040BFE7
:10199000BFF34F8FBFF36F8FFEF7DAFD012005B065
:1019A000BDE8F083019D1DB9FEF7D2FD0020F6E7EA
:1019B00017B902A800F072FCFEF7CAFD00F088FA21
:1019C000FEF7BEFD94F84430FF2B08BF84F8448036
:1019D00094F84530FF2B08BF84F84580FEF7B8FD2A
:1019E00001A902A800F066FCF8B92046FFF7ECFD5B
:1019F000A8B1019904F1240000F0F0FB2046FFF7A4
:101A000039FE00F0F3FA40B94FF08053C9F80430C2
:101A100040BFBFF34F8FBFF36F8F0127A2E7204670
:101A2000FFF728FE00F0E2FAF7E72046FFF722FE74
:101A300000F0DCFA2046FFF7C7FD0028EDD0B5E73F
:101A400000ED00E02DE9F04385B00025DFF81C91A2
:101A5000019104462F462E46FEF772FDA36BEBB1B3
:101A6000013BA363236813B900F056FD606023694E
:101A70006BB104F1100000F0D5FB40B13B4B4FF0CF
:101A800080525A6040BFBFF34F8FBFF36F8FFEF796
:101A90005FFD0125284605B0BDE8F083DDF8048030
:101AA000B8F1000F03D1FEF753FD0025F2E717B997
:101AB00002A800F0F3FBFEF74BFD00F009FAFEF779
:101AC0003FFD94F84430FF2B08BF84F8446094F83D
:101AD0004530FF2B08BF84F84560FEF739FD01A9AA
:101AE00002A800F0E7FB48BB2046FFF76DFDF8B108
:101AF00023683BB9FEF724FD606800F039FC054619
:101B0000FEF726FD019904F1240000F067FB204652
:101B1000FFF7B0FD00F06AFA40B94FF08053C9F802
:101B2000043040BFBFF34F8FBFF36F8F012793E7A0
:101B30002046FFF79FFD00F059FAF7E72046FFF730
:101B400099FD00F053FA2046FFF73EFD0028EDD046
:101B5000002D9FD0FEF7F4FC616A19B1236B196860
:101B6000C1F10301606800F093FC9CE700ED00E028
:101B7000054B1A6812B19A682AB9012243F832104B
:101B800003EBC203586070479C46002070B50446C2
:101B90000D461646FEF7D4FC94F84430FF2B04BFE4
:101BA000002384F8443094F84530FF2B04BF002311
:101BB00084F84530FEF7CCFCA36B2BB9324629469E
:101BC00004F1240000F01AFB2046BDE87040FFF746
:101BD00051BD0000094B0A4A1B681268D06A58B907
:101BE000084A1268012A08D8012B06D8064B186843
:101BF000064B1B68C01A7047002070475C05002028
:101C0000000500200C0500208C050020D4050020D4
:101C1000064A13681968064B19B94FF0FF321A606B
:101C200070471268D268D2685268F8E7040500204D
:101C30008C050020F8B51B4B1B4F1D680446386807
:101C400004300E4601F06EFA3B4640B93968174839
:101C5000CF6A02680121B94022EA01020260621CD7
:101C600007D136B119681248BDE8F840043101F0D7
:101C700037BA1A682C19546007D30E4A10681968CD
:101C8000BDE8F840043101F036BA0B4A1068196813
:101C9000043101F030FA094B1A68A24288BF1C6077
:101CA000F8BD00BFD4050020000500205C05002021
:101CB000AC05002008050020040500208C0500204C
:101CC0002DE9F84F9500074628460E46984601F044
:101CD0005DF98146002800F0A080502001F056F9FF
:101CE0000446002800F09680C0F830902A46A521CE
:101CF000484601F06FFAD4F830B0731E04F1340294
:101D0000033613F8011F02F8011B197809B19E422E
:101D1000F7D10A9E022E28BF02264FF0000A04F1D6
:101D20000409C4E9106AE662484684F837A0043D15
:101D300001F0D3F9C6F1030604F118005D4401F087
:101D4000CCF9C4F848A02461A661646284F84CA070
:101D50004246394625F00700FEF7BCFB0B9B20608E
:101D600003B11C60FEF7ECFB324B334E1A68334F65
:101D700001321A603268002A52D134601B68012B8C
:101D80001FD12F48DFF8E8802E4D01F09BF92E4837
:101D900001F098F92D4801F095F9404601F092F9CB
:101DA000284601F08FF92A4801F08CF9294801F002
:101DB00089F9294801F086F9284BC3F80080284B9F
:101DC0001D60284A28491368086801331360E26AD5
:101DD000A363012505FA02F303430B60184B14209B
:101DE00000FB0230494601F07BF9FEF7B1FB3B688E
:101DF0006BB13368DA6AE36A9A4208D21B4B4FF040
:101E000080525A6040BFBFF34F8FBFF36F8F284699
:101E1000BDE8F88F484601F02FF94FF0FF35F6E79F
:101E20003B68002BCDD13368DA6AE36A9A4298BFE7
:101E30003460C6E74805002000050020A805002002
:101E40000C0500207405002020050020340500202A
:101E500094050020C0050020AC05002004050020EA
:101E600008050020580500205C05002000ED00E07A
:101E70006005002013B5104B019300240F49104852
:101E8000009423467822FFF71BFF012811D100F0B0
:101E900017FC01280DD172B60A4B4FF0FF321A60C1
:101EA000094B1860094B1C6002B0BDE81040FEF7FA
:101EB00023BB02B010BD00BF88050020E63702003A
:101EC000F92000008C050020A8050020D405002082
:101ED000024A136801331360704700BF54050020A5
:101EE000014B1868704700BFD4050020024A1368F0
:101EF00018441060704700BFD40500202DE9F84F4A
:101F00002F4B1B68002B54D12E4B1D6801351D60D3
:101F10005DB92D4A2D4B1168186810602C4A196064
:101F2000136801331360FFF773FE2A4F3B68AB421F
:101F30004FF0000607D9284B1B68002B0CBF30461A
:101F40000120BDE8F88FDFF88090DFF89880DFF897
:101F500098A0D9F800301B681BB94FF0FF333B60E5
:101F6000E9E7D9F80030DB68DC6863689D42F6D3A6
:101F700004F1040B584601F0D5F8A36A1BB104F133
:101F8000180001F0CFF8E26AD8F80010012393405E
:101F900014200B4300FB02A05946C8F8003001F0A2
:101FA0009FF80E4BE26A1B68DB6A9A4228BF012643
:101FB000CFE70B4A1368013313600026BBE700BF6D
:101FC00054050020D4050020040500200805002049
:101FD000900500208C050020D80500200005002079
:101FE000500500205C0500200C0500202DE9F34180
:101FF000FEF7A6FA2B4B1A68013A1A601C6834B136
:102000000024FEF7A5FA204602B0BDE8F081264B79
:102010001B68002BF4D0254D254EDFF8A8801FE06B
:10202000EB68DC6804F1180001F07CF8211D08461B
:10203000019101F077F8E26A30680199012707FA07
:1020400002F30343142000FB0280336001F048F8E0
:10205000184BE26A1B68DB6A9A4201D3164B1F6079
:102060002B68002BDCD10CB1FFF7D2FD134D2C688F
:1020700044B1114E0127FFF741FF00B13760013C29
:10208000F9D12C600C4B1B68002BB9D00C4B4FF0D6
:1020900080525A6040BFBFF34F8FBFF36F8F012450
:1020A000AFE700BF5405002048050020940500203C
:1020B0005C05002000050020D80500205005002008
:1020C00000ED00E00C05002008B548B9094B4FF0C1
:1020D00080525A6040BFBFF34F8FBFF36F8F08BD70
:1020E000FFF7F6FE0021FFF7A5FDFFF77FFF0028B1
:1020F000ECD0F4E700ED00E0F8B51C4C1C4F1D4E91
:102100002368EBB91C4B1B68012B08D91B4B4FF004
:1021100080525A6040BFBFF34F8FBFF36F8FFEF7FF
:10212000E2FFFFF757FD0128E9D9FFF7D1FEFFF7DE
:1021300051FD012801D9FEF769F9FFF757FFDEE7E6
:10214000FEF7FEF9FB68DD68281D00F0EBFF336841
:10215000013B33602368013B2360FEF7F9F9286BEC
:1021600000F08AFF284600F087FFC9E74C050020F1
:10217000C0050020480500200C05002000ED00E00F
:1021800030B5114B1A68114B12B101221A6030BDE3
:102190001A600F4B0F491B68B3FA83F3C3F11F0397
:1021A000142000FB03F28C18083265686D686560C6
:1021B0000A44954204BF6A68626000FB03135B68CF
:1021C000DA68054BE2E700BF54050020D80500207F
:1021D0005C0500200C0500200005002010B5064B12
:1021E0000C461968183100F086FF20460121BDE831
:1021F0001040FFF71FBD00BF0005002038B5084B99
:102200000D4619681446183100F06AFF002C21466B
:102210000CBF28464FF0FF30BDE83840FFF70ABD3D
:102220000005002037B5C368DC6804F118010846D2
:10223000019100F077FF134B01991B6803BB211D2F
:102240000846019100F06EFF0F48E26A05680199A7
:10225000012393402B4303600C4B142000FB0230FE
:1022600000F03EFF0A4BE26A1B68DB6A9A4285BFB8
:10227000084B012000201860FFF7CAFC03B030BDF6
:102280000548EDE7540500205C0500200C05002002
:1022900000050020D805002094050020034B1B6892
:1022A0000360034B1B684360704700BF900500202C
:1022B000D405002070B50C460546FEF741F90F4BDA
:1022C000196823685A1C10D00D482E6800686A6887
:1022D000864201D08A420FD9881A83420AD95B1AF2
:1022E000134423602846FFF7D9FF0024FEF730F996
:1022F000204670BD002323600124F7E7D4050020A9
:1023000090050020014B01221A607047D80500207B
:10231000084B186860B9084B1B6853B9074B18681D
:10232000074B1B68013B984214BF012002207047F5
:102330000020704794050020D8050020AC0500203F
:1023400048050020014B1868704700BF00050020B9
:10235000054B1B6833B1054B1B68002B0CBF0220DB
:102360000020704701207047A80500205405002078
:10237000F7B5044600282BD0254AC36A1168C96AFC
:102380008B4217463BD28269224D002AA1BF3A6890
:10239000D26AC2F1030282611426426906FB03532A
:1023A0009A4217D1011D0846019100F0BBFE1A4B5D
:1023B0000199A8B13A681E68D26AE262012404FA5F
:1023C00002F030431860142000FB025000F088FE39
:1023D000204603E03B68DB6AC362012003B0F0BD26
:1023E000D4F82CC006FB0CF6AA59002AE2D11A68D0
:1023F000012000FA0CF022EA00021A60DAE7136802
:10240000006CDC6AA0422CBF00200120E6E700BF80
:10241000000500200C0500205C050020F7B50446EF
:1024200010B9002003B0F0BD436CC16A026C013BDF
:1024300091424364F5D0002BF3D1011D0846019170
:1024400000F070FE104F114A019950B9E06A14264D
:102450004643BB592BB913680125854023EA050380
:102460001360236CE362C3F10300A06110680124D0
:1024700004FA03F50543142000FB0370156000F017
:102480002FFE2046CEE700BF0C0500205C05002093
:1024900073B50446002838D0036C994238BF1946FA
:1024A000C36A8B4231D0426C012A2ED18269184D09
:1024B000C162002A4FF014064269A8BFC1F10301AE
:1024C00006FB0353A8BF81619A421ED1011D084635
:1024D000019100F027FEE26A01990E4C40B9564383
:1024E000AB592BB923680120904023EA00032360F5
:1024F0002068012393400343142000FB0250236013
:1025000002B0BDE8704000F0EBBD02B070BD00BF8E
:102510000C0500205C050020044B1A681AB11968EC
:102520004A6C01324A641868704700BF00050020F9
:1025300070B5174C06460D46FEF702F823689B6CF3
:1025400083B92368012183F84C105DB12846FFF759
:1025500071FB104B4FF080525A6040BFBFF34F8F5A
:10256000BFF36F8FFDF7F4FFFDF7EAFF23689D6C63
:102570001DB123684EB100229A642368002283F8BB
:102580004C20FDF7E5FF284670BD6A1EF4E700BF4A
:102590000005002000ED00E0F7B504460E46FDF70B
:1025A000E1FF022394F84C2084F84C30A36C012AFC
:1025B00003F101030746D5B2A3641DD1154B1B6877
:1025C00003BB211D0846019100F0ACFD124AE36AED
:1025D000106801999D4005431560104A142000FBC6
:1025E000032000F07DFD0E4BE26A1B68DB6A9A4215
:1025F00002D9012356B13360384603B0BDE8F0403C
:10260000FDF7B4BF074804F11801EAE7064A136072
:10261000F2E700BF540500205C0500200C050020F7
:102620000005002094050020D8050020F8B50F4CC7
:10263000FDF786FF2568ADB90D4F0E4E384600F008
:1026400041FD304600F03EFD0B4B1F600B4B2A4610
:10265000102120201E60FFF77BF8206010B1084990
:10266000FFF786FABDE8F840FDF772BF10060020BC
:10267000E4050020F8050020DC050020E00500202E
:10268000EB370200914208B5416000610AD8D21AC6
:1026900083699A420DD2084B011D186800F02BFD8A
:1026A000002008BD9A4201D2994202D2034B011D7B
:1026B000F3E70120F5E700BFE0050020DC0500207E
:1026C00007B5FFF7B3FF084B1868002340B1074A6E
:1026D00007490848CDE900324FF49672FFF7F0FA47
:1026E00003B05DF804FB00BF1006002014060020B4
:1026F000F0370200A12700007FB50F4C0546206887
:1027000016461A4680B10529CDE9001602950DDC62
:10271000FFF71EFE0023022808BF089A206818BF92
:102720001A466946FFF72EF804B070BD00236946CB
:10273000FFF7ACF8F8E700BF10060020F0B5164D23
:1027400085B000272B681A682AB9144A11682960D5
:10275000136005B0F0BDDB68DC681E68211D08460B
:10276000039100F0DFFC636A20469847E369039910
:10277000012BE7D1A36933449E4205D228686360E8
:10278000246100F0B8FCDDE70023009732461946CB
:102790002046FFF7B1FFD5E7DC050020E00500206B
:1027A0002DE9F04F634E89B0B246002732681368B6
:1027B000002B4BD0D268D2F800B05F4D0393FFF7E7
:1027C00087FBFFF78DFB2A68DFF87881039B904237
:1027D0000446A9463CD2FFF7B1FF2C60FFF706FC88
:1027E000D8F80000002204A9FFF7B2F80028DDD0D5
:1027F000049B0698002B6ADB069C6369002B6DD155
:10280000FFF76EFBD9F800309842054601D2FFF77A
:1028100095FF049BC9F80050092BE1D801A252F89A
:1028200023F000BFE5280000E5280000E5280000AF
:10283000E12700001B2900002D290000E5280000E9
:10284000E5280000E12700001B2900009B46B4E7B3
:10285000286003B3834538D8FFF7C8FBDAF80030A7
:10286000DB68DD68281D00F05DFCEB69012B0ED1F3
:10287000A9695B46224659442846FFF703FF30B159
:10288000002300975A4619462846FFF735FF6B6A22
:1028900028469847A4E7294B1B681A68B2FA82F2C7
:1028A0005209D8F80000ABEB0401FFF76FF9FFF70E
:1028B0009DFB002894D1224B4FF080525A6040BFBC
:1028C000BFF34F8FBFF36F8F8AE70022E9E7059BC5
:1028D00007999847049B002B82DB8DE7201D00F0B1
:1028E00021FC8DE7A169059B2A4619442046FFF784
:1028F000C9FE00283FF474AF636A20469847E36935
:10290000012B7FF46DAFA2690599009700230A445B
:1029100020461946FFF7F0FE62E70599A1612B46B4
:102920002A4629442046FFF7ADFE59E7204600F02D
:10293000A3FB55E7DC0500200C060020E005002085
:1029400000ED00E0100600201FB50021039001AA51
:1029500044F20100CDE9011100F004F805B05DF882
:1029600004FB000072B6094B1B68DB0700D500BEF4
:10297000BFF34F8F0649074BCA6802F4E062134366
:10298000CB60BFF34F8F00BFFDE700BFF0ED00E06D
:1029900000ED00E00400FA0572B6024A1368013344
:1029A0001360704718060020034A1368013B136048
:1029B00003B962B6704700BF18060020FFF7ECBFEE
:1029C000FFF7F2BF70B5E1B111F0030419D10E4D5C
:1029D0000E4E0F4B29603070042221460D481C70AA
:1029E00000F0F8FB3278286802EB4202D200214660
:1029F00000F0F0FB00F0DAF920B9BDE8704000F01B
:102A00009DB90724204670BD240600202006002022
:102A1000210600201C0600200C4B1B78062B10D131
:102A20000B4B1B681A070CD10A4B186800F0F00317
:102A3000302B08D000F0E000A0F14003584258418C
:102A40007047002070470120704700BFE00F00F082
:102A5000E40F00F0E80F00F0094B1B78062B0CD1B7
:102A6000084B1B681A0708D1074B186800F0F000E4
:102A7000A0F130035842584170470020704700BF12
:102A8000E00F00F0E40F00F0E80F00F008B5FFF7EA
:102A9000C3FF28B17D4B7E4A1B68C3F30423136038
:102AA000FFF7DAFF10B17B4B7B4A1A60FFF7B4FFE8
:102AB00028B17A4B7A4A1B68C3F342331360FFF79D
:102AC000CBFF20B1774AD36823F08073D360FFF740
:102AD000A3FF40B14FF080430022C3F80C21C3F89C
:102AE0001021C3F83825FFF7B7FF10B16E4B032252
:102AF0001A60FFF7B1FF40B16C4B05221A6001224A
:102B00009A6700229A603F225A60694B1B78062B15
:102B100050D1684B1B6819074CD1674B1B6803F0F9
:102B2000F003502B46D14FF08052644BD2F804147E
:102B3000C3F82015D2F80814C3F82415D2F80C14E1
:102B4000C3F82815D2F81014C3F82C15D2F81414B1
:102B5000C3F83015D2F81814C3F83415D2F81C1481
:102B6000C3F84015D2F82014C3F84415D2F8241441
:102B7000C3F84815D2F82814C3F84C15D2F82C1411
:102B8000C3F85015D2F83014C3F85415D2F83414E1
:102B9000C3F86015D2F83814C3F86415D2F83C14A1
:102BA000C3F86815D2F84014C3F86C15D2F8442461
:102BB000C3F87025FFF730FF28B1414B414A1B682D
:102BC00003F04F031360FFF727FF48B14FF0804336
:102BD000D3F80024D20744BF6FF00102C3F80024E9
:102BE000394B1B68062B08D1384B1B68062B01BFDD
:102BF000374A136843F480631360364AD2F888304A
:102C000043F47003C2F88830BFF34F8FBFF36F8F68
:102C10004FF01023D3F80022002A03DBD3F804324C
:102C2000002B2FDA2C4B0122C3F80425D3F8002403
:102C3000002AFBD04FF010221521C2F80012D3F861
:102C40000024002AFBD04FF010231522C3F80422E1
:102C5000214B1A46D3F800140029FBD00021C3F8F9
:102C60000415D2F80034002BFBD0BFF34F8F194965
:102C70001A4BCA6802F4E0621343CB60BFF34F8F74
:102C800000BFFDE7164B174A1A6008BD2403001069
:102C90004035014074C007400DF0ADBA4402001049
:102CA0003C050040F0ED00E0A0050040105600405B
:102CB000E00F00F0E40F00F0E80F00F000C000406B
:102CC00058020010E40E00403001001034010010E2
:102CD0003C17004000ED00E000E001400400FA0570
:102CE000080000200090D00300F1804000F5C040B3
:102CF000002382B0036003680193019B02B0704718
:102D0000800000F1A040D0F8002722F44032C0F843
:102D10000027D0F8003743EA0141C0F80017704798
:102D2000054B4FF0FF32072843F8202084BFC0181E
:102D300080F84820704700BF2806002010B5174CC7
:102D400094F8583043BB04F130032021FF220139AD
:102D500011F0FF0103F8012BF9D1C8B2FFF7E0FF32
:102D600001310C29F9D1042200210D4800F032FA7A
:102D70000C4BC02283F8062340221A604FF4BE7029
:102D8000FFF7B2FF084B4FF00042C3F804230123C2
:102D900084F85830002010BD0820FCE728060020E9
:102DA0007C06002000E100E000600040034B93F847
:102DB0005800003818BF0120704700BF28060020C7
:102DC0002DE9F04F87B000245A4D03944FF48072E0
:102DD000012102F1804303F5C04390B21B68012B2F
:102DE00006D1D5F804330B4202D0FFF77DFF0C4328
:102DF0000432B2F5907F4FEA4101EAD14E4B1B6895
:102E0000012B0AD14FF4BE70FFF76EFF4FF0A043C5
:102E100044F00044D3F81035039314F0FF0F1AD098
:102E2000464F01260025344210D0AB0003F1804309
:102E300003F5C043D3F81005D3F8101557F8253023
:102E400023B1C1F30141C0F3042098470135082D97
:102E50004FEA4606E7D1002C65DA00214FF0FF3338
:102E6000CDE90413354D364E4FF00009CA4601270F
:102E70004FF0A04816F9013B5A1C45D0C3F3C201DC
:102E800006AA5018DCB210F8042C03F03F0B03F034
:102E9000070307FA03F31A4236D005EB0B02A40925
:102EA00092F9302055F8222052B9032C2CD10DF183
:102EB000100E1EF801C04CEA030C0EF801C001E030
:102EC000032CF4D00BF5E07110F80C0C58F821101D
:102ED0001842C1F3014105D0022915D1032C0FD1AD
:102EE000214604E003290FD1032C09D102215846C1
:102EF000019209F10109FFF703FF019A5FFA89F9CD
:102F000012B12146584690470AF1010ABAF1040F5E
:102F1000B0D1B9F1000F06D04FF0A043039AD3F817
:102F20001035934202D107B0BDE8F08F0393049BA4
:102F3000059398E7006000407C610040280600206F
:102F40007806002010B50F4B1A461B688342FBD34E
:102F500054681119884201BF41681046091951602F
:102F600041684418A34208D1074C2468A34204D006
:102F70005B680B44436013681B680360904218BF92
:102F8000106010BD94460020840600202DE9F04119
:102F90000446FEF79DFF3149314D0B68CBB9314BEB
:102FA000314A58071CBF073323F007030020136082
:102FB00050602E4A22F00702C2E90000D01AC3E98D
:102FC00000202B4B0A6018602A4B18604FF000431A
:102FD0002B602F6827423ED1002C34D004F1080327
:102FE00062071CBF23F007030833002B33D0214AAC
:102FF00016689E4290462ED31B4A15686868984210
:1030000001D2286820BB0968A94224D02968146825
:1030100011606A68D21A102A04F1080404D9E81869
:1030200042606B60FFF78EFF11496A680868B61A44
:10303000864247EA02074FF00003C8F8006038BF35
:103040000E606F602B60FEF7D1FF2046BDE8F08177
:103050002A460546D2E70024F5E700BF8406002093
:1030600088460020880600209446002080460020E4
:10307000904600208C46002010B50446E0B10F4A6F
:1030800050F8043C1268134216D050F8081C99B945
:1030900023EA020340F8043CFEF71AFF084A54F8FA
:1030A000043C1168A4F108000B441360FFF74AFFC9
:1030B000BDE81040FEF79ABF10BD00BF8846002053
:1030C0008C46002000F108034FF0FF32C0E90223D4
:1030D000436003610023036070470023036170476E
:1030E00043684B609A688A60516099600861036820
:1030F00001330360704730B50C68631C0AD1036963
:103100005A684A6091608B605960086103680133B6
:10311000036030BD00F10802134652681568A542ED
:10312000FAD9EDE7D0E9011203698A60416851607C
:103130005A68824204BF82685A60002202611A689B
:10314000013A1A601868704708B5074B044613B176
:103150000021AFF30080054B1868836A03B19847DC
:10316000204600F03FF800BF00000000F8370200E2
:1031700070B50D4D0D4C641BA4100026A64209D15C
:103180000B4D0C4C00F030F8641BA4100026A64236
:1031900005D170BD55F8043B98470136EEE755F868
:1031A000043B98470136F2E76C0000206C000020D9
:1031B0006C000020740000200A44914200F1FF33AB
:1031C00000D1704710B511F8014B03F8014F91423F
:1031D000F9D110BD02440346934200D1704703F871
:1031E000011BF9E7FEE700BFF8B500BFF8BC08BC5B
:1031F0009E467047F8B500BFF8BC08BC9E467047B5
:103200000000000000000000390D00000000000078
:103210000338FDD870474D41494E000003000203BA
:1032200004FF00FF00FF00FF00FF00FF00FF00FFA2
:1032300000FF00FF00FF00FF00FF00FF00FF00662F
:1032400002ED04EC05EA07E809E60AE50CE30EE105
:1032500010DF12DE12DD14DB16D918D71AD51BD4F5
:103260001DD30D030ED10D050ECF0E050FCD0F058D
:103270000FCC100510CA110511C8120512C613058E
:1032800013C5130513C4140514C2150515C017037F
:1032900017BE33BC34BB36BA37B839B63BB43CB3CF
:1032A0003EB140AF09022E0108AD09042C0308AC61
:1032B00008062A0507AB0906290608A90B052905F2
:1032C0000AA70D032B030CA54CA34DA24FA0519FA1
:1032D000529D549B559A579859965B945D935D9275
:1032E0005F90618E638C658A6689688708025902DF
:1032F0000586070457040584080555060582090656
:10330000540605810A055505077F0C045603097DFF
:10331000747B7679777978777A757C737E717F7034
:10332000816E836C856B8669876889668B648D6224
:103330008F609060915E935C955A0E0771070A58F2
:103340000D0B6D0B08570E0C6C0C08550F0C6C0B0D
:103350000A53110A6D0B0B529F50A04FA24DA44B64
:10336000A649A848A8FF00E344AD43AE41B040B130
:103370003EB23EB33CB53AB739B837B936BB350E75
:103380000166013C0109330E0315050E0416150DE7
:103390000311050E04120309310F0414060D04165F
:1033A000150D0410050E04120409300F0414060D47
:1033B0000416150D0410060D041204092F10041430
:1033C000070C0416150D0410060D0412040A2D1125
:1033D0000414070C0416041E0410070C0412040B3A
:1033E0002C110414080B0416041E0410070C0412FC
:1033F000040C2A120414080B0416041E0410080BF3
:103400000412040D281304140401040A0416041EF3
:1034100004100401030B0412040D28130414040106
:10342000040A0416041E04100401040A0412040E03
:1034300026140414040204090416041E04100402D1
:10344000030A0412040F24150414040204090416C8
:10345000041E0410040204090412041023150414A9
:10346000040304080416041E0410040204090412D0
:10347000041121160414040304080416041E041085
:10348000040304080412041120170414040403089C
:103490000416041E041004030408041204121F1767
:1034A0000414040404070416041E0410040403088E
:1034B000041204131D180414040503070416130F43
:1034C000041004040407041204141B1A0314040552
:1034D0000406041613100310040503070413031550
:1034E0001A1B011504060306041613110111040525
:1034F00004060414011619320406040504161323E5
:1035000004060306042C17330407030504160432CB
:1035100004060405042D161D0115040704040416F1
:10352000042001110407030504140119141D0314D8
:10353000040704040416041F0310040704040413FE
:103540000319121D0414040804030416041E0410B5
:103550000408030404120419121D041404080403CB
:103560000416041E0410040804030412041A101E96
:103570000414040903030416041E041004080403BD
:103580000412041B0E1F0414040904020416041E72
:103590000410040904020412041C0D1F0414040A7C
:1035A00003020416041E0410040904020412041D7C
:1035B0000B200414040A04010416041E0410040A57
:1035C00003020412041D0B200414040B030104164F
:1035D000041E0410040A04010412041E0921041428
:1035E000040B0816041E0410040B03010412041F2C
:1035F00007220414040C0716041E0410040B0812FE
:10360000042006220414040C0716041E0410040CE3
:103610000712042104230414040D0616041E0410CA
:10362000040C0712042103240414040D0616041EBE
:103630000410040D0612042202240414040D0616BC
:10364000041E0410040D061204480315040E05168A
:10365000041E0311040D0612034A0166013C01FF1A
:1036600000FF00FF00FF00FF00FF00FF00FF001051
:10367000110F090F0409040D0F8B110F090F050716
:10368000050D0F8B110F090F0507050D0F9203197B
:1036900003120605060D039E031903120605060D07
:1036A000039E031903120605060D039E0319031258
:1036B000030103030301030D039E03190312030215
:1036C00002030202030D039E031903120302030106
:1036D0000302030D039E03190312030203010302F5
:1036E000030D039E0319031203030503030D0D9439
:1036F0000319031203030503030D0D9403190312A9
:1037000003040304030D0D940319031203040304BB
:10371000030D039E0319031203050105030D039E08
:103720000319031203050105030D039E0319031278
:10373000030B030D039E03190312030B030D039EDA
:1037400003190312030B030D039E03190312030B4A
:10375000030D039E03190312030B030D039E0319AC
:103760000312030B030D0F920316090F030B030D36
:103770000F920316090F030B030D0FFF00FF00FF4D
:1037800000FF00FF00FF00FF00FF00FF00FF00FF41
:1037900000FF00FF00FF00FF00FF00FF00FF00FF31
:1037A00000FF00FF00FF00FF00FF00FF00FF00FF21
:1037B00000FF00FF00FF00FF00FF00FF00FF00FF11
:1037C00000FF00FF00EC3DB8F39600000000200071
:1037D0000000D8FF01000000000001000000000010
:1037E000000000000000000001201D790100457963
:1037F000010047790100497901004B7901004D79B9
:1038000001000000000000000000000000000000B7
:1038100000006D48000051790100000000008D4853
:10382000000055790100B17A0100FD0500005779CB
:1038300001009D0500005779010057790100D17CF6
:1038400001006D7E01005779010057790100577919
:10385000010015060000577901000906000057799C
:1038600001005779010021060000ED48000057795A
:103870000100577901005779010057790100577904
:1038800001005779010057790100577901005779F4
:1038900001005779010057790100577901000000B4
:1038A00000000000000057790100577901005779A6
:1038B00001005779010057790100577901005779C4
:1038C00001000000000000000000000000000000F7
:1038D00000000000000000000000000000000000E8
:1038E00000000000000000000000000000000000D8
:1038F00000000000000000000000000000000000C8
:1039000000000000000000000000000000000000B7
:1039100000000000000000000000000000000000A7
:103920000000000000000000000000000000000097
:103930000000000000000000000000000000000087
:103940000000000000000000000000000000000077
:103950000000000000000000000000000000000067
:103960000000000000000000000000000000000057
:103970000000000000000000000000000000000047
:103980000000000000000000000000000000000037
:103990000000000000000000000000000000000027
:1039A0000000000000000000000000000000000017
:1039B0000000000000000000000000000000000007
:1039C00000000000000000000000000000000000F7
:1039D00000000000000000000000000000000000E7
:1039E00000000000000010B5054C237833B9044BEB
:1039F00013B10448AFF300800123237010BDE80128
:103A0000002000000000E4FD010008B5034B1BB1DD
:103A100003490348AFF3008008BD00000000EC013B
:103A20000020E4FD0100A3F5803A704700BF174B6A
:103A3000002B08BF134B9D46FFF7F5FF00218B4677
:103A40000F461348144A121A1AF013FA0E4B002BA1
:103A500000D098470D4B002B00D098470020002144
:103A600004000D000D48002802D00C48AFF3008080
:103A70001AF031F92000290000F071FA1AF017F954
:103A800000BF00000800000000000000000000006F
:103A90000120E8010020607000200000000000000C
:103AA00000000020704710B5039B4160044683600E
:103AB000002201210A2018F0EAF8E060204610BD3B
:103AC000000007B5002301900093084903464FF416
:103AD0000072074818F019FC012805D0042003B033
:103AE0005DF804EB19F071BC03B05DF804FBA0D2E3
:103AF00001008D0400002DE9F0418CB00024054642
:103B00000B460094124940F2A55205A805F0FBF9B6
:103B100005F110064FF4F07801274FF4F0723146AA
:103B200005A805F0FAF94FF4FA71012019F01DF912
:103B3000A2B2CDE9016868680097F0230021013442
:103B400000F0EDFBF02CE8D10CB0BDE8F081ABD279
:103B500001004FF6FF71FFF7CEBFF0B52DED048BDE
:103B600000F1100608EE101A85B0054600F5F87150
:103B70003346994202D003F8012BFAE79FED169ADB
:103B8000DFED168ADC2401274FF4FA71012019F0C9
:103B9000ECF8F8EE487A6868009767EE897A0021B9
:103BA000F4EE687AF1EE10FAC8BFF0EE687AFCEE37
:103BB000E77A17EE903A9BB25A00CDE901622246AD
:103BC0000134A4B200F0ABFBF02CDDD105B0BDECAC
:103BD000048BF0BD00BF9A991940000070431FB5D7
:103BE0000446C822C0680DF10F0118F080F928B111
:103BF0009DF80F30032B26D0092B2FD0A3685A78BD
:103C0000FAB1DA68022A2CD0032A2ED0012A18D160
:103C1000D3ED027A93ED017AF8EE676AB8EE477A4F
:103C20004FF6FF72C6EE877A9FED117A67EE877ABC
:103C3000FCEEE77ACDED017A9DF804102046FFF7FF
:103C40008CFF04B010BDA3681B7823B1FF21204670
:103C5000FFF751FFD2E74FF6FF71F8E74FF4FC6131
:103C6000F5E74EF207026421E8E7FF22FBE70000D8
:103C7000C84210B5044618F082FF002302221946FC
:103C800019F0A7F82046FFF764FF2046FFF7A7FFCB
:103C9000FBE71FB500238DF8071003AA0DF10701FC
:103CA000C068039318F0C1F805B05DF804FB07B5D0
:103CB000002300931A46032119F0ADF9044B18684C
:103CC000112103B05DF804EB04F0AFBB00BF0C039F
:103CD000002007B5002300931A46032119F09BF931
:103CE000034B186803B05DF804EB04F026BC0C032A
:103CF000002010B58368044613B10322014698479B
:103D0000204610BD000030B51C2885B005D1174BEA
:103D1000186804F032FC05B030BD00241328039469
:103D200019D1032917D1124B1D6818F038FC0094E3
:103D3000024603AB0621284619F06DF9039B002BC0
:103D4000E9D00C4B4FF080525A6040BFBFF34F8F09
:103D5000BFF36F8FDFE7084B1C6818F020FC0023CF
:103D600002460093062103AB2046E5E700BF0C03A3
:103D700000205802002000ED00E05C0200207047A7
:103D8000000010B5154CD4F80433580609D5D4F802
:103D90001831012B05D100231148C4F8183100F067
:103DA00056FDD4F80433190309D5D4F84C31012B4E
:103DB00005D100230A48C4F84C3100F02AFD064B17
:103DC000D3F80423920706D5D3F80421012A04BFAF
:103DD0000022C3F8042110BD00BF00300040E802FB
:103DE0000020014B1B68184700BF10020020014B48
:103DF0001B68184700BF04020020014B1B681847CE
:103E000000BF0C020020044B002282B01A601B6825
:103E10000193019B02B0704700BF000101400B28D5
:103E200008D00D2804D0012801D1034B1960704738
:103E3000034BFBE7034BF9E700BF1002002004022D
:103E400000200C020020EFF3108072B600F0010099
:103E5000704700B962B6704700000048704708021A
:103E6000002010B5044C4FF0FF31204605F0A7FBB1
:103E700043689847F7E70802002008B5FFF7F1FF0D
:103E8000000008B500220421202017F000FF0C4B91
:103E9000186016F020F905F024FF0EF098FF0021BD
:103EA000052015F0A2FF4FF4004015F00EFA0FF0B8
:103EB00040FB0FF032F8BDE80840024805F051BB66
:103EC00000BF08020020950600000FF09CBA10B554
:103ED000044600F5266019F09AFD04F6482019F012
:103EE00096FD04F5236019F092FD04F6081019F010
:103EF0008EFD04F50F6019F08AFD04F6D80019F064
:103F000086FD0D4BC4F8FC3504F21C60FFF7F1FE92
:103F10000B4BC4F8643504F5AF60FFF7EAFEA06B05
:103F200018B14FF4987119F027FD206A18B14FF4B9
:103F3000F87119F021FD204610BD44F1010020F177
:103F4000010038B5056804463DB12846FFF7BFFFBC
:103F50004FF45961284619F00FFD204638BD00B5D1
:103F60008DB017F00CF9264B009300231A46C82198
:103F7000254819F036F8244B1860244B0093002391
:103F80001A46C821234819F02CF8224B18604FF428
:103F9000596019F002FD204B0893204B0793204BEA
:103FA0000693204B0593204B0493204B0393204B07
:103FB0000293204B0193204B0093204A214B21492F
:103FC000044604F0A3F900230B931F4B1D681C60EB
:103FD0001C463DB12846FFF77AFF4FF45961284649
:103FE00019F0CAFC0BA8FFF7ACFF206804F003FA35
:103FF000FFF747FF18F097FA0F2019F0E6F9FBE7F3
:1040000000BFED04000050D801005C020020C9048C
:1040100000005ED8010058020020C4020020840283
:10402000002068020020C00200203C020020140290
:1040300000208002002010030020240300207002D2
:10404000002004030020E80200200C030020F7B544
:104050002A4C2A4E20682A4FA38800906D462A4693
:1040600000213046ADF8043000F0F2FA3146192252
:10407000384600F074FD39461222224F234800F0E2
:104080006CF83146224E0522384600F068FD39466C
:10409000304600F0DCF9D4E902011D4C85E803004C
:1040A0002A460021204604F08DFD2146152219489C
:1040B00003F023FF21461822184800F06AFE21462B
:1040C00044221648174C00F0E4FD164801F05FFC4E
:1040D000164B164917480022C3E901221A80DA60FC
:1040E000154A19F044FC3146204603F029FE2146CA
:1040F000124805F009FA03B0F0BD74D80100E802D7
:1041000000207802002060020020700200200403DA
:1041100000202403002010030020840200206802F5
:104120000020C4020020140200203C0200205D0791
:1041300000000C03002000000020C002002038B561
:10414000054D044645F001054FF47A40A847013C6F
:10415000FAD138BD00BF90D8010002710022016081
:1041600042717047006800F00ABD07B503798DF809
:10417000071001224FF0A04102FA03F3C1F80C35F9
:104180000DF10701FFF7EEFF03B05DF804FB07B583
:1041900003798DF8071001224FF0A04102FA03F3D2
:1041A000C1F808350DF10701FFF7DCFF03B05DF83A
:1041B00004FB08B50121FFF7D8FFBDE808409620B1
:1041C000FFF7BDBF1121FFF7D0BF1021FFF7CDBF13
:1041D00010B53A210446FFF7C8FF20465521FFF7E6
:1041E000D6FFBDE810400A20FFF7A9BF10B5362161
:1041F0000446FFF7BAFF20460021BDE81040FFF754
:10420000C6BF10B52A210446FFF7AFFF20460021A4
:10421000FFF7BDFF20460021FFF7B9FF2046002130
:10422000FFF7B5FF2046F021BDE81040FFF7AFBF14
:1042300010B52B210446FFF798FF20460021FFF719
:10424000A6FF20460021FFF7A2FF20460121FFF72D
:104250009EFF20464021BDE81040FFF798BF08B5FB
:104260002121FFF782FFBDE808400A20FFF767BF62
:1042700008B51321FFF779FFBDE808400A20FFF7D2
:104280005EBF2921FFF771BF2C21FFF76EBF2DE91B
:10429000F04104460F462A2115461E46BDF81880F7
:1042A000FFF763FF390A2046FFF771FFF9B2204696
:1042B000FFF76DFF310A2046FFF769FFF1B2204694
:1042C000FFF765FF20462B21FFF74FFF290A204605
:1042D000FFF75DFFE9B22046FFF759FF4FEA1821CB
:1042E0002046FFF754FF20465FFA88F1FFF74FFFA3
:1042F0002046BDE8F041FFF7C7BF70B5CEB2044617
:104300000D4646713721FFF730FF290A2046FFF797
:104310003EFF31462046BDE87040FFF738BFF7B595
:10432000BDF82040013C1444013B05460B44A4B2B7
:1043300000949BB2DDE90967FFF7A9FF2A79012301
:1043400093404FF0A0423146C2F8083528463A461D
:1043500003B0BDE8F040FFF705BF38B54FF0A0440B
:104360004FF08065C4F80C550A20FFF7E8FEC4F84A
:10437000085538BD10B50446006800F01EFC2279CF
:104380004FF0A04302F5E072032143F822104FF0F2
:104390008062C3F868172046C3F80825FFF7DDFFE1
:1043A0002046FFF706FF2046FFF70CFF2046FFF7E9
:1043B0000FFF2046FFF71AFF2046FFF722FF204697
:1043C000FFF736FF2046FFF74AFF2046FFF750FF72
:1043D0002046BDE81040FFF754BF10B50446FFF774
:1043E000F4FE23794FF0A04203F5E073022142F876
:1043F000231010BD10B503794FF0A04203F5E07310
:104400000321044642F82310FFF7A7FF2046FFF7D9
:10441000D0FE2046FFF7D6FE2046FFF7D9FE204605
:10442000FFF7E4FE2046FFF7ECFE2046FFF700FF13
:104430002046FFF714FF2046FFF71AFF2046617958
:10444000FFF75BFF2046BDE81040FFF71ABF0022D0
:104450000160027142718271704707B5B923012270
:104460000DF1070100688DF8073000F088FB03B0FC
:104470005DF804FB10B586B09F238DF80F30032341
:104480000093002404AB01220DF10F010068ADF888
:1044900010408DF8124000F078FB049B2046DAB201
:1044A00062F30700C3F3072262F30F20C3F307434D
:1044B00063F3174006B010BD10B50446FFF7DAFFEE
:1044C000C0F307236371C0F307432071A37110BDCC
:1044D00000001FB50D4B039300238DF80B30012313
:1044E000009304460DF10B03042203A9006800F0B9
:1044F0004CFB2046FFF7BEFFC0F307232071C0F33B
:1045000007406371A07104B010BDAB0102031FB579
:104510000122009205238DF80E300DF10E010DF1F0
:104520000F03006800F031FB9DF80F0005B05DF847
:1045300004FB08B5FFF7EBFF00F0010008BD08B56C
:10454000FFF7E5FFC0F3400008BD1FB5032400934B
:104550008DF80C400C0C49BAADF80E10134603A9A7
:10456000042200688DF80D4000F00FFB04B010BD70
:104570001FB506238DF80F300023009301220DF1A3
:104580000F01006800F001FB05B05DF804FB1FB5EA
:1045900020238DF80C300B0C49BA04468DF80D30F1
:1045A000ADF80E10FFF7E4FF2046FFF7C8FF18B97B
:1045B000012018F0E8F8F7E70023206800930422B0
:1045C00003A900F0E2FA2046FFF7B3FF18B101207B
:1045D00018F0D9F8F7E704B010BD2DE9F04307460D
:1045E00085B00D4690461E464FF002096EB325F089
:1045F000FF04641B04F580742B0CB4428DF80D305D
:1046000038466BBA28BF34468DF80C90ADF80E30A2
:10461000FFF7AEFF3846FFF792FF18B9012018F0F8
:10462000B2F8F7E7386800944346042203A900F083
:10463000B8FA3846FFF77DFF18B1012018F0A3F84B
:10464000F7E72544A044361BD0E705B0BDE8F0836A
:1046500010B513684171C0F8063000219388C1601D
:104660000446438101610322012017F010FBA06181
:10467000204610BD000010B5417A4FF0A042012342
:1046800003FA01F1C2F80815417A01F5E07103243B
:1046900042F82140817A8B40C2F80C35837A03F5C9
:1046A000E07342F82340C17A01F5E071002342F83B
:1046B000213042791AB1012A47D0002010BD244B85
:1046C00003600368427AC3F808250368827AC3F856
:1046D0000C250368C27AC3F81025037A002BECD1AD
:1046E00003684FF00042C3F824258379002BE4D1FE
:1046F000C279032AE1D801685200C1F85425026842
:10470000C2F810310268C2F820310268C2F81831CC
:1047100002684021C2F8041302680224C2F804436C
:1047200002684FF40024C2F8044302680724C2F868
:104730000045084A82F803130821116080691A466F
:10474000194617F0C8FA0120B8E74FF04023B7E741
:1047500000BF0030004000E100E070B5D1F808551E
:10476000164C03F5A27644EA0524144D45F826407C
:10477000D4009B0004F1804404F5F83403F1804335
:1047800003F5C243C4F8103501F11403C4F814351D
:10479000012303FA02F20A4BC3F80425036800223E
:1047A000C3F818214023C1F808330223C1F80833A5
:1047B0004FF40023C1F8083370BD0100030000600E
:1047C000004000F0014030B503F5A2730F4D002406
:1047D00045F82340D30003F1804303F5F833C3F8D1
:1047E0001045C3F81445094BC3F804250368C3F802
:1047F00018414023C1F804330223C1F804334FF4B5
:104800000023C1F8043330BD00BF0060004000F059
:104810000140704782B0036801910092019AC3F889
:1048200044250368009AC3F8482502680023C2F8AB
:1048300050350268C2F834350268C2F8383502686B
:10484000C2F840350268C2F8183102B0704737B577
:10485000C36804468BB105698DB1FF2D28BFFF25C4
:104860002A46C168FFF7D6FFC3682B44C3600269BC
:104870000368521B026101221A6103B030BD436913
:104880007BB14069019501A918F0FBFA019B43B186
:10489000124B4FF080525A6040BFBFF34F8FBFF3AF
:1048A0006F8F2279012393404FF0A04201A9C2F8F3
:1048B00008350023E360A069019317F0ECFA019B2F
:1048C000002BDAD0054B4FF080525A6040BFBFF347
:1048D0004F8FBFF36F8FD0E700BF00ED00E084B0D3
:1048E00003910292026801930023C2F844350268E2
:1048F000C2F848350268C2F8503502680199C2F81A
:10490000341502680499C2F838150268C2F84035B7
:104910000268C2F8183104B070472DE9F04104462E
:1049200088461F461646002A47D04FF0FF3180695F
:1049300017F057FB18F023F90023012F606121685D
:1049400084F804801A46204634D1FFF706FF237905
:1049500001254FF0A04205FA03F3C2F80C35E660DA
:1049600027612669E168FF2E28BFFF2632462046D0
:10497000FFF750FF23699B1B2361E26823683244E1
:10498000AF42E2601D6113D12268D2F81831002BCA
:10499000FBD023794FF0A042012505FA03F3C2F8BA
:1049A00008350023A069E3601A46194617F093F909
:1049B000284603E0FFF707FFC9E71046BDE8F0818E
:1049C0002DE9F34104460025884680694FF0FF3108
:1049D00016461F4617F005FB216884F804802B4615
:1049E0002A4620466561FFF7EEFE23684022C3F8A1
:1049F000082323680222C3F8082323684FF4002207
:104A0000C3F8082323794FF001084FF0A04208FAB9
:104A100003F3C2F80C353146E5603A462561FFF7ED
:104A2000F9FE2368C3F810802268D2F81831002BF1
:104A3000FBD0099B00933A46089B31462046FFF77E
:104A40004EFF236801221A612268D2F81831002B28
:104A5000FBD0237901254FF0A04205FA03F3C2F8F9
:104A600008350023A0691A46194617F034F928467C
:104A700002B0BDE8F08100220368D3F8001511B13F
:104A8000C3F80025F8E7427A4FF0A04302F5E07240
:104A9000022143F82210827A02F5E07243F82210D4
:104AA000C27A02F5E07243F822107047FFF7E3BDC7
:104AB0002DE9F04104460025884680694FF0FF311A
:104AC00016461F4617F08DFA216884F804802B469D
:104AD0002A4620466561FFF776FE23684022C3F828
:104AE000082323680222C3F8082323684FF4002216
:104AF000C3F8082323794FF001084FF0A04208FAC9
:104B000003F3C2F80C353146E5603A462561FFF7FC
:104B100081FE2368C3F810802268D2F81831002B78
:104B2000FBD0DDE906122046FFF774FE2368012260
:104B30001A612268D2F81831002BFBD023790125A5
:104B40004FF0A04205FA03F3C2F808350023A0692C
:104B50001A46194617F0BFF82846BDE8F08110B58F
:104B6000016002F5E0734FF0A0410324027141F8A7
:104B70002340012303FA02F2C1F8082510BD1346B1
:104B80000A4601790068FFF7C8BE13B5049CCDE959
:104B9000003413460A4601790068FFF711FF02B09E
:104BA00010BD13B5049CCDE9003413460A460179C3
:104BB0000068FFF77DFF02B010BD03794FF0A042FF
:104BC000012000FA03F3C2F8083570470000014BDA
:104BD00001221A60704700000140024B034AC3F8EB
:104BE0000026704700BF000001403546526E4FF06E
:104BF00080424FF0FF31D2F80034C2F80014D907D8
:104C00000FD49A070FD459070FD41A070FD4D9031A
:104C10000FD49A030FD413F4002F0CBF08200720E1
:104C20007047002070470120704702207047032022
:104C30007047042070470520704738B5144BD3F8EF
:104C40000C2522F00102C3F80C25D3F80C2542F004
:104C50000102C3F80C25D3F80C2522F04002C3F85A
:104C60000C25D3F80C25C3F80C254FF47A7505FBF9
:104C700001F2D203B2FBF5F2013AC3F80425012296
:104C8000C3F808250446FFF7B2FF206038BD0000D6
:104C900001400160027170471FB5012300938DF838
:104CA0000F200DF10F030A460179006804F0F6F8B1
:104CB00005B05DF804FB1FB5012300930A460DF112
:104CC0000F030179006804F0C2F89DF80F0005B0E9
:104CD0005DF804FB10B501210446FFF7ECFF60F01E
:104CE0007F00C2B201212046BDE81040FFF7D4BFCB
:104CF00010B501210446FFF7DEFF012100F07F021D
:104D00002046BDE81040FFF7C7BF4FF0A043002288
:104D100010B5C3F878270446FFF7EAFF642017F0C0
:104D200032FD204660220121FFF7B6FF20466E22A9
:104D30000C21FFF7B1FF204688221621FFF7ACFFB8
:104D400020461022BDE810401721FFF7A5BF70B51F
:104D500009210546FFF7AFFF0A2106462846FFF75F
:104D6000AAFF0F2104462846FFF7A5FF00F00F0217
:104D7000200142EA0623C0B2184380B270BD20B1C0
:104D8000034B800143F001031847704700BFA0D8D0
:104D900001000271002202870122016002740549AC
:104DA0004275054A816202630549C1621022C060F2
:104DB0008283704700BF53160000991500007D16CE
:104DC000000037B590F83930054643B300F10804C8
:104DD000204600F0AAFC10BB204600F0BAFCF0B957
:104DE0002146012000F076FCC8B901212246084680
:104DF00000F0CBFC98B9214600F03EFD78B9214681
:104E0000012000F042FC50B94FF40273214601A882
:104E1000019300F097FA10B9012385F8383003B0F8
:104E200030BD07B5009313460A460179006804F0C7
:104E30000EF803B05DF804FB10B50446184613469F
:104E40000A462146FFF7EDFF002010BD07B500938D
:104E500013460A460179006804F020F803B05DF8B3
:104E600004FB10B50446184613460A462146FFF7D0
:104E7000EDFF002010BD70B591F8383086B00446C3
:104E80002BB9C0E900338360204606B070BD01F144
:104E90000805294604A800F0BBFA0026294602A806
:104EA000029600F03EFD2A46012103A800F009FB0E
:104EB00029460DF10700039B8DF807604FF47A72C5
:104EC00093FBF2F3039300F046FD029B2360BDF8D1
:104ED0001230A380BDF81030E380BDF81430238178
:104EE000D2E790F838007047083000F0F2BC10B5F7
:104EF0000446083000F007FC50B9012384F839302B
:104F0000044BBDE810404FF47A4043F001031847CA
:104F100010BDA0D8010048B1036A3BB1436A2BB170
:104F20004068B0FA80F04009404270474FF0FF30CF
:104F300070472DE9F84F834600AF1846884615465E
:104F40001C46FFF7E8FF40BB39B3E27A2A44D31D81
:104F500023F00703E946ADEB030D237AEA460BB9CC
:104F60004BF0800B266A636851465846B047607222
:104F700088B16FF00100CD46BD46BDE8F88FE17AFB
:104F80000AEB0206715C08F802109AB2954203F12E
:104F90000103F4D8EFE70346F7E74FF0FF30EBE704
:104FA00070B5054618461C46FFF7B5FFB8B9B1B154
:104FB000237A0BB905F07F052846666A6368B04717
:104FC0000546607270B994F82E20A36A6168012AC0
:104FD0000CBF02204FF4E1709847284670BD4FF097
:104FE000FF35FAE76FF00105F7E713B50023044634
:104FF0008DF806308DF80730FFF78DFF48B923464E
:1050000001220DF106015B20FFF793FF18B16FF04D
:10501000010002B010BD234601220DF107015C2002
:10502000FFF787FF0028F2D19DF806209DF8073092
:1050300002F00F0242EA0312A38A02EB530202F0CB
:105040000F0312098DF806308DF807202346012240
:105050000DF106015B20FFF7A3FF0028D9D12346FD
:1050600001220DF107015C20FFF79AFFD1E707B598
:105070000190FFF750FF019B80B903F11701012256
:105080005B20FFF78DFF019B40B9012203F118015E
:105090005C2003B05DF804EBFFF782BF03B05DF85E
:1050A00004FB1FB50446002208468DF80F2001912D
:1050B000FFF731FF78B974B1019B01220DF10F01A7
:1050C0007C2000F00BF820B99DF80F3003F00103AD
:1050D000237004B010BD4FF0FF30FAE72DE9F3471D
:1050E0001D460746002328460E4614468DF8073015
:1050F000FFF711FF8046002872D1002970D05E2F83
:1051000068D129460DF10700FFF7CBFF9DF8073066
:10511000012B074609D12946404600F067F8AB6AE3
:10512000696807464FF4E170984714F001095AD1B5
:10513000AB7DA34257D3002F55D1AF8AA74242D2AD
:10514000B4FBF7FA2846FFF792FF07FB1A47C84659
:1051500004465FFA89F39A4520D847B1D4B92B4663
:105160003A4606EB08015E20FFF7E3FE04468CB9E1
:105170002846FFF77CFF044660B99DF80700012828
:1051800008D1294600F032F8AB6A696804464FF44A
:10519000E1709847204602B0BDE8F087AA8A2B4606
:1051A00006EB08015E20FFF7C4FE044640B928461E
:1051B000FFF71BFF044618B9AB8A98441FFA88F81A
:1051C00009F10109C5E72B46224631465E20FFF76B
:1051D000B0FED0E72B463846FFF7ABFE0446D9E7D2
:1051E0004FF0FF34D6E76FF00904D3E71FB5002274
:1051F000044608468DF80F200191FFF78CFE019BB5
:10520000B0B901220DF10F017C20FFF767FF019B70
:1052100070B99DF80F2004F0010022F00102104344
:105220008DF80F0001220DF10F017C2000F002F833
:1052300004B010BD2DE9F74F1D4604460023284653
:105240000F4616468DF80730FFF765FE002873D12C
:10525000002971D05E2C69D129460DF10700FFF7B6
:1052600020FF9DF80730012B044609D140B929469B
:10527000FFF7BCFFAB6A696804464FF4E1709847DA
:1052800016F0010A5BD1AB7DB34258D3002C56D146
:10529000B5F814B0B34542D22846FFF7E8FE0446FD
:1052A00020BBB6FBFBF8D1465FFA8AF3984521D8BC
:1052B0000BFB18623AB1CCB92B4607EB09015E2013
:1052C000FFF76EFE04468CB92846FFF7D0FE044671
:1052D00060B99DF80700012808D12946FFF786FF2D
:1052E000AB6A696804464FF4E1709847204603B002
:1052F000BDE8F08FAA8A2B4607EB09015E20FFF775
:105300004FFE044640B92846FFF76FFE044618B921
:10531000AB8A99441FFA89F90AF1010AC4E72B46BE
:10532000324639465E20FFF73BFED0E720462B464B
:10533000FFF736FE0446D9E74FF0FF34D6E76FF0AB
:105340000904D3E730B585B0044600220846ADF81D
:105350000C200191FFF7DFFD68BB64B3A078617892
:10536000019B012824D1022928D82278551E0B2D13
:1053700024D8C00140EA01100243E1780193D2B27F
:105380008DF80C2001F00301D20983F82E208DF84E
:105390000D10012203A94020FFF74CFF019B28B903
:1053A00001220DF10D014120FFF744FF05B030BD92
:1053B00020B90729D8E74FF0FF30F7E76FF0070073
:1053C000F4E713B5002304468DF806308DF8073056
:1053D000FFF7A1FD0246B0B9237ABBB90122E27200
:1053E00023460DF10701FFF779FE024658B9012265
:1053F00023460DF106010020FFF770FE024610B9AA
:105400009DF806302370104602B010BDE072EEE742
:10541000F7B50023054608460F460093ADF8043063
:10542000FFF779FD002849D1002D47D00B46062211
:1054300069461220FFF752FE58BB9DF801309DF8D7
:1054400000609DF802409DF8042046EA03269DF87E
:10545000033044EA03249DF8053042EA032236B2C1
:1054600024B212B22E806C80AA803B7B0C2B12D10E
:10547000002EB8BF0F36002CB8BF0F34002A4FEAF9
:1054800026164FEA2414B8BF0F322E806C801211FA
:10549000AA8003B0F0BD0E2BFBD1002EB8BF03369F
:1054A000002CB8BF0334002A4FEAA6064FEAA40432
:1054B000B8BF03322E806C809210E9E74FF0FF30C6
:1054C000E7E77FB513460546002218460E468DF8DD
:1054D0000C200193FFF71FFD044648BB45B3019B19
:1054E000012203A92220FFF7F9FD78B99DF80C20CD
:1054F0004FF47A73534303F5B342022E02F158027C
:1055000006D0032E0ED02A6004B070BD2346F2E709
:105510004FF47A73B2FBF3F24FF4E1635A4302F5AE
:10552000FA42F0E703F5902303F2D6432B60EBE752
:105530004FF0FF30E8E7F7B50546294600208DF823
:1055400004008DF80500FFF751FEAB6A6968044658
:105550004FF4E17098474CB92B46012201A959201C
:10556000FFF768FE0446002800F08780204603B05D
:10557000F0BD73092F698DF806302846C6F3430342
:1055800037448DF80730FFF7C6FC002872D1002F92
:1055900070D02B4601220DF107015B20FFF74AFE78
:1055A000044678B92B4601220DF106015C20FFF775
:1055B00041FE044630B9AA8A2B4639465E20FFF7E1
:1055C000EFFC0446AB8A1E44B6B2AB8DB342D0D8D2
:1055D000002CCBD101262B46324601A959208DF84B
:1055E0000460FFF727FE04460028BFD1AB6A696854
:1055F0002548984732462B460DF105012A20FFF732
:105600006DFD9DF8056006F00F068DF805600446F7
:105610000028ABD1012E32D129463046FFF7E6FDF6
:1056200004460028A2D18DF806008DF80700284610
:10563000FFF771FC0446002898D12B4632460DF145
:1056400006015B20FFF775FC044600288ED12B462F
:1056500032460DF107015C20FFF76BFC0446002881
:1056600084D19DF8063003F00F03EB759DF80730E9
:105670002B767BE74FF0FF34A4E70646A5E76FF0F3
:10568000040473E700BFF04902001FB5002204467E
:1056900008468DF80F200191FFF73DFC019BB8B93A
:1056A00001220DF10F017D20FFF718FD019B78B954
:1056B0009DF80F20A40022F0040204F00404144317
:1056C0000DF10F0101227D208DF80F40FFF7B2FD93
:1056D00004B010BD07B58DF8070008460091FFF72C
:1056E0001AFC50B99DF80720012A09D8009B012215
:1056F0000DF107015520FFF79DFD03B05DF804FB98
:105700006FF00700F9E71FB5B62201908DF80F2062
:10571000FFF701FC019B28B901220DF10F017E204A
:10572000FFF788FD05B05DF804FB10B50446FFF7F0
:1057300048FE60B92378112B01BF0C232373462345
:10574000A37506BF4FF4C053A3856FF0030010BDCF
:10575000000078B10378112B0FD1838A9A1E442A56
:105760000ED8DA0744BF03F1FF338382064B03618F
:10577000FFF7E1BE4FF0FF3070476FF00300704756
:105780006FF009007047A6D8010030B595B0044607
:1057900001920D464222002103A8029118F069FBF4
:1057A000019B002B62D01A78112A62D1462202A9ED
:1057B0005E20FFF793FCA0BB012D04F0010204F072
:1057C000020504F0040004F00801019B04F0100439
:1057D00029D12AB19DF8432042F010028DF84320D0
:1057E0002DB19DF8432042F020028DF8432028B1CE
:1057F0009DF8482042F001028DF8482029B19DF81B
:10580000442042F001028DF844202CB19DF846203E
:1058100042F001028DF84620462202A95E20FFF7E1
:1058200009FD15B030BD2AB19DF8432022F01002C9
:105830008DF843202DB19DF8432022F020028DF8F1
:10584000432028B19DF8482022F001028DF848201D
:1058500029B19DF8442022F001028DF84420002C4B
:10586000DAD09DF8462022F00102D3E74FF0FF3056
:10587000D7E76FF00300D4E730B593B00D46044688
:105880000021422201A8009118F0F3FADDB12B7833
:10589000112B1BD12B46462269465E20FFF71EFCCA
:1058A00078B99DF83B20E40022F0080204F00804D7
:1058B00014432B46462269465E208DF83B40FFF795
:1058C000B9FC13B030BD4FF0FF30FAE76FF00300C2
:1058D000F7E710B592B004460021422201A80091DA
:1058E00018F0C7FABCB12378112B17D123464622F2
:1058F00069465E20FFF7F2FB58B99DF83B3043F054
:1059000004038DF83B304622234669465E20FFF7AC
:1059100091FC12B010BD4FF0FF30FAE76FF00300BA
:10592000F7E713B500230446019371B10B78112BEF
:105930000ED104220B461E200DEB0201FFF7CEFB19
:1059400008B9019B236002B010BD4FF0FF30FAE7A9
:105950006FF00300F7E713B5002304468DF8073016
:1059600079B10B78112B0FD10B4601220DF10701F4
:105970002720FFF7B3FB10B99DF80730237002B062
:1059800010BD4FF0FF30FAE76FF00300F7E710B5F6
:10599000142204460021043018F06BFA4FF4A0637F
:1059A00000222383E26100234FF0FF32C4E9082381
:1059B000A376014B1C60204610BD500300204FF021
:1059C000A0430C22C3F8302770471FB5114B114973
:1059D000044618680090684615F0EBFE08B117F011
:1059E000F4FC0D4A10685168127A01AB03C301A997
:1059F00000201A7015F025FF08B117F0E6FC012110
:105A0000204615F07CFF08B117F0DFFC04B010BD94
:105A100000BFA6F0010059230000AAF0010008B55C
:105A20004FF0A041D1F810256FEA123202F00102C6
:105A300080F82420D1F810256FEAD24202F001024A
:105A400080F8252090F826203AB90122C284FFF779
:105A5000BCFFBDE8084015F0A6BF08BD000038B582
:105A60002DED028B0B7804460D46002B53D10121FE
:105A700015F045FF08B117F0A8FC6B689FED2B7A75
:105A8000B3F900309FED2A8A07EE903AF8EEE77AF4
:105A900067EE877A9FED277A87EE870A84ED070AFB
:105AA00020EE080A18F0C7F880EE087AA07E617E22
:105AB000B0FBF1F201FB1202D2B2511C04EB8202E4
:105AC000A176DFED1C7A84ED077ADFED1B6A37EEF5
:105AD000677AC7EE267A67EE887AFDEEE77A17EEE8
